:020000040800F2
:10000000700F0020590C0008390700083B07000852
:100010003F070008430700084707000800000000EA
:100020000000000000000000000000004B07000876
:100030004D070008000000004F0700088F0A000865
:100040006F0C00086F0C00086F0C00086F0C0008A4
:100050006F0C00086F0C00086F0C00086F0C000894
:100060006F0C00086F0C00086F0C00086F0C000884
:100070006F0C00086F0C00086F0C00086F0C000874
:100080006F0C00086F0C0008ED0100086F0C0008F1
:100090006F0C00086F0C00086F0C00086F0C000854
:1000A0006F0C00086F0C00086F0C00086F0C000844
:1000B0006F0C00086F0C00086F0C00086F0C000834
:1000C0006F0C00086F0C00086F0C00086F0C000824
:1000D0006F0C00086F0C0008FB0800086F0C00088C
:1000E0006F0C00086F0C00086F0C000800F002F89D
:1000F00000F03CF80AA090E8000C82448344AAF186
:100100000107DA4501D100F031F8AFF2090EBAE883
:100110000F0013F0010F18BFFB1A43F0010318473B
:100120007841000098410000103A24BF78C878C197
:10013000FAD8520724BF30C830C144BF04680C60ED
:10014000704700000023002400250026103A28BF35
:1001500078C1FBD8520728BF30C148BF0B60704739
:100160001FB504F092F81FBD10B510BD04F053F890
:100170001146FFF7F5FF00F0D7FB04F071F803B468
:10018000FFF7F2FF03BC04F079F800000021002221
:1001900005E0DA4830F811000244481C81B2D84822
:1001A00000888142F5DBD6480088B2FBF0F080B2CF
:1001B00070470120D349087070470020D14908706A
:1001C00070477047CF4800787047CF480088704725
:1001D00001464FF0FF30CA4A1288914202DACB4AF8
:1001E000118000207047CA480078704710B5C54894
:1001F0000078052822D2DFE800F02403222325001E
:10020000C4480068C4490880C4480088BC490988BB
:10021000884202D10020C1490880BF480188BF48F8
:1002200002880088401CBD4B1880B44820F812108A
:10023000B9480088BA490968884704E000BF00BF90
:1002400000BF00BF00BF00BF6FF00200B1494C39D2
:100250000860B448006840F480204FF0E021C1F805
:10026000800210BD00B585B0684601F0ACFBDDE949
:100270000101884202D1029805B000BD02984000F9
:10028000FAE72DE9F04188B007460121042001F08A
:1002900014FCA54801F06CFC05A801F0CFFFFFF7A6
:1002A000E1FF3968B0FBF1F414B908B0BDE8F081A2
:1002B000B4F5803F03DA0025601E86B23AE04FF0C5
:1002C000FF3294464FF6FF7894FBF8F81FFA88F057
:1002D00019E000F101081FFA88F094FBF0F81FFA0A
:1002E00088F101FB1042624501D294460346A0F515
:1002F0007F48B8F1FF0806D1B4FBF3F81FFA88F184
:1003000098B2002201E0002AE3D100BF884208DD54
:10031000A1F101081FFA88F5A0F101081FFA88F67B
:1003200007E0A0F101081FFA88F5A1F101081FFA02
:1003300088F600BFADF81450ADF8186005A97A48EA
:1003400001F0EAFC0121784802F0A0F801A801F0D0
:100350007EFF6020ADF804000120ADF80600ADF886
:100360000A000220ADF80C0001A96F4801F0E3FD7E
:1003700001216D4801F087FF00BF96E708B5012114
:100380004FF4047001F08CFB2020ADF80000002039
:100390008DF803006946654801F0CEF808BD30B518
:1003A0008BB0054600205D4908800820544908802C
:1003B0005B496868086001214FF4047001F070FB2C
:1003C00001A801F000FB05982968B0FBF1F4514841
:1003D0004C3800F05BFC06A800F0A2FC4FF4202093
:1003E000089001208DF8280006A94A484C3800F0F2
:1003F00074FC012147484C3800F063FD0121454859
:100400004C3800F096FCEF2C07DD072301220F216A
:1004100040484C3800F0F9FC42E0472C07DD062349
:1004200001220F213B484C3800F0EFFC38E0372C1C
:1004300007DD052301220F2136484C3800F0E5FC8A
:100440002EE0292C07DD042301220F2131484C38EE
:1004500000F0DBFC24E01C2C07DD032301220F212C
:100460002C484C3800F0D1FC1AE00D2C07DD02239B
:1004700001220F2127484C3800F0C7FC10E0072C60
:1004800007DD01231A460F2122484C3800F0BDFC3D
:1004900006E0002301220F211E484C3800F0B5FC75
:1004A0001C484C3800F067FC00BF1A484C3800F07C
:1004B00067FC0028F9D117484C3800F06BFC00BFEE
:1004C00014484C3800F06BFC0028F9D10121114888
:1004D0004C3800F02EFC01224FF408710D484C38C6
:1004E00000F03DFC2846FFF7CCFEFFF747FF042154
:1004F000122000F047FA0BB030BD00005000002081
:10050000120000200C000020020000200400002047
:10051000000000204C2401400E00002010000020AC
:100520000800002080E200E00008004000100140C8
:1005300000B585B0684601F046FADDE90101884260
:1005400002D1029805B000BD02984000FAE72DE9FB
:10055000F04194B005467249A86808800121084618
:1005600001F091FA0121480701F0A7FA01210420C6
:1005700001F096FA1020ADF84C0000208DF84F00E5
:1005800013A9684800F0D8FF0121084601F095FA48
:1005900010A801F053FEFFF7CBFF2968B0FBF1F480
:1005A00014B914B0BDE8F081B4F5803F03DA002639
:1005B000601E87B23AE04FF0FF3294464FF6FF7864
:1005C00094FBF8F81FFA88F019E000F101081FFA0F
:1005D00088F094FBF0F81FFA88F101FB10426245A5
:1005E00001D294460346A0F57F48B8F1FF0806D132
:1005F000B4FBF3F81FFA88F198B2002201E0002A58
:10060000E3D100BF884208DDA1F101081FFA88F696
:10061000A0F101081FFA88F707E0A0F101081FFA0E
:1006200088F6A1F101081FFA88F700BFADF8406015
:10063000ADF844700020ADF84600ADF8420010A9B6
:100640004FF0804001F068FB01221102880501F0A3
:1006500048FE2021480602F080F80121880701F0B9
:1006600012FE00F031FD24200C9000200F902E4847
:1006700000F0DEFD2D480190686802901020039084
:10068000A868049000200590802006904000079004
:10069000800008902020099000020A9000200B9012
:1006A00001A9214800F065FE01211F4800F08CFEE1
:1006B0000CA9002000F013FD0121002000F02CFD0A
:1006C00000201B49087000BF6BE710B504460022EC
:1006D0004FF48071880501F004FE14480460012085
:1006E0001349087010BD10B501221102880501F0F0
:1006F000F8FD02200E49087010BD0D4800787047C3
:100700000C480088704701464FF0FF30044A1288B9
:10071000914202DA074A11800020704770470000BA
:1007200018000020000801401C000240087400402E
:100730001500002016000020704700BFFEE700BF34
:10074000FEE700BFFEE700BFFEE770477047704757
:1007500070B5054671484068006870494968C988A5
:1007600045546E484068C088401C84B26B4840685D
:100770008088401EA04200DA002468484068008952
:10078000A04204D1032065494968887206E06348A5
:100790004068C48001206149496888725F484068A8
:1007A000807A032808D002F0B5FAB0F5807F03DC28
:1007B00002205A494968887258484068807A70BD5A
:1007C00008B50121042001F06BF90420ADF8000008
:1007D00018208DF8030002208DF802006946504869
:1007E00000F0AAFE0820ADF8000004208DF80300F8
:1007F00069464B4800F0A0FE08BD1FB50446142210
:100800002146464803F0D2FC684602F0B7F820685B
:1008100000900121480401F050F9424802F002F82A
:100820006946404802F041F8012240F225513D4816
:1008300002F0D3F80221262000F0A4F8FFF7C0FF51
:100840000121384802F0BDF81FBD34488068C088D7
:1008500032498968098988420CD132480C300088B5
:1008600020F080002F490C31088000202B49896836
:10087000887270472B48008810F0800F37D02748C7
:1008800080680068254989680989405C2549091DF7
:100890000880224880680089401C204989680881B6
:1008A0001E4880680089B0F5806F03DB00201B497B
:1008B0008968088119488068008918498968C98849
:1008C00088420CD117480C30008820F08000154970
:1008D0000C310880002011498968887207E01148AE
:1008E0000C30008840F080000E490C31088000BFB9
:1008F000BFE700B5FFF7A9FF00BD10B509480488A0
:1009000014F0200F04D0011D0988C8B2FFF720FFA2
:1009100014F0800F01D0FFF798FF10BD6000002099
:10092000000801400044004000F02CF900F0A3F85A
:100930001149086000F09FF8104908601BE00E485C
:10094000006800F09BF838B10B4800680C49084477
:100950000949086002F09CFD0848006800F08EF824
:1009600048B10648006800F57A700449086002F052
:1009700053FCFFF7BEFFE2E71C0000202000002030
:10098000A086010030B50A460346C51700EBD565C1
:100990006911202303FB1103DCB213071D0E1D4B4D
:1009A0001D544FF0E02303EB8103D3F80031012500
:1009B000A5402B434FF0E02505EB8105C5F800313C
:1009C00030BD10B50246C41700EBD464611120227B
:1009D00002FB1102D3B2104A52F8214001229A4080
:1009E00022430D4C44F8212010BD10B50246C41717
:1009F00000EBD4646111202202FB1102D3B2074A3A
:100A000052F8214001229A402243044C44F821200C
:100A100010BD000000E400E080E100E080E200E0C2
:100A200000B585B0684600F0CEFF4FF0E0200069C9
:100A300040F006004FF0E021086146F2A81101984D
:100A4000B0FBF1F0401E4FF0E0214861084600691C
:100A500040F00100086105B000BD00BF0F49096802
:100A60008842FBD8704700B502460C4909688818CF
:100A7000FFF7F3FF00BD09480068704701460748CB
:100A80000068884201D9012070470020FCE7034834
:100A900000682830014908607047000024000020E9
:100AA00010B500F095FEFFF7BBFF4FF4803000F06B
:100AB000AFFE00F0ECFE012801D000BFFEE74FF4CE
:100AC0008021881000F008FF012000F011FF4FF492
:100AD000FA70FFF7C8FF392000F0BDFE012801D0F1
:100AE00000BFFEE7022000F006FF4FF4FA70FFF7A8
:100AF000BAFF00F009FF0221B1EBA00F01D000BF47
:100B0000FEE7002000F005FF002000F00BFF0020B2
:100B100000F011FF10BD000008B50121142000F005
:100B2000BFFF4FF48070ADF8000010208DF8030077
:100B300002208DF802006946414800F0FDFC4FF4A8
:100B40000070ADF8000010208DF8030002208DF831
:100B5000020069463A4800F0EFFC0120ADF80000C1
:100B600028208DF8030002208DF8020069463548E0
:100B700000F0E2FC08BD08B501200090684602F0D4
:100B800058F808BD0EB5FFF78BFFFFF7C5FFFFF75D
:100B900047FFFFF7F0FF2C482C490860002008723F
:100BA000012048724FF410604881084602F00DFBA6
:100BB000642002F0E4FA26480090264801901420B0
:100BC00002906846FFF7C3FC4FF40060214908809B
:100BD00040F67820488040F6B240888040F6776042
:100BE000C88040F69B70088140F6FF70488140F64F
:100BF0009B70888140F67760C88140F6B2400882D9
:100C000040F6782048824FF40060888240F2875096
:100C1000C8824FF45370088340F2871048836420E1
:100C200088830020C8836420088440F287104884A9
:100C30004FF45370888440F28750C8840EBD000082
:100C4000001001400008014070110100E40800207C
:100C500080841E007400002008480047FEE7FEE77D
:100C6000FEE7FEE7FEE7FEE7FEE7FEE7FEE7FEE75C
:100C700003480449024A044B70470000ED00000895
:100C8000700D0020700F0020700D002010B504467C
:100C9000F948844208D10121401500F01BFF0021D2
:100CA000601500F017FF17E0F448844208D10121D5
:100CB000001500F00FFF0021201500F00BFF0BE0E6
:100CC000EF48844208D10121C80300F003FF00214E
:100CD0004FF4004000F0FEFE10BD30B5024600208B
:100CE00000235068E74C20400D790C6844EA052445
:100CF000204350609068E44C2040D1E902542C43DA
:100D00004D7944EA450420439060D06A20F4700095
:100D10000C7C641EE4B2234340EA0350D06230BD31
:100D200000210160017141718160C1600121017484
:100D3000704721B1826842F00102826003E082685C
:100D400022F001028260704721B1826842F4807211
:100D5000826003E0826822F480728260704710B57E
:100D60000023CBB21AB144681C43446002E04468DB
:100D70009C43446010BD816841F008018160704768
:100D8000014600208A6812F0080F01D0012000E01F
:100D900000207047816841F004018160704701467E
:100DA00000208A6812F0040F01D0012000E000202A
:100DB000704721B1826842F4A002826003E0826839
:100DC00022F4A00282607047014600208A6812F473
:100DD000800F01D0012000E00020704710B50A46C6
:100DE00000210023416821F46041531E41EA433150
:100DF000416010BD21B1426842F40062426003E0EC
:100E0000426822F4006242607047F0B504460D4625
:100E100000200021092D11DDE068A5F10A0606EB8E
:100E20004607072606FA07F18843A5F10A0606EBEE
:100E3000460603FA06F10843E0600CE0206905EB82
:100E40004507072606FA07F1884305EB450603FA2E
:100E500006F108432061072A0FDA606B561E06EB85
:100E600086071F2606FA07F18843561E06EB8606FC
:100E700005FA06F10843606322E00D2A0FDA206BC1
:100E8000D61F06EB86071F2606FA07F18843D61FF2
:100E900006EB860605FA06F10843206310E0E06AD7
:100EA000A2F10D0606EB86071F2606FA07F1884316
:100EB000A2F10D0606EB860605FA06F10843E0628C
:100EC000F0BD21B1826842F48012826003E0826842
:100ED00022F48012826070470146C86C80B270476D
:100EE00065484C300068704721B1426842F4806226
:100EF000426003E0426822F480624260704721B1A0
:100F0000426842F48052426003E0426822F4805218
:100F1000426070470A460021816821F4E041114394
:100F20008160704721B1826842F40042826003E030
:100F3000826822F400428260704721B1826842F4E4
:100F40000212826003E0826822F40212826070471B
:100F5000014600208A6812F4001F01D0012000E041
:100F600000207047F0B504461546002000220026F8
:100F7000092911DDE068A1F10A0707EB470C0727F3
:100F800007FA0CF29043A1F10A0707EB470703FAAF
:100F900007F21043E0600CE0206901EB410C0727E9
:100FA00007FA0CF2904301EB410703FA07F21043F2
:100FB0002061A06BC0F30156EF1C06F1010CA7EBFA
:100FC0000C0707EB870C1F2707FA0CF29043EF1C66
:100FD00006F1010CA7EB0C0707EB870701FA07F2F4
:100FE0001043A063F0BD10B50A4600210023816BB9
:100FF00021F44011531E41EA0351816310BD10B525
:10100000002303460B441A6010BD0246002313461A
:1010100001F128000344186880B270470A46002195
:1010200041681A4B19401143416070474162826226
:1010300070470A460021416821F01F0111434160B9
:10104000704740B10C490831096841F400010A4A6F
:101050000832116007E008490831096821F40001ED
:10106000054A0832116070470246002013680B429F
:101070000ED001200DE000000024014000280140B6
:10108000003C0140FFFEF0FFFDF7F1FFFFFD3FFFD9
:1010900000207047CA430260704770B502460020C6
:1010A000002300240B125568CEB205EA0604156829
:1010B0001D4202D00CB1012000E0002070BD0022D2
:1010C0000A12D3430360704710B50121480700F0AE
:1010D0000EFD00214FF0005000F009FD10BD30B5AD
:1010E00000220023514C226840F6FE748440A24343
:1010F000D1E900452C438D682C43CD6844EA0503B3
:1011000003FA00F42243494C226030BD0021016003
:1011100041608160C160704739B1444A126801235F
:1011200083401A43414B1A6006E0404A126801238B
:1011300083409A433D4B1A60704741B13B4A126865
:101140004FF4805383401A43384B1A6007E0374A04
:1011500012684FF4805383409A43344B1A607047AF
:1011600010B551B1314A121D126804090123A34080
:101170001A432E4B1B1D1A6009E02C4A121D1268DF
:1011800004090123A3409A43284B1B1D1A6010BD7C
:1011900040B12649091D096841F00301234A121D87
:1011A000116007E02149091D096821F003011F4A68
:1011B000121D1160704710B53AB11C4B1B6801FA43
:1011C00000F42343194C236006E0184B1B6801FA16
:1011D00000F4A343154C236010BD0022134A00F114
:1011E00008031A44116070470022104A00F11403EA
:1011F0001A441160704730B500240023082802D13A
:1012000042EA012401E042EA0144084B00F12005D2
:101210002B441C6030BD01460022044A2C2000EB08
:1012200091000244106880B27047000000740040D2
:10123000016821F0010101600021016041608160CD
:10124000C1608B49884208D189490839496841F011
:101250000F01874A083A51608AE085491431884273
:1012600008D183490839496841F0F001804A083AB9
:1012700051607DE07E492831884208D17C49083997
:10128000496841F470617A4A083A516070E07849DF
:101290003C31884208D176490839496841F47041A7
:1012A000734A083A516063E071495031884208D16D
:1012B0006F490839496841F470216D4A083A516014
:1012C00056E06B496431884208D169490839496858
:1012D00041F47001664A083A516049E06449783146
:1012E000884208D162490839496841F07061604A12
:1012F000083A51603CE05F49884206D1011F096805
:1013000041F00F01021F116032E05A491431884246
:1013100008D15849091F096841F0F001554A121FC8
:10132000116025E053492831884208D15149091FED
:10133000096841F470614F4A121F116018E04D496D
:101340003C31884208D14B49091F096841F470417A
:10135000484A121F11600BE046495031884207D1BC
:101360004449091F096841F47021424A121F116063
:10137000704710B50022026847F6F0739A430C6A72
:101380008B6823430C6923434C6923438C692343B3
:10139000CC6923434C6A23438C6A23431A4302607B
:1013A000CB6843600B6883604B68C36010BD00214D
:1013B000016041608160C160016141618161C16121
:1013C000016241628162704721B1026842F001020C
:1013D000026003E0026822F00102026070471AB165
:1013E00003680B43036002E003688B4303607047AC
:1013F0000146486880B2704701460020002211F083
:10140000805F03D01B4B083B1A6802E0184B083B77
:101410001A680A4201D0012000E00020704710F055
:10142000805F03D01349091F086002E010490839A2
:101430004860704701460020002211F0805F03D011
:101440000C4B083B1A6802E0094B083B1A680A4239
:1014500001D0012000E00020704710F0805F03D031
:101460000449091F086002E00149083948607047D3
:10147000080002400804024010B50446CA488442ED
:1014800008D10121042000F025FB0021042000F0F8
:1014900021FB46E0C548844208D10121082000F024
:1014A00019FB0021082000F015FB3AE0C0488442F7
:1014B00008D10121102000F00DFB0021102000F0C8
:1014C00009FB2EE0BB48844208D10121202000F016
:1014D00001FB0021202000F0FDFA22E0B648844202
:1014E00008D10121402000F0F5FA0021402000F051
:1014F000F1FA16E0B148844208D10121802000F0C1
:10150000E9FA0021802000F0E5FA0AE0AC488442C4
:1015100007D10121801500F0DDFA0021A01500F0AF
:10152000D9FA10BD10B50121084600F0D3FA002108
:10153000012000F0CFFA10BD2DE9F0410246002550
:101540000026002000230024002791F803C00CF09F
:101550000F0591F803C01CF0100F03D091F802C0E2
:101560004CEA0505B1F800C01CF0FF0F31D014683B
:1015700000202BE04FF0010C0CFA00F3B1F800C092
:101580000CEA03069E4220D183004FF00F0C0CFAA8
:1015900003F7BC4305FA03FC4CEA040491F803C0CA
:1015A000BCF1280F06D14FF0010C0CFA00FCC2F878
:1015B00014C00AE091F803C0BCF1480F05D14FF008
:1015C000010C0CFA00FCC2F810C0401C0828D1D352
:1015D0001460B1F800C0BCF1FF0F34DD5468002086
:1015E0002EE000F1080C4FF0010808FA0CF3B1F8F6
:1015F00000C00CEA03069E4221D183004FF00F0C7D
:101600000CFA03F7BC4305FA03FC4CEA040491F816
:1016100003C0BCF1280F05D100F1080C08FA0CF842
:10162000C2F8148091F803C0BCF1480F07D100F153
:10163000080C4FF0010808FA0CF8C2F81080401CA2
:101640000828CED35460BDE8F0814FF6FF710180C9
:10165000022181700421C170704702460020936806
:101660000B4201D0012000E000207047014688684D
:1016700080B2704702460020D3680B4201D001209F
:1016800000E0002070470146C86880B270470161E1
:101690007047416170470AB1016100E041617047E4
:1016A000C16070474FF480320A4382618161826178
:1016B00082698269704702460020424B18684FF6E3
:1016C0008073184040EA021008433E4B1860704790
:1016D0003D49C8617047F0B50A4600230024002147
:1016E000002500F00046B6F1004F02D1354EF169F9
:1016F00001E0344E7168C0F3034583B200F4401634
:10170000B6F5401F08D121F070612E4E766826F0A4
:1017100070662C4F7E6012E000F48016B6F5801FD4
:1017200006D1032606FA05F4A14341F0706106E0F4
:10173000460D360103FA06F6B14341F0706122B15D
:10174000460D360103FA06F6314300F00046B6F1C5
:10175000004F02D11B4EF16101E01A4E7160F0BDE5
:1017600030B500228B071C0F0F2303FA04F2154B30
:1017700008338C1053F824309343124C08348D10E6
:1017800044F8253023468C1053F824308C07240F5E
:1017900000FA04F423430B4C08348D1044F8253030
:1017A00030BD0A490860704700080140000C014044
:1017B000001001400014014000180140001C0140CD
:1017C000002001400000014000002042DC002042D7
:1017D000DC48006840F00100DA49086008464068CB
:1017E000D9490840D749486008460068D7490840A9
:1017F000D44908600846006820F480200860084644
:10180000406820F4FE0048604FF41F008860704775
:10181000CC49096821F48031CA4A1160114609682F
:1018200021F480211160B0F5803F03D0B0F5802F06
:101830000ED106E0C349096841F48031C14A116004
:1018400007E0C049096841F4A021BE4A116000E0E8
:1018500000BF00BF704710B50146002200230020E2
:101860004A11012A02D1B74C236806E0022A02D1AC
:10187000B44C236A01E0B34C636A01F01F020124F7
:1018800094401C4201D0012000E0002010BD70B542
:1018900000240025002600BF3120FFF7DCFF0646AC
:1018A000641CB4F5A06F01D0002EF5D03120FFF7F5
:1018B000D2FF08B1012500E00025284670BD014691
:1018C0000020A04A106820F0F80040EAC100106033
:1018D00070479F490860704702460020994B58683E
:1018E00020F47C1042EA01031843964B586070477D
:1018F00097490866704701460020924A506820F0D8
:1019000003000843506070478E48406800F00C00A8
:101910007047014600208B4A506820F0F0000843D1
:101920005060704701460020864A506820F4E0600D
:1019300008435060704701460020824A506820F4F6
:10194000605040EAC1005060704729B17D4A527A28
:1019500002437C4B5A7206E07A4A527AC343DBB2A6
:101960001A40784B5A7270477A49086070470146AE
:101970000020744A506820F440400843506070478B
:101980000021754A11706F4A82F82010012802D098
:10199000042808D103E001216F4A117004E00521F9
:1019A0006D4A117000E000BF00BF70476B490860CE
:1019B00070476449096A0143624A11627047674986
:1019C00044390860704730B500210022002400230C
:1019D0005C4D6D6805F00C0121B1042905D0082982
:1019E00023D105E05E4D056022E05D4D05601FE0FE
:1019F000544D6D6805F47012524D6D6805F48034D5
:101A0000022505EB92421CB9564D554305600BE08B
:101A10004C4D6D6815F4003F03D0524D55430560A1
:101A200002E04F4D5543056002E04D4D056000BF9B
:101A300000BF444D6D6805F0F00109094A4D6B5C2B
:101A40000568DD4045603F4D6D6805F4E061090AB9
:101A5000454D6B5C4568DD4085603A4D6D6805F429
:101A60006051C90A404D6B5C4568DD40C560354D2D
:101A70006D6805F44041890B3C4D6B5CC568B5FB56
:101A8000F3F5056130BD29B12E4A526902432D4B51
:101A90005A6104E02B4A526982432A4B5A617047CB
:101AA00029B1284A92690243264B9A6104E0254AEB
:101AB00092698243234B9A61704729B1214AD269C6
:101AC0000243204BDA6104E01E4AD26982431D4B77
:101AD000DA61704729B11B4AD2680243194BDA60B8
:101AE00004E0184AD2688243164BDA60704729B185
:101AF000144A12690243134B1A6104E0114A126935
:101B00008243104B1A61704714494039086070478E
:101B10000F49C86470470B49C87170470948406A4B
:101B200040F0807007494862704701460020054A2E
:101B300092680A4201D0012000E00020704701496C
:101B400088727047001002400000FFF8FFFFF6FEA9
:101B500000004242D800424220100240800442422B
:101B600000127A0000093D00280000203800002003
:101B700010B50446FE48844208D10121C014FFF785
:101B8000A9FF0021E014FFF7A5FFC4E0B4F1804FE6
:101B900008D101210846FFF7AAFF00210120FFF725
:101BA000A6FFB8E0F348844208D101210220FFF7E4
:101BB0009EFF00210220FFF79AFFACE0EE4884422E
:101BC00008D101210420FFF792FF00210420FFF734
:101BD0008EFFA0E0E948844208D101210820FFF7E8
:101BE00086FF00210820FFF782FF94E0E44884424A
:101BF00008D101211020FFF77AFF00211020FFF704
:101C000076FF88E0DF48844208D101212020FFF7D9
:101C10006EFF00212020FFF76AFF7CE0DA48844253
:101C200008D101214014FFF755FF00216014FFF790
:101C300051FF70E0D548844209D10121C804FFF763
:101C400049FF00214FF40020FFF744FF63E0D04834
:101C5000844209D101210805FFF73CFF00214FF420
:101C60008010FFF737FF56E0CA48844209D10121AE
:101C70004805FFF72FFF00214FF40010FFF72AFF60
:101C800049E0C548844208D101214020FFF72FFFD9
:101C900000214020FFF72BFF3DE0C048844208D1DF
:101CA00001218020FFF723FF00218020FFF71FFF85
:101CB00031E0BB48844208D101218015FFF717FFAE
:101CC0000021A015FFF713FF25E0B648844209D193
:101CD00001210804FFF7FEFE00214FF48030FFF7DA
:101CE000F9FE18E0B048844209D101214804FFF709
:101CF000F1FE00214FF40030FFF7ECFE0BE0AB48A3
:101D0000844208D101218804FFF7E4FE00214FF44A
:101D10008020FFF7DFFE10BD00220288944B98421E
:101D20000ED0994B98420BD0B0F1804F08D0914B18
:101D3000984205D0904B984202D0904B984204D1E3
:101D40004FF68F731A404B881A438D4B984207D039
:101D50008C4B984204D04FF6FF431A40CB881A436D
:101D600002808B8883850B880385814B98420BD03A
:101D7000854B984208D08B4B984205D08A4B9842AD
:101D800002D08A4B984201D10B7A038601238382C9
:101D9000704770B5002400220023058C4FF6FE76B4
:101DA00035400584028C8388048B4FF68F752C4058
:101DB000B51E2C400D882C43751E2A400D892A43E0
:101DC0004D882A436A4DA8420BD06F4DA84208D0D7
:101DD000744DA84205D0744DA84202D0734DA8425C
:101DE00013D14FF6F7752A404D892A434FF6FB75FC
:101DF0002A408D882A434FF6FF652B404FF6FF554A
:101E00002B408D892B43CD892B4383800483CD8840
:101E10008586028470BD70B5002400220023058CE5
:101E20004FF6EF7635400584028C8388048B48F6A4
:101E3000FF752C404FF6FF452C400D882D0644EAD7
:101E400015444FF6DF752A400D892D0542EA1542EB
:101E50004D882D0542EA1542454DA84202D04A4D13
:101E6000A8421BD14FF67F752A404D892D0542EAC5
:101E700015424FF6BF752A408D882D0542EA15425E
:101E80004FF6FF352B404FF2FF752B408D89AD0487
:101E900043EA1543CD89AD0443EA154383800483A7
:101EA000CD880587028470BD70B500240022002310
:101EB000058C4FF6FF6635400584028C8388848B41
:101EC0004FF68F752C404FF6FC752C400D882C4337
:101ED0004FF6FF552A400D892D0642EA15424D88DE
:101EE0002D0642EA1542224DA84202D0264DA842B4
:101EF0001BD14FF2FF752A404D892D0642EA15424B
:101F00004FF6FF352A408D882D0642EA15424EF6DF
:101F1000FF752B404DF6FF752B408D892D0543EA4B
:101F20001543CD892D0543EA154383808483CD88ED
:101F30008587028470BD70B5002200230024058CC3
:101F40004EF6FF7635400584038C8488828B48F6F4
:101F5000FF752A404FF6FF452A400D882D0642EABC
:101F600015424DF6FF752B400D892D0720E000002E
:101F7000002C01400004004000080040000C00401C
:101F8000001000400014004000340140004C0140AB
:101F9000005001400054014000180040001C004067
:101FA0000020004000400140004401400048014042
:101FB00043EA15434D882D0743EA1543FE4DA842D9
:101FC00002D0FE4DA84206D14BF6FF752C408D89FC
:101FD000AD0544EA154484808283CD88A0F8405042
:101FE000038470BD828B4FF2FF331A408283828B51
:101FF0000B0642EA134282837047F0B50C46154641
:10200000002100220026078C4EF6FF7C07EA0C0711
:102010000784818B028C27073E0C40F6FF4739402E
:102020002F0641EA17411F0741EA17414DF6FF7796
:102030003A4046F480573A4381830284F0BD828B54
:102040004FF6F3731A408283828B0A438283704770
:10205000F0B50C461546002100220026078C4FF6ED
:10206000FF6C07EA0C070784818B028C27063E0C65
:102070004FF60C7739401F0545EA174739434FF6AD
:10208000FF573A4046F480773A4381830284F0BD9B
:10209000028B4FF2FF331A400283028B0B0642EA97
:1020A000134202837047F0B50C461546002100220A
:1020B0000026078C4FF6EF7C07EA0C070784018B9C
:1020C000028C27053E0C40F6FF4739401F0741EAC6
:1020D00017412F0641EA17414FF6DF773A4046F0A5
:1020E00010073A4301830284F0BD028B4FF6F3736D
:1020F0001A400283028B0A4302837047F0B50C46F4
:10210000154600210022068C4FF6FE773E400684DD
:10211000018B028C4FF60C7631401E0545EA1646BF
:1021200031437E1E324044F0010632430183028473
:10213000F0BD70B505460C46208850B92389A288A9
:1021400061882846FFF7DAFFE1882846FFF7CDFFD0
:1021500025E0208804280AD12389A288618828469E
:10216000FFF7A1FFE1882846FFF792FF17E02088DC
:1021700008280AD12389A28861882846FFF768FFCA
:10218000E1882846FFF75BFF09E02389A288618880
:102190002846FFF732FFE1882846FFF723FF70BD8E
:1021A0002DE9F04105460C4600260127608808B954
:1021B000022600E00026A088012801D1022700E0C5
:1021C00001272088A0B92389A28861882846FFF7C3
:1021D00095FFE1882846FFF788FF23893A46314674
:1021E0002846FFF760FFE1882846FFF751FF13E01C
:1021F0002389A28861882846FFF755FFE188284691
:10220000FFF746FF23893A4631462846FFF776FF17
:10221000E1882846FFF769FFBDE8F0810A884B880E
:102220001A438B881A43CB881A430B891A434B896C
:102230001A438B891A43A0F8442070474FF6FF7168
:10224000818000210180C18041800172704700219E
:10225000018041808180C180018141818181C18172
:102260007047002101804180012181800021C180CF
:10227000018170470021018041808180C1800181FE
:1022800041818181704721B1028842F001020280C0
:1022900004E002884FF6FE731A400280704731B1A5
:1022A000B0F8442042F40042A0F8442005E0B0F821
:1022B0004420C2F30E02A0F84420704710B51AB1B2
:1022C00083890B43838104E08389CC43A4B22340F8
:1022D000838110BD8182704741EA0203A0F8483033
:1022E000704710B51AB183890B43838104E0838959
:1022F000CC43A4B22340838110BD01894FF6F8720C
:102300001140018170470A46002101894FF68F7301
:10231000194011430181704730B504460D462946E6
:102320002046FFF7F0FF208940F00700208130BDF4
:102330002DE9F04104460D4616461F46602D06D194
:102340003B46012231462046FFF7ADFE05E03B4605
:10235000012231462046FFF7D1FE29462046FFF7ED
:10236000D2FF208940F007002081BDE8F08130B520
:102370000C4600210189C9B21D0642EA15452543D4
:102380002943018130BD2DE9F04105460E4617462F
:102390009846002443463A4631462846FFF7E7FF71
:1023A0002C894FF6F870044044F007044FF68F7004
:1023B000044044F0700403E0002C0140003401406C
:1023C0002C81BDE8F081F0B504460D4616461F4647
:1023D0003B46324629462046FFF7C9FF208940F494
:1023E00080402081F0BD0185828270470A4600212D
:1023F00001884FF68F731940114301807047F0B583
:102400000C4615461E460021002200230189028B3E
:10241000038C4FF6F877394021434FF6FC473A409A
:1024200040F201173A434FF6DD773B40370545EA66
:1024300017473B43018102830384F0BD0A46002114
:10244000018B4FF68F7319401143018370470A4681
:102450000021018B48F6FF731940130641EA13412E
:10246000018370470A460021818B4FF68F73194014
:102470001143818370470A460021818B48F6FF7320
:102480001940130641EA13418183704721B1028844
:1024900042F08002028004E002884FF67F731A4007
:1024A0000280704721B1828842F00402828004E0F9
:1024B00082884FF6FB731A408280704721B1828870
:1024C00042F00802828004E082884FF6F7731A40D7
:1024D0008280704721B1828842F00102828004E04C
:1024E00082884FF6FE731A40828070470A460021A8
:1024F000018B4FF6F77319401143018370470A4669
:102500000021018B4FF2FF731940130641EA13417A
:10251000018370470A460021818B4FF6F7731940FB
:102520001143818370470A460021818B4FF2FF736C
:102530001940130641EA1341818370470A4600217E
:10254000018B4FF6FB7319401143018370470A4614
:102550000021018B4FF6FF331940130641EA134166
:10256000018370470A460021818B4FF6FB731940A7
:102570001143818370470A460021818B4FF6FF3358
:102580001940130641EA1341818370470A4600212E
:10259000018B4FF67F7319401143018370470A4640
:1025A0000021018BC1F30E01130641EA134101839F
:1025B00070470A460021818B4FF67F731940114303
:1025C000818370470A460021818BC1F30E011306F7
:1025D00041EA1341818370470A460021018C4FF67E
:1025E000FD7319401143018470470A460021018C94
:1025F0004FF6F77319401143018470470A460021D2
:10260000018C4FF6DF731940130541EA1341018431
:1026100070470A460021018C4FF67F73194013055D
:1026200041EA1341018470470A460021018C4FF6AC
:10263000FF531940130641EA1341018470470A46CB
:102640000021018C4FF2FF731940130641EA134138
:10265000018470470A460021018C4DF6FF73194032
:10266000130741EA13410184704730B50023012468
:102670008C40A3B2048CDD43ADB22C400484048CA6
:1026800002FA01F5ADB22C43048430BD30B500230D
:1026900004248C40A3B2048CDD43ADB22C400484EE
:1026A000048C02FA01F5ADB22C43048430BD70B540
:1026B0000346002000241846183001258D40ACB296
:1026C0001D8CE643B6B235401D8409B1082909D1F5
:1026D00000EB6100056825F070050560056815438D
:1026E00005600CE00D1FADB200EB6500056825F438
:1026F000E04505600568160645EA1645056070BDAB
:1027000021B1028842F00202028004E002884FF602
:10271000FD731A400280704721B1028842F0040222
:10272000028004E002884FF6FB731A400280704773
:1027300021B1828842F08002828004E082884FF6D4
:102740007F731A408280704702884FF6F7731A40F1
:10275000028002880A430280704782884FF68F7396
:102760001A40828082880A438280704702894FF62D
:10277000F8731A40028102890A4302817047028974
:102780004FF67F731A40028102890A430281704723
:1027900081847047818570478186704701877047C3
:1027A00081877047A0F84010704702884FF6FF43BA
:1027B0001A40028002880A43028070470146888ED0
:1027C00070470146088F70470146888F7047014661
:1027D000B1F8400070470146888C70470146088D6B
:1027E000704702460020138A0B4201D0012000E00E
:1027F00000207047CA430282704730B5024600206D
:1028000000230024158A05EA0103958905EA0104DD
:1028100013B10CB1012000E0002030BDCA43028298
:102820007047000010B50446FC48844209D10121DC
:102830008803FFF74FF900214FF48040FFF74AF972
:1028400032E0F748844209D101214804FFF74FF9EB
:1028500000214FF40030FFF74AF925E0F1488442A7
:1028600009D101218804FFF742F900214FF48020AB
:10287000FFF73DF918E0EC48844209D10121C80472
:10288000FFF735F900214FF40020FFF730F90BE096
:10289000E648844208D101210805FFF728F9002104
:1028A0004FF48010FFF723F910BD2DE9F04786B0F3
:1028B00005460E460024A24600BFA1460027B08967
:1028C00000B100BF2F462C8A4CF6FF700440F08800
:1028D00004432C82AC894EF6F3100440B088318951
:1028E0000843718908430443AC81AC8A4FF6FF402A
:1028F0000440B0890443AC8201A8FFF764F8C748DC
:10290000874202D1DDF810A001E0DDF80CA0A88913
:1029100010F4004F08D00AEBCA0000EB0A1031682F
:102920004900B0FBF1F807E00AEBCA0000EB0A101F
:1029300031688900B0FBF1F86420B8FBF0F00401C5
:102940002009642101FB1089A88910F4004F08D0E8
:10295000322000EBC900B0FBF1F000F007000443A7
:1029600008E0322000EB09106421B0FBF1F000F028
:102970000F0004432C8106B0BDE8F0874FF41651D8
:10298000016000218180C18001810C2141810021F1
:102990008181704710B502460020108A4FF2FF0374
:1029A00018400B884C8823438C882343CC882343CE
:1029B0001843108210BD0021018041808180C180B8
:1029C000704721B1828942F40052828104E08289F9
:1029D0004DF6FF731A4082817047F0B5034600241C
:1029E000002600250020A1F510676A3F00D100BF36
:1029F0001846C1F3421401F01F06012707FA06F535
:102A0000012C01D10C3004E0022C01D1103000E087
:102A100014301AB107682F43076002E00768AF431C
:102A20000760F0BD10B51AB1838A0B43838204E0BE
:102A3000838ACC43A4B22340838210BD028A4FF61E
:102A4000F0731A400282028A0A4302827047828926
:102A50004FF2FF731A40828182890A438281704754
:102A600021B1828942F00202828104E082894FF61C
:102A7000FD731A4082817047028A4FF6DF731A4055
:102A80000282028A0A430282704721B1028A42F41A
:102A90008042028204E0028A4BF6FF731A400282EF
:102AA0007047C1F308028280704701468888C0F3EE
:102AB00008007047818941F0010181817047028BD4
:102AC000D2B20283028B42EA012202837047028B58
:102AD00002F47F420283028B0A430283704721B1D2
:102AE000828A42F02002828204E0828A4FF6DF73FB
:102AF0001A408282704721B1828A42F0100282829B
:102B000004E0828A4FF6EF731A408282704721B147
:102B1000828A42F00802828204E0828A4FF6F773CA
:102B20001A408282704721B1828942F40042828138
:102B300003E08289C2F30E028281704721B1828A4A
:102B400042F40062828204E0828A4FF2FF731A40EC
:102B500082827047828A4FF6FB731A408282828A91
:102B60000A438282704721B1828A42F00202828245
:102B700004E0828A4FF6FD731A4082827047024653
:102B80000020B1F5007F00D100BF13880B4201D0B7
:102B9000012000E00020704701F40072B2F5007FD0
:102BA00000D100BFCA430280704770B502460024BE
:102BB000002300250020A1F510666A3E00D100BF69
:102BC000C1F3421501F01F03012606FA03F3012D9C
:102BD00002D19689334006E0022D02D1168A334095
:102BE00001E0968A33400C12012606FA04F4168896
:102BF000344013B10CB1012000E0002070BD10B5CD
:102C000000220023A1F510646A3C00D100BF0A1223
:102C100001249440A3B2DC43048010BD003801407D
:102C20000044004000480040004C0040005000407C
:102C3000704710B504469B48217801704FF48060BE
:102C400099498880994808600020C8800881887266
:102C50004FF4806096498880964808600020C880BC
:102C6000088188728F480078012805D0022808D191
:102C700091489249086009E04FF4E1308F490860BB
:102C800004E04FF416508D49086000BF00BF88482B
:102C90008A49486084488860AFF26B00C860084683
:102CA000FDF7ABFD10BD8248807A70477E490989E7
:102CB0007D4AD288914206DD7B4909897A4AD288C9
:102CC000891A88B208E078498988774AD288891AAF
:102CD000754A1289114488B2704700B57248C0889D
:102CE00071490989884203D100206F49887202E046
:102CF00001206D4988726C48807A032807D0FFF75D
:102D0000D5FFB0F5807F02DC0220674988726648F3
:102D1000807A00BD66490989654AD288914206DDFC
:102D200063490989624AD288891A88B208E06049F1
:102D300089885F4AD288891A5D4A1289114488B20B
:102D4000704700B5FFF7E6FFC0F5806080B200BDB8
:102D50005B480078704710B504465348C088534913
:102D60000C545148C088401C83B24F488088401E94
:102D7000984200DA00234C480089984203D103208E
:102D80004949887204E04848C38001204649887256
:102D90004548807A032807D0FFF788FFB0F5807F89
:102DA00002DC0220404988723F48807A10BD10B58D
:102DB00004462046FFF7CFFF10BD70B5044604E07F
:102DC0002078FFF7C8FF0546641C20780028F7D15B
:102DD000FDF78FFD284670BD70B504460D46FFF720
:102DE00065FFA8420DDB002605E02078FFF7B3FF62
:102DF000641C701C86B2AE42F7DBFDF77AFD002042
:102E000070BD4FF0FF30FBE72949C988284A128975
:102E1000914202D14FF0FF3008E025490989254A47
:102E2000505C23490989491C214A1181204909899B
:102E30001F4A9288914202DB00211D4A118170478E
:102E400070B504460E46002509E0FFF7DDFF034696
:102E5000B3F1FF3F03D02370641C681C85B2B3F14B
:102E6000FF3F01D0B542F0DB28B270BD1049C988E0
:102E70000F4A1289914202D14FF0FF3003E00C4912
:102E800009890C4A505C704700B587B0684601F06C
:102E9000D5F81C2269460B4801F088F9094807B0AB
:102EA00000BD00003C0000209C000020E400002049
:102EB000A8000020E404002001C20100D00000208E
:102EC0003D000020B40000200120C949087070476F
:102ED000C84901604FF4FA7181800021018141816C
:102EE000C181C1800182C1748174704710B5C2492B
:102EF0004868FFF7EDFF0220BF4908730120BF4972
:102F00000870FDF756F910BD10B5BB48007B0028CE
:102F10005FD003285CD1FFF7E0FE022800D159E022
:102F2000B648007858B1B6A0FFF747FFB2484068EE
:102F3000008AB149496848810020B0490870AE480C
:102F400040680068AC494968498930F81100AF49C8
:102F50000880A94840684089401CA74949684881C1
:102F6000A54840684089A44949688988884203D1B6
:102F70000020A14949684881A44800880011A3495C
:102F8000088008460088C0B2088008460088C0B2A1
:102F9000FFF7E1FE98484068408997494968098AE7
:102FA000884214D19448407A48B101280AD00228B6
:102FB0000BD1002090490873FDF7FFF806E0FFF7FA
:102FC00095FF03E0FFF792FF00E000BF00BF01E0C4
:102FD00000BF00BF00BF10BDC27C22B1012A03D0D8
:102FE000022A14D112E000BF0289521C0281028918
:102FF00083889A4203D100220281012282740389CC
:10300000026822F813100122C27400E000BF00BF62
:10301000704730B504460D46E08958B90220E07487
:103020002089401C2082208AA188884209DB002058
:10303000208206E029462046FFF7CEFFE089401EA9
:10304000E081E07C30BD0189C180817C39B9818813
:103050008289891A82880389D21A914204DD818883
:103060008289891AC18104E081880289891A491EEE
:10307000C1817047014608898A89904201DC887CB9
:1030800008B1012070470020FCE730B50446002558
:103090005948007B05285CD2DFE800F05C4F035AFA
:1030A0005D0055494868FFF7E5FF002830D05248D9
:1030B000407A01282CD05048007A10B1012826D13E
:1030C00012E04D484089A04206DA5148007818B114
:1030D000012500204E49087047484089A04202DD82
:1030E00001204B49087012E043484089A04206DDA8
:1030F0004748007818B101250020454908703E482E
:103100004089A04202DA01204149087000BF00BF97
:10311000394948682146FFF75FFF1DB93648407AB4
:10312000012809D10120344908730020384908706A
:1031300031494868FFF787FF0EE02F49486821466C
:10314000FFF767FF022802D103202B49087303E031
:1031500002E000BF00BF00BF00BF30BD1CB5044689
:10316000254804600094AFF2DD0001906846FDF749
:1031700016F91CBD10B50446FDF708F810BD4FF454
:10318000FA7190FBF1F201FB12011B4A5268918126
:10319000704710B5FDF711F800201749087310BDEE
:1031A0007047154948817047134948727047124962
:1031B000087270471048007B704700B501200E4927
:1031C00008734868FFF73FFF00BD1CB50446206840
:1031D0000090AFF2491001906846FDF7E0F80D4805
:1031E0006060002020736068FFF772FE1CBD000065
:1031F0003E00002008090020E40800203F000020D5
:103200004F53433833353030000000004200002077
:1032100040000020F408002010B5FFF775FE10BD37
:1032200010B500242AE1C2480068001D50F824109F
:10323000C04A881A914218D00CDCBF48081872D0D6
:10324000BE49401870D0BE4940186ED0BD494018E4
:103250006CD10CE1A0F13F700D3868D0BA4940182C
:1032600073D0BA494018F3D1FDE0B148006810307E
:1032700050F82400B649884204D14FF47A70FFF721
:103280006DFFA1E0AA480068103050F82400B04952
:10329000491C884204D14FF4FA60FFF75FFF93E0C6
:1032A000A3480068103050F82400A949091D88423D
:1032B00004D141F28830FFF751FF85E09C48006857
:1032C000103050F82400A349884204D142F2107013
:1032D000FFF744FF78E096480068103050F824006B
:1032E0009C49491C884204D144F62060FFF736FF10
:1032F0006AE08F480068103050F824009549091D95
:10330000884204D14CF25030FFF728FF5CE0884837
:103310000068103050F824008F49884208D18F4847
:10332000FFF71CFF50E086E04FE07BE0A2E09BE06F
:103330007F480068103050F824008749491C8842B3
:1033400004D18748FFF70AFF3EE062E07848006852
:10335000103050F824008049091D884203D181486B
:10336000FFF7FCFE30E072480068103050F824008F
:103370007D49884203D17D48FFF7F0FE24E06C4888
:103380000068103050F824007749491C884203D166
:103390007748FFF7E3FE17E065480068103050F803
:1033A00024007149091D884203D17248FFF7D6FEF7
:1033B0000AE05F480068103050F824006E498842E7
:1033C00002D16E48FFF7CAFE55E059480068103038
:1033D00050F824006A49884203D10020FFF7E4FE38
:1033E00016E053480068103050F8240065498842C0
:1033F00003D10120FFF7D8FE0AE04D4800681030E5
:1034000050F824006049884202D10220FFF7CCFE28
:1034100031E047490968103151F8241088B2FFF7AC
:10342000AEFE28E042490968103151F8241088B2F4
:10343000FFF7B7FE1FE03E480068103050F8240048
:103440005249884203D10020FFF7B1FE0AE0384814
:103450000068103050F824004D49884202D1012004
:10346000FFF7A5FE07E006E0FFF740FD03E0FFF7EA
:1034700090FE00E000BF00BF601CC4B22C48006892
:10348000001D50F8240010B1032CFFF6CCAE10BD87
:1034900010B5FFF7F9FC2649086008460068006887
:1034A0003C4A811A904238D00CDC3B49401816D077
:1034B0003A49401835D03A49401818D0394940188F
:1034C00033D110E03848081823D0384940181CD0B0
:1034D0003749401815D03749401826D10DE036A09D
:1034E000FFF76BFC22E042A0FFF767FC1EE0FFF74E
:1034F00097FE4FA0FFF761FC18E04DA0FFF75DFCC1
:1035000014E04BA0FFF759FC10E049A0FFF755FC71
:103510000CE047A0FFF751FC08E045A0FFF74DFC89
:1035200004E043A0FFF749FC00E000BF00BF10BD6E
:103530004400002046524551BBBBB8BAF1F1FDFD35
:10354000080DF3FAF9F006FC0300FCFF0C0DF5FF83
:10355000314B5F5F31304B5F3130304BA086010023
:10356000400D030020A10700314D5F5F40420F0076
:1035700080841E00404B4C0031304D5F8096980097
:103580004E4F524D4155544F53494E475249534562
:1035900046414C4C4D454153B7BBB1C002F404F019
:1035A000F8FC05FF0A01F1FDF7F5F4FE1300FEFF3C
:1035B000F7FF06F5050AF9FF49444E5F53544D33B2
:1035C0003246313030206261736564206D756C74F1
:1035D00069707572706F73652064657669636520C4
:1035E00056302E302C204B333846454C0D0A000007
:1035F000536F6D652070726F626C656D20776974B2
:103600006820636F6D6D616E642070617273696EA6
:1036100067202863686365636B2073796E746178D3
:1036200020616E642076616C75657329000000006E
:103630004F4B000070B50446FDF71DFAFA494518D6
:1036400004E02846FDF71AFA00B103E0FFF779FB22
:10365000A042F6DB00BF70BD08B5FFF7D5FBC0B2D6
:103660008DF80000FFF7D0FBC0B28DF80100FFF726
:10367000CBFBC0B28DF80200FFF7C6FBC0B28DF8DD
:1036800003009DF8030000069DF8021040EA014087
:103690009DF8011040EA01209DF80010084308BD84
:1036A00010B5002418E00420FFF7C4FFFFF7D4FF93
:1036B000DE49086008460068DD49401805D1DB484E
:1036C0000168DC4840F8241003E00120DA49087062
:1036D00000BF00BF601CC4B2FFF796FB3A2801D1BF
:1036E000032CE0DBFFF790FB10BD10B5002418E0C1
:1036F0000420FFF79FFFFFF7AFFFCC4908600846A3
:103700000068CB49401805D1C8480168C94840F84D
:10371000241003E00120C849087000BF00BF601CEE
:10372000C4B2FFF771FB3A2801D1032CE0DBFFF7AD
:103730006BFB10BD10B5002449E00420FFF77AFFB1
:10374000FFF78AFFB949086008460068BB4940187E
:1037500011D0BB49401808D0BA49401830D1B348FD
:103760000168B44840F824102EE0B0480168B14820
:1037700040F8241028E00420FFF75CFFFFF744FB2B
:1037800020281CD1A9480168AA4840F82410FFF756
:1037900063FFA649086008460068AB49884204D028
:1037A000A2480068A949884206D1A0480168A148FA
:1037B0000C3040F8241002E001209F49087003E01B
:1037C00001209D49087000BF00BF601CC4B2FFF714
:1037D0001BFB3A2801D1032CAFDBFFF715FB10BD13
:1037E00010B50024FDE00420FFF724FFFFF734FFAD
:1037F0008E49086008460068954A811A90427AD03E
:1038000009DC944940180ED09349401830D09349B0
:10381000401871D151E09248081873D0A0F13F7060
:103820000D38F6D1CAE00420FFF704FFFFF7ECFAE9
:1038300020281CD17D4801687E4840F82410FFF7FD
:103840000BFF7A490860084600687F49884204D027
:10385000764800687D49884206D1744801687548F9
:103860000C3040F8241002E0012073490870B5E0E4
:103870000420FFF7DFFEFFF7C7FA20281CD16B48B2
:1038800001686C4840F82410FFF7E6FE67490860BD
:10389000084600687349884204D064480068724949
:1038A000884206D16148016862480C3040F8241013
:1038B00002E001206049087090E00420FFF7BAFEA2
:1038C000FFF7A2FA20281CD158480168594840F84F
:1038D0002410FFF7C1FE554908600846006801281A
:1038E00002D00846006848B95048016851480C3079
:1038F00040F8241005E067E06CE003E001204E4949
:1039000008706BE00420FFF795FEFFF77DFA202892
:1039100053D146480168474840F82410FFF79CFE01
:103920004249086008460068504988423BD03F48F9
:103930000068491C884236D03C480068C91C88424F
:1039400031D03A4800684A4988422CD0374800684C
:10395000491C884227D035480068C91C884222D0BB
:1039600032480068434988421DD030480068491CED
:10397000884218D02D480068C91C884213D02B48B3
:1039800000683D4988420ED028480068491C88429A
:1039900009D026480068C91C884204D02348006822
:1039A0003649884206D12148016822480C3040F847
:1039B000241002E00120204908700FE01B48016834
:1039C0001C4840F8241009E018480168194840F8DC
:1039D000241003E001201849087000BF00BF601CDC
:1039E000C4B2FFF711FA3A2802D1032CFFF6FBAE5E
:1039F000FFF70AFA10BD10B5002450E00420FFF7CD
:103A000019FEFFF729FE09490860084600681C49AD
:103A1000401837D0A0F1B8500C3839D103480168AC
:103A2000044840F8241037E040420F004C000020CA
:103A3000AABEB3C0F40C002048000020BABAAEC041
:103A4000F3F001EF00020EFC5249534546414C4C45
:103A500053544F50BBBBB8BAF1EAF6FF11110FF740
:103A60000D020AFF414E445F4F525F5F314B5F5F73
:103A700031304B5F3130304B314D5F5F31304D5F16
:103A8000B9BAABC0F8480168F84840F8241003E020
:103A90000120F749087000BF00BF601CC4B2FFF7E7
:103AA000B3F93A2801D1032CA8DBFFF7ADF910BD1B
:103AB00070B5002408E10420FFF7BCFDFFF7CCFD42
:103AC000E94908600846EB4A0168881A91427DD0AE
:103AD0000CDCE94808187AD0E849401878D0E84961
:103AE000401810D0E749401873D13BE0E649401830
:103AF00070D0E649401859D0E54940186BD0E549E7
:103B00004018F1D17DE00420FFF794FDFFF77CF928
:103B1000202826D1D4480168D44840F82410FFF763
:103B20009BFDD149086008460068DB4988420ED0F9
:103B3000CD480068D949884209D0CB480068D849A7
:103B4000884204D0C8480068D649884206D1C64891
:103B50000168C6480C3040F8241002E00120C44936
:103B60000870AEE00420FFF765FDFFF74DF920284F
:103B70001BD1BD480168BD4840F82410FFF76CFD1B
:103B8000B94908600846006885B2084600684FF6E3
:103B9000FF7101EA104625B9B4480C3040F82460A2
:103BA00002E00120B249087000BF8AE00420FFF75C
:103BB00041FDFFF729F9202822D1AB480168AB4825
:103BC00040F82410FFF748FDA74905E063E068E0EE
:103BD0006DE072E039E058E008600846006885B2A0
:103BE000084600684FF6FF7101EA104625B99F4864
:103BF0000C3040F8246002E001209D49087000BFAD
:103C00005FE00420FFF716FDFFF7FEF820281BD128
:103C100095480168954840F82410FFF71DFD92492A
:103C200008600846006885B2084600684FF6FF71D4
:103C300001EA104625B98D480C3040F8246002E0B6
:103C400001208B49087000BF3BE00420FFF7F2FC25
:103C5000FFF7DAF8202817D183480168834840F835
:103C60002410FFF7F9FC804908600846006810F14D
:103C7000020F06D8084601687C480C3040F8241032
:103C800002E001207A4908701BE077480168774814
:103C900040F8241015E074480168744840F8241076
:103CA0000FE071480168714840F8241009E06E483F
:103CB00001686E4840F8241003E001206C49087048
:103CC00000BF00BF601CC4B2FFF79EF83A2802D1C3
:103CD000032CFFF6F0AEFFF797F870BD70B5002427
:103CE0008EE10420FFF7A6FCFFF7B6FC5E490860F2
:103CF00008466D4A0168881A91427CD00CDC6B48FA
:103D0000081879D06A49401811D06A4940185CD027
:103D10006949401871D166E1A0F13F700D386DD04E
:103D2000664940182DD066494018F3D130E104208F
:103D3000FFF780FCFFF768F8202821D14A48016886
:103D40004A4840F82410FFF787FC474908600846B6
:103D500000685C49884209D0434800685A49884253
:103D600004D0414800685949884206D13E4801685C
:103D70003E480C3040F8241002E001203C49087015
:103D80003BE10420FFF756FCFFF73EF820281BD14B
:103D900035480168354840F82410FFF75DFC32498A
:103DA00008600846006885B2084600684FF6FF7153
:103DB00001EA104625B92D480C3040F8246002E095
:103DC00001202B49087000BF17E10420FFF732FCE7
:103DD000FFF71AF8202820D123480168234840F82B
:103DE0002410FFF739FC204908600846006885B2B6
:103DF0000846006803E06FE010E0FAE0EDE04FF6FF
:103E0000FF7101EA104625B918480C3040F82460CB
:103E100002E001201649087000BFEEE00420FFF721
:103E200009FCFEF7F1FF20281CD10F4801680F485C
:103E300040F82410FFF710FC0B49086008460068A2
:103E40002349884204D0084800682249884206D1A4
:103E50000548016805480C3040F8241002E00120B4
:103E600003490870C9E000004C000020F40C002059
:103E70004800002053544F50BABAAEC0F6F8FDFFC8
:103E8000FCF202FA130C00F90D020AFFF70BFFFD1A
:103E9000FCF304FF0FFDECFA53494E4553515245D4
:103EA000545249414152425446524551BBBBB8BAA3
:103EB000F1F1FDFD080DF3FAF9F006FC0300FCFF3B
:103EC0000C0DF5FF4E4F524D4155544F53494E473F
:103ED0005249534546414C4C0420FFF7ABFBFEF7DB
:103EE00093FF202853D19D4801689D4840F8241035
:103EF000FFF7B2FB99490860084600689949884273
:103F00003BD096480068491C884236D093480068E8
:103F1000C91C884231D091480068934988422CD00E
:103F20008E480068491C884227D08C480068C91C0C
:103F3000884222D0894800688C4988421DD0874831
:103F40000068491C884218D084480068C91C88420F
:103F500013D082480068864988420ED07F480068A6
:103F6000491C884209D07D480068C91C884204D099
:103F70007A4800687F49884206D1784801687848C5
:103F80000C3040F8241002E001207B49087034E036
:103F90000420FFF74FFBFEF737FF20281CD16F48A6
:103FA00001686F4840F82410FFF756FB6B49086022
:103FB000084600687149884204D068480068704922
:103FC000884206D16548016865480C3040F82410E5
:103FD00002E00120684908700FE06048016860480D
:103FE00040F8241009E05D4801685D4840F824105D
:103FF00003E001206049087000BF00BF601CC4B22C
:10400000FEF702FF3A2802D1032CFFF66AAEFEF754
:10401000FBFE70BD00205249091F08604860002166
:104020004F48001F8160C16000204D49091F086191
:1040300000214B48001F41618161704770B5044603
:10404000FEF77FFE054600204B490870FFF7E2FFB0
:10405000002D70DD0420FFF7EDFAFFF7FDFA3F4970
:10406000086008460068474A811A90424ED00CDC2E
:104070004549401816D0454940182FD044494018AA
:104080001CD04449401851D112E04348081845D08B
:104090004249401832D04249401827D0414940187F
:1040A00044D113E02D4800682D49091F086041E004
:1040B0002A4800682A49091F08603BE02748006831
:1040C0002749091F0860FFF709FE33E0234800680D
:1040D0002349091F0860FFF7EBFC2BE01F4800682D
:1040E0001F49091F0860FFF786FC23E01B48006892
:1040F0001B49091F0860FFF773FB1BE017480068A6
:104100001749091F0860FFF715FB13E01348006803
:104110001349091F0860FFF7E8FA0BE00F48006831
:104120000F49091F0860FFF7BBFA03E0012012499D
:10413000087000BF00BF10480078012806D11A4857
:104140000749091F086000200B4908701C22044918
:10415000091F204600F02AF870BD00004C00002026
:10416000F40C0020314B5F5F31304B5F3130304B0E
:10417000314D5F5F31304D5F480000203038425F85
:104180003136425F4D454153B7BBB1C002F404F034
:10419000F8FC05FF0A01F1FDF7F5F4FE1300FEFF40
:1041A000F7FF06F5050AF9FF4552525210B5203ABD
:1041B000C0F00B80B1E81850203AA0E81850B1E8E0
:1041C0001850A0E81850BFF4F5AF5FEA027C24BF96
:1041D000B1E81850A0E8185044BF18C918C0BDE88D
:1041E00010405FEA827C24BF51F8043B40F8043B56
:1041F00008BF7047D20728BF31F8023B48BF11F80B
:10420000012B28BF20F8023B48BF00F8012B704764
:10421000704770477047754600F028F8AE460500B5
:104220006946534620F00700854618B020B5FCF7D4
:104230001FFDBDE820404FF000064FF000074FF093
:1042400000084FF0000B21F00701AC46ACE8C009B4
:10425000ACE8C009ACE8C009ACE8C0098D467047BD
:104260000446AFF300802046FBF789FF0048704703
:104270000C0D002000487047100D00200149182047
:10428000ABBEFEE726000200704710B5FFF7F2FF55
:104290004FF00001016010BDB8420008000000208E
:1042A00050000000280100080843000850000020CA
:1042B000200F000044010008000000000000000082
:1042C00000000000000000000000000001030000EA
:1042D00000000000000000000000000000000000DE
:1042E000000000000102030401020304060708099C
:1042F00002040608000000010000000000000000A9
:084300000000000000000000B5
:0400000508000C598A
:00000001FF
