:020000040800F2
:10000000B01D0020B9090008D1040008D30400087D
:10001000D7040008DB040008DF040008000000002B
:10002000000000000000000000000000E3040008E1
:10003000E504000800000000E70400088F0800083D
:10004000CF090008CF090008CF090008CF09000830
:10005000CF090008CF090008CF090008CF09000820
:10006000CF090008CF090008CF090008CF09000810
:10007000CF090008CF090008CF090008CF09000800
:10008000CF090008CF090008C7010008CF09000800
:10009000CF090008CF090008CF090008CF090008E0
:1000A000CF090008CF090008CF090008CF090008D0
:1000B000CF090008CF090008CF090008CF090008C0
:1000C000CF090008CF090008CF090008CF090008B0
:1000D000CF090008CF09000897060008CF090008DB
:1000E000CF090008CF090008CF09000800F002F886
:1000F00000F041F80AA090E8000C82448344AAF181
:100100000107DA4501D100F036F8AFF2090EBAE87E
:100110000F0013F0010F18BFFB1A43F0010318473B
:10012000182A0000382A0000103A24BF78C878C185
:10013000FAD8520724BF30C830C144BF04680C60ED
:10014000704700000023002400250026103A28BF35
:1001500078C1FBD8520728BF30C148BF0B60704739
:10016000642902F0BD83002070471FB502F0DDFC5A
:100170001FBD10B510BD02F09EFC1146FFF7F5FF44
:1001800000F0A0FA02F0BCFC03B4FFF7F2FF03BCDE
:1001900002F0C4FC00207047704770477047BE48AB
:1001A00000787047BD480088704701464FF0FF3027
:1001B000BB4A92688A4202D9BA4A1180002070472D
:1001C000B9480078704710B5B848007828BBB848DF
:1001D000006800F053FB00B3B64800F02DFD044664
:1001E000B54801680068401CB34A1060B348006815
:1001F00020F8114010460068B149096888420BD1C7
:100200000020114608600120A849087000F033FB67
:10021000AC490844A649086000BF4FF40871A548DE
:1002200000F0FDFD122000F0E0FA10BD00B585B031
:10023000684601F0A0F8DDE90101884202D1029888
:1002400005B000BD02984000FAE72DE9F04188B002
:1002500007460121042001F008F99B4801F060F9EC
:1002600005A801F0C3FCFFF7E1FF3968B0FBF1F42A
:1002700014B908B0BDE8F081B4F5803F03DA002579
:10028000601E86B23AE04FF0FF3294464FF6FF7898
:1002900094FBF8F81FFA88F019E000F101081FFA42
:1002A00088F094FBF0F81FFA88F101FB10426245D8
:1002B00001D294460346A0F57F48B8F1FF0806D165
:1002C000B4FBF3F81FFA88F198B2002201E0002A8B
:1002D000E3D100BF884208DDA1F101081FFA88F5CB
:1002E000A0F101081FFA88F607E0A0F101081FFA43
:1002F00088F5A1F101081FFA88F600BFADF8145087
:10030000ADF8186005A9704801F0DEF901216E48CA
:1003100001F094FD01A801F072FC6020ADF804002A
:100320000120ADF80600ADF80A000220ADF80C007F
:1003300001A9654801F0D7FA0121634801F07BFC6F
:1003400000BF96E708B501214FF4047001F080F872
:100350002020ADF8000000208DF8030069465B48BE
:1003600000F0C2FD08BD30B58BB005465349686842
:1003700008605349A868086001214FF4047001F037
:1003800067F801A800F0F7FF05982968B0FBF1F4C1
:10039000484800F02BFB06A800F072FB4FF4202029
:1003A000089001208DF8280006A9424800F045FB7E
:1003B0000121404800F035FC01213E4800F069FB76
:1003C000EF2C06DD072301220F213A4800F0CDFB78
:1003D0003BE0472C06DD062301220F21354800F0C3
:1003E000C4FB32E0372C06DD052301220F21314802
:1003F00000F0BBFB29E0292C06DD042301220F219C
:100400002C4800F0B2FB20E01C2C06DD0323012267
:100410000F21284800F0A9FB17E00D2C06DD022370
:1004200001220F21234800F0A0FB0EE0072C06DD7F
:1004300001231A460F211F4800F097FB05E0002317
:1004400001220F211B4800F090FB1A4800F043FBEB
:1004500000BF184800F044FB0028FAD1154800F00E
:1004600049FB00BF134800F04AFB0028FAD10121E4
:10047000104800F00EFB01224FF408710D4800F007
:100480001EFB2846FFF7E1FEFFF75CFF022112206A
:1004900000F078F90BB030BD02000020040000200D
:1004A0004400002006000020010000201800002069
:1004B00008000020002401400C0000201000002053
:1004C0001400002020A10700000800400010014097
:1004D000704700BFFEE700BFFEE700BFFEE700BFBA
:1004E000FEE770477047704770B505467248406830
:1004F000006871494968C98845546F484068C08898
:10050000401C84B26C4840688088401EA04200DADB
:100510000024694840680089A04204D1032066494C
:100520004968887206E064484068C48001206249D6
:100530004968887260484068807A032809D002F0D0
:10054000C2F840F2EE21884203DC02205A49496891
:10055000887259484068807A70BD08B5012104202E
:1005600000F076FF0420ADF8000018208DF803009D
:1005700002208DF802006946504800F0B5FC0820C2
:10058000ADF8000004208DF8030069464B4800F0E8
:10059000ABFC08BD1FB5044614222146464802F0B4
:1005A000DBF9684601F0C2FE206800900121480492
:1005B00000F05BFF424801F00DFE6946404801F043
:1005C0004CFE012240F225513D4801F0DEFE0221A1
:1005D000262000F0D7F8FFF7C0FF0121384801F0CE
:1005E000C8FE1FBD34488068C088334989680989BE
:1005F00088420CD132480C30008820F0800030490D
:100600000C31088000202C498968887270472C487A
:10061000008810F0800F38D027488068006826498D
:1006200089680989405C2649091D0880224880683C
:100630000089401C2049896808811F48806800891A
:1006400040F6B731884203DD00201B4989680881E4
:1006500019488068008918498968C98888420CD17E
:1006600017480C30008820F0800015490C310880B4
:10067000002011498968887207E011480C30008811
:1006800040F080000E490C31088000BFBEE700B585
:10069000FFF7A8FF00BD10B50948048814F0200F2B
:1006A00004D0011D0988C8B2FFF71EFF14F0800FA7
:1006B00001D0FFF797FF10BD740300200008014030
:1006C000004400401CB500F05DF900F0D4F8234967
:1006D000086000F0D0F8224908603EE01F4800683A
:1006E00000F0CCF828B11D4800681E4908441B4999
:1006F00008601B48006800F0C1F838B1184800686D
:1007000000F5FA7016490860FFF7C1FF1648007837
:1007100018B300200090019014480068B0F5C87F1D
:1007200011D213481149096830F8112011A1684607
:1007300002F08CF8684602F01BF80C480068401C78
:100740000A49086008E00020074908700BA002F081
:100750000FF800200549086000BFBFE72000002017
:100760002400002080841E00180000201C000020AF
:100770005400002025643B0D0A000000444F4E4504
:100780000000000030B50A460346C51700EBD565EA
:100790006911202303FB1103DCB213071D0E1D4B4F
:1007A0001D544FF0E02303EB8103D3F80031012502
:1007B000A5402B434FF0E02505EB8105C5F800313E
:1007C00030BD10B50246C41700EBD464611120227D
:1007D00002FB1102D3B2104A52F8214001229A4082
:1007E00022430D4C44F8212010BD10B50246C41719
:1007F00000EBD4646111202202FB1102D3B2074A3C
:1008000052F8214001229A402243044C44F821200E
:1008100010BD000000E400E080E100E080E200E0C4
:1008200000B585B0684600F0A6FD4FF0E0200069F5
:1008300040F006004FF0E021086146F2A81101984F
:10084000B0FBF1F0401E4FF0E0214861084600691E
:1008500040F00100086105B000BD00BF0F49096804
:100860008842FBD8704700B502460C4909688818D1
:10087000FFF7F3FF00BD09480068704701460748CD
:100880000068884201D9012070470020FCE7034836
:1008900000682830014908607047000028000020E7
:1008A00010B500F06DFCFFF7BBFF4FF4803000F097
:1008B00087FC00F0C4FC012801D000BFFEE74FF424
:1008C0008021881000F0E0FC012000F0E9FC4FF4EA
:1008D000FA70FFF7C8FF392000F095FC012801D01D
:1008E00000BFFEE7022000F0DEFC4FF4FA70FFF7D5
:1008F000BAFF00F0E1FC0221B1EBA00F01D000BF74
:10090000FEE7002000F0DDFC002000F0E3FC00200A
:1009100000F0E9FC10BD000008B50121142000F032
:1009200097FD4FF48070ADF8000010208DF80300A3
:1009300002208DF8020069461C4800F0D5FA4FF4F9
:100940000070ADF8000010208DF8030002208DF833
:1009500002006946154800F0C7FA0120ADF8000012
:1009600028208DF8030002208DF802006946104807
:1009700000F0BAFA08BD08B501200090684601F001
:1009800030FE08BD1FB5FFF78BFFFFF7C5FFFFF770
:1009900047FFFFF7F0FFC8200090064801904FF492
:1009A000C87002906846FFF7DEFC1FBD00100140D2
:1009B000000801405400002008480047FEE7FEE719
:1009C000FEE7FEE7FEE7FEE7FEE7FEE7FEE7FEE7FF
:1009D00003480449024A044B70470000ED00000838
:1009E000B01B0020B01D0020B01B002010B5044635
:1009F000F948844208D10121401500F043FD00214F
:100A0000601500F03FFD17E0F448844208D1012151
:100A1000001500F037FD0021201500F033FD0BE03C
:100A2000EF48844208D10121C80300F02BFD0021CA
:100A30004FF4004000F026FD10BD30B50246002006
:100A400000235068E74C20400D790C6844EA0524E7
:100A5000204350609068E44C2040D1E902542C437C
:100A60004D7944EA450420439060D06A20F4700038
:100A70000C7C641EE4B2234340EA0350D06230BDD4
:100A800000210160017141718160C1600121017427
:100A9000704721B1826842F00102826003E08268FF
:100AA00022F001028260704721B1826842F48072B4
:100AB000826003E0826822F480728260704710B521
:100AC0000023CBB21AB144681C43446002E044687E
:100AD0009C43446010BD816841F00801816070470B
:100AE000014600208A6812F0080F01D0012000E0C2
:100AF00000207047816841F0040181607047014621
:100B000000208A6812F0040F01D0012000E00020CC
:100B1000704721B1826842F4A002826003E08268DB
:100B200022F4A00282607047014600208A6812F415
:100B3000800F01D0012000E00020704710B50A4668
:100B400000210023416821F46041531E41EA4331F2
:100B5000416010BD21B1426842F40062426003E08E
:100B6000426822F4006242607047F0B504460D46C8
:100B700000200021092D11DDE068A5F10A0606EB31
:100B80004607072606FA07F18843A5F10A0606EB91
:100B9000460603FA06F10843E0600CE0206905EB25
:100BA0004507072606FA07F1884305EB450603FAD1
:100BB00006F108432061072A0FDA606B561E06EB28
:100BC00086071F2606FA07F18843561E06EB86069F
:100BD00005FA06F10843606322E00D2A0FDA206B64
:100BE000D61F06EB86071F2606FA07F18843D61F95
:100BF00006EB860605FA06F10843206310E0E06A7A
:100C0000A2F10D0606EB86071F2606FA07F18843B8
:100C1000A2F10D0606EB860605FA06F10843E0622E
:100C2000F0BD21B1826842F48012826003E08268E4
:100C300022F48012826070470146C86C80B270470F
:100C400065484C300068704721B1426842F48062C8
:100C5000426003E0426822F480624260704721B142
:100C6000426842F48052426003E0426822F48052BB
:100C7000426070470A460021816821F4E041114337
:100C80008160704721B1826842F40042826003E0D3
:100C9000826822F400428260704721B1826842F487
:100CA0000212826003E0826822F4021282607047BE
:100CB000014600208A6812F4001F01D0012000E0E4
:100CC00000207047F0B5044615460020002200269B
:100CD000092911DDE068A1F10A0707EB470C072796
:100CE00007FA0CF29043A1F10A0707EB470703FA52
:100CF00007F21043E0600CE0206901EB410C07278C
:100D000007FA0CF2904301EB410703FA07F2104394
:100D10002061A06BC0F30156EF1C06F1010CA7EB9C
:100D20000C0707EB870C1F2707FA0CF29043EF1C08
:100D300006F1010CA7EB0C0707EB870701FA07F296
:100D40001043A063F0BD10B50A4600210023816B5B
:100D500021F44011531E41EA0351816310BD10B5C7
:100D6000002303460B441A6010BD024600231346BD
:100D700001F128000344186880B270470A46002138
:100D800041681A4B194011434160704741628262C9
:100D900070470A460021416821F01F01114341605C
:100DA000704740B10C490831096841F400010A4A12
:100DB0000832116007E008490831096821F4000190
:100DC000054A0832116070470246002013680B4242
:100DD0000ED001200DE00000002401400028014059
:100DE000003C0140FFFEF0FFFDF7F1FFFFFD3FFF7C
:100DF00000207047CA430260704770B50246002069
:100E0000002300240B125568CEB205EA06041568CB
:100E10001D4202D00CB1012000E0002070BD002274
:100E20000A12D3430360704710B50446CA4884428F
:100E300008D10121042000F025FB0021042000F04E
:100E400021FB46E0C548844208D10121082000F07A
:100E500019FB0021082000F015FB3AE0C04884424D
:100E600008D10121102000F00DFB0021102000F01E
:100E700009FB2EE0BB48844208D10121202000F06C
:100E800001FB0021202000F0FDFA22E0B648844258
:100E900008D10121402000F0F5FA0021402000F0A7
:100EA000F1FA16E0B148844208D10121802000F017
:100EB000E9FA0021802000F0E5FA0AE0AC4884421B
:100EC00007D10121801500F0DDFA0021A01500F006
:100ED000D9FA10BD10B50121084600F0D3FA00215F
:100EE000012000F0CFFA10BD2DE9F04102460025A7
:100EF0000026002000230024002791F803C00CF0F6
:100F00000F0591F803C01CF0100F03D091F802C038
:100F10004CEA0505B1F800C01CF0FF0F31D0146891
:100F200000202BE04FF0010C0CFA00F3B1F800C0E8
:100F30000CEA03069E4220D183004FF00F0C0CFAFE
:100F400003F7BC4305FA03FC4CEA040491F803C020
:100F5000BCF1280F06D14FF0010C0CFA00FCC2F8CE
:100F600014C00AE091F803C0BCF1480F05D14FF05E
:100F7000010C0CFA00FCC2F810C0401C0828D1D3A8
:100F80001460B1F800C0BCF1FF0F34DD54680020DC
:100F90002EE000F1080C4FF0010808FA0CF3B1F84C
:100FA00000C00CEA03069E4221D183004FF00F0CD3
:100FB0000CFA03F7BC4305FA03FC4CEA040491F86D
:100FC00003C0BCF1280F05D100F1080C08FA0CF899
:100FD000C2F8148091F803C0BCF1480F07D100F1AA
:100FE000080C4FF0010808FA0CF8C2F81080401CF9
:100FF0000828CED35460BDE8F0814FF6FF71018020
:10100000022181700421C17070470246002093685C
:101010000B4201D0012000E00020704701468868A3
:1010200080B2704702460020D3680B4201D00120F5
:1010300000E0002070470146C86880B27047016137
:101040007047416170470AB1016100E0416170473A
:10105000C16070474FF480320A43826181618261CE
:1010600082698269704702460020424B18684FF639
:101070008073184040EA021008433E4B18607047E6
:101080003D49C8617047F0B50A460023002400219D
:10109000002500F00046B6F1004F02D1354EF1694F
:1010A00001E0344E7168C0F3034583B200F440168A
:1010B000B6F5401F08D121F070612E4E766826F0FB
:1010C00070662C4F7E6012E000F48016B6F5801F2B
:1010D00006D1032606FA05F4A14341F0706106E04B
:1010E000460D360103FA06F6B14341F0706122B1B4
:1010F000460D360103FA06F6314300F00046B6F11C
:10110000004F02D11B4EF16101E01A4E7160F0BD3B
:1011100030B500228B071C0F0F2303FA04F2154B86
:1011200008338C1053F824309343124C08348D103C
:1011300044F8253023468C1053F824308C07240FB4
:1011400000FA04F423430B4C08348D1044F8253086
:1011500030BD0A490860704700080140000C01409A
:10116000001001400014014000180140001C014023
:10117000002001400000014000002042DC0020422D
:10118000DC48006840F00100DA4908600846406821
:10119000D9490840D749486008460068D7490840FF
:1011A000D44908600846006820F48020086008469A
:1011B000406820F4FE0048604FF41F0088607047CC
:1011C000CC49096821F48031CA4A11601146096886
:1011D00021F480211160B0F5803F03D0B0F5802F5D
:1011E0000ED106E0C349096841F48031C14A11605B
:1011F00007E0C049096841F4A021BE4A116000E03F
:1012000000BF00BF704710B5014600220023002038
:101210004A11012A02D1B74C236806E0022A02D102
:10122000B44C236A01E0B34C636A01F01F0201244D
:1012300094401C4201D0012000E0002010BD70B598
:1012400000240025002600BF3120FFF7DCFF064602
:10125000641CB4F5A06F01D0002EF5D03120FFF74B
:10126000D2FF08B1012500E00025284670BD0146E7
:101270000020A04A106820F0F80040EAC100106089
:1012800070479F490860704702460020994B586894
:1012900020F47C1042EA01031843964B58607047D3
:1012A00097490866704701460020924A506820F02E
:1012B00003000843506070478E48406800F00C00FF
:1012C0007047014600208B4A506820F0F000084328
:1012D0005060704701460020864A506820F4E06064
:1012E00008435060704701460020824A506820F44D
:1012F000605040EAC1005060704729B17D4A527A7F
:1013000002437C4B5A7206E07A4A527AC343DBB2FC
:101310001A40784B5A7270477A4908607047014604
:101320000020744A506820F44040084350607047E1
:101330000021754A11706F4A82F82010012802D0EE
:10134000042808D103E001216F4A117004E005214F
:101350006D4A117000E000BF00BF70476B49086024
:1013600070476449096A0143624A116270476749DC
:1013700044390860704730B5002100220024002362
:101380005C4D6D6805F00C0121B1042905D00829D8
:1013900023D105E05E4D056022E05D4D05601FE054
:1013A000544D6D6805F47012524D6D6805F480342B
:1013B000022505EB92421CB9564D554305600BE0E2
:1013C0004C4D6D6815F4003F03D0524D55430560F8
:1013D00002E04F4D5543056002E04D4D056000BFF2
:1013E00000BF444D6D6805F0F00109094A4D6B5C82
:1013F0000568DD4045603F4D6D6805F4E061090A10
:10140000454D6B5C4568DD4085603A4D6D6805F47F
:101410006051C90A404D6B5C4568DD40C560354D83
:101420006D6805F44041890B3C4D6B5CC568B5FBAC
:10143000F3F5056130BD29B12E4A526902432D4BA7
:101440005A6104E02B4A526982432A4B5A61704721
:1014500029B1284A92690243264B9A6104E0254A41
:1014600092698243234B9A61704729B1214AD2691C
:101470000243204BDA6104E01E4AD26982431D4BCD
:10148000DA61704729B11B4AD2680243194BDA600E
:1014900004E0184AD2688243164BDA60704729B1DB
:1014A000144A12690243134B1A6104E0114A12698B
:1014B0008243104B1A6170471449403908607047E5
:1014C0000F49C86470470B49C87170470948406AA2
:1014D00040F0807007494862704701460020054A85
:1014E00092680A4201D0012000E0002070470149C3
:1014F00088727047001002400000FFF8FFFFF6FE00
:1015000000004242D8004242201002408004424281
:1015100000127A0000093D002C0000203C00002051
:1015200010B50446FE48844208D10121C014FFF7DB
:10153000A9FF0021E014FFF7A5FFC4E0B4F1804F3C
:1015400008D101210846FFF7AAFF00210120FFF77B
:10155000A6FFB8E0F348844208D101210220FFF73A
:101560009EFF00210220FFF79AFFACE0EE48844284
:1015700008D101210420FFF792FF00210420FFF78A
:101580008EFFA0E0E948844208D101210820FFF73E
:1015900086FF00210820FFF782FF94E0E4488442A0
:1015A00008D101211020FFF77AFF00211020FFF75A
:1015B00076FF88E0DF48844208D101212020FFF730
:1015C0006EFF00212020FFF76AFF7CE0DA488442AA
:1015D00008D101214014FFF755FF00216014FFF7E7
:1015E00051FF70E0D548844209D10121C804FFF7BA
:1015F00049FF00214FF40020FFF744FF63E0D0488B
:10160000844209D101210805FFF73CFF00214FF476
:101610008010FFF737FF56E0CA48844209D1012104
:101620004805FFF72FFF00214FF40010FFF72AFFB6
:1016300049E0C548844208D101214020FFF72FFF2F
:1016400000214020FFF72BFF3DE0C048844208D135
:1016500001218020FFF723FF00218020FFF71FFFDB
:1016600031E0BB48844208D101218015FFF717FF04
:101670000021A015FFF713FF25E0B648844209D1E9
:1016800001210804FFF7FEFE00214FF48030FFF730
:10169000F9FE18E0B048844209D101214804FFF75F
:1016A000F1FE00214FF40030FFF7ECFE0BE0AB48F9
:1016B000844208D101218804FFF7E4FE00214FF4A1
:1016C0008020FFF7DFFE10BD00220288944B984275
:1016D0000ED0994B98420BD0B0F1804F08D0914B6F
:1016E000984205D0904B984202D0904B984204D13A
:1016F0004FF68F731A404B881A438D4B984207D090
:101700008C4B984204D04FF6FF431A40CB881A43C3
:1017100002808B8883850B880385814B98420BD090
:10172000854B984208D08B4B984205D08A4B984203
:1017300002D08A4B984201D10B7A0386012383821F
:10174000704770B5002400220023058C4FF6FE760A
:1017500035400584028C8388048B4FF68F752C40AE
:10176000B51E2C400D882C43751E2A400D892A4336
:101770004D882A436A4DA8420BD06F4DA84208D02D
:10178000744DA84205D0744DA84202D0734DA842B2
:1017900013D14FF6F7752A404D892A434FF6FB7552
:1017A0002A408D882A434FF6FF652B404FF6FF55A0
:1017B0002B408D892B43CD892B4383800483CD8897
:1017C0008586028470BD70B5002400220023058C3C
:1017D0004FF6EF7635400584028C8388048B48F6FB
:1017E000FF752C404FF6FF452C400D882D0644EA2E
:1017F00015444FF6DF752A400D892D0542EA154242
:101800004D882D0542EA1542454DA84202D04A4D69
:10181000A8421BD14FF67F752A404D892D0542EA1B
:1018200015424FF6BF752A408D882D0542EA1542B4
:101830004FF6FF352B404FF2FF752B408D89AD04DD
:1018400043EA1543CD89AD0443EA154383800483FD
:10185000CD880587028470BD70B500240022002366
:10186000058C4FF6FF6635400584028C8388848B97
:101870004FF68F752C404FF6FC752C400D882C438D
:101880004FF6FF552A400D892D0642EA15424D8834
:101890002D0642EA1542224DA84202D0264DA8420A
:1018A0001BD14FF2FF752A404D892D0642EA1542A1
:1018B0004FF6FF352A408D882D0642EA15424EF636
:1018C000FF752B404DF6FF752B408D892D0543EAA2
:1018D0001543CD892D0543EA154383808483CD8844
:1018E0008587028470BD70B5002200230024058C1A
:1018F0004EF6FF7635400584038C8488828B48F64B
:10190000FF752A404FF6FF452A400D882D0642EA12
:1019100015424DF6FF752B400D892D0720E0000084
:10192000002C01400004004000080040000C004072
:10193000001000400014004000340140004C014001
:10194000005001400054014000180040001C0040BD
:101950000020004000400140004401400048014098
:1019600043EA15434D882D0743EA1543FE4DA8422F
:1019700002D0FE4DA84206D14BF6FF752C408D8952
:10198000AD0544EA154484808283CD88A0F8405098
:10199000038470BD828B4FF2FF331A408283828BA7
:1019A0000B0642EA134282837047F0B50C46154697
:1019B000002100220026078C4EF6FF7C07EA0C0768
:1019C0000784818B028C27073E0C40F6FF47394085
:1019D0002F0641EA17411F0741EA17414DF6FF77ED
:1019E0003A4046F480573A4381830284F0BD828BAB
:1019F0004FF6F3731A408283828B0A4382837047C7
:101A0000F0B50C461546002100220026078C4FF643
:101A1000FF6C07EA0C070784818B028C27063E0CBB
:101A20004FF60C7739401F0545EA174739434FF603
:101A3000FF573A4046F480773A4381830284F0BDF1
:101A4000028B4FF2FF331A400283028B0B0642EAED
:101A5000134202837047F0B50C4615460021002260
:101A60000026078C4FF6EF7C07EA0C070784018BF2
:101A7000028C27053E0C40F6FF4739401F0741EA1C
:101A800017412F0641EA17414FF6DF773A4046F0FB
:101A900010073A4301830284F0BD028B4FF6F373C3
:101AA0001A400283028B0A4302837047F0B50C464A
:101AB000154600210022068C4FF6FE773E40068434
:101AC000018B028C4FF60C7631401E0545EA164616
:101AD00031437E1E324044F00106324301830284CA
:101AE000F0BD70B505460C46208850B92389A28800
:101AF00061882846FFF7DAFFE1882846FFF7CDFF27
:101B000025E0208804280AD12389A28861882846F4
:101B1000FFF7A1FFE1882846FFF792FF17E0208832
:101B200008280AD12389A28861882846FFF768FF20
:101B3000E1882846FFF75BFF09E02389A2886188D6
:101B40002846FFF732FFE1882846FFF723FF70BDE4
:101B50002DE9F04105460C4600260127608808B9AA
:101B6000022600E00026A088012801D1022700E01B
:101B700001272088A0B92389A28861882846FFF719
:101B800095FFE1882846FFF788FF23893A463146CA
:101B90002846FFF760FFE1882846FFF751FF13E072
:101BA0002389A28861882846FFF755FFE1882846E7
:101BB000FFF746FF23893A4631462846FFF776FF6E
:101BC000E1882846FFF769FFBDE8F0810A884B8865
:101BD0001A438B881A43CB881A430B891A434B89C3
:101BE0001A438B891A43A0F8442070474FF6FF71BF
:101BF000818000210180C1804180017270470021F5
:101C0000018041808180C180018141818181C181C8
:101C10007047002101804180012181800021C18025
:101C2000018170470021018041808180C180018154
:101C300041818181704721B1028842F00102028016
:101C400004E002884FF6FE731A400280704731B1FB
:101C5000B0F8442042F40042A0F8442005E0B0F877
:101C60004420C2F30E02A0F84420704710B51AB108
:101C700083890B43838104E08389CC43A4B223404E
:101C8000838110BD8182704741EA0203A0F8483089
:101C9000704710B51AB183890B43838104E08389AF
:101CA000CC43A4B22340838110BD01894FF6F87262
:101CB0001140018170470A46002101894FF68F7358
:101CC000194011430181704730B504460D4629463D
:101CD0002046FFF7F0FF208940F00700208130BD4B
:101CE0002DE9F04104460D4616461F46602D06D1EB
:101CF0003B46012231462046FFF7ADFE05E03B465C
:101D0000012231462046FFF7D1FE29462046FFF743
:101D1000D2FF208940F007002081BDE8F08130B576
:101D20000C4600210189C9B21D0642EA154525432A
:101D30002943018130BD2DE9F04105460E46174685
:101D40009846002443463A4631462846FFF7E7FFC7
:101D50002C894FF6F870044044F007044FF68F705A
:101D6000044044F0700403E0002C014000340140C2
:101D70002C81BDE8F081F0B504460D4616461F469D
:101D80003B46324629462046FFF7C9FF208940F4EA
:101D900080402081F0BD0185828270470A46002183
:101DA00001884FF68F731940114301807047F0B5D9
:101DB0000C4615461E460021002200230189028B95
:101DC000038C4FF6F877394021434FF6FC473A40F1
:101DD00040F201173A434FF6DD773B40370545EABD
:101DE00017473B43018102830384F0BD0A4600216B
:101DF000018B4FF68F7319401143018370470A46D8
:101E00000021018B48F6FF731940130641EA134184
:101E1000018370470A460021818B4FF68F7319406A
:101E20001143818370470A460021818B48F6FF7376
:101E30001940130641EA13418183704721B102889A
:101E400042F08002028004E002884FF67F731A405D
:101E50000280704721B1828842F00402828004E04F
:101E600082884FF6FB731A408280704721B18288C6
:101E700042F00802828004E082884FF6F7731A402D
:101E80008280704721B1828842F00102828004E0A2
:101E900082884FF6FE731A40828070470A460021FE
:101EA000018B4FF6F77319401143018370470A46BF
:101EB0000021018B4FF2FF731940130641EA1341D1
:101EC000018370470A460021818B4FF6F773194052
:101ED0001143818370470A460021818B4FF2FF73C3
:101EE0001940130641EA1341818370470A460021D5
:101EF000018B4FF6FB7319401143018370470A466B
:101F00000021018B4FF6FF331940130641EA1341BC
:101F1000018370470A460021818B4FF6FB731940FD
:101F20001143818370470A460021818B4FF6FF33AE
:101F30001940130641EA1341818370470A46002184
:101F4000018B4FF67F7319401143018370470A4696
:101F50000021018BC1F30E01130641EA13410183F5
:101F600070470A460021818B4FF67F731940114359
:101F7000818370470A460021818BC1F30E0113064D
:101F800041EA1341818370470A460021018C4FF6D4
:101F9000FD7319401143018470470A460021018CEA
:101FA0004FF6F77319401143018470470A46002128
:101FB000018C4FF6DF731940130541EA1341018488
:101FC00070470A460021018C4FF67F7319401305B4
:101FD00041EA1341018470470A460021018C4FF603
:101FE000FF531940130641EA1341018470470A4622
:101FF0000021018C4FF2FF731940130641EA13418F
:10200000018470470A460021018C4DF6FF73194088
:10201000130741EA13410184704730B500230124BE
:102020008C40A3B2048CDD43ADB22C400484048CFC
:1020300002FA01F5ADB22C43048430BD30B5002363
:1020400004248C40A3B2048CDD43ADB22C40048444
:10205000048C02FA01F5ADB22C43048430BD70B596
:102060000346002000241846183001258D40ACB2EC
:102070001D8CE643B6B235401D8409B1082909D14B
:1020800000EB6100056825F07005056005681543E3
:1020900005600CE00D1FADB200EB6500056825F48E
:1020A000E04505600568160645EA1645056070BD01
:1020B00021B1028842F00202028004E002884FF659
:1020C000FD731A400280704721B1028842F0040279
:1020D000028004E002884FF6FB731A4002807047CA
:1020E00021B1828842F08002828004E082884FF62B
:1020F0007F731A408280704702884FF6F7731A4048
:10210000028002880A430280704782884FF68F73EC
:102110001A40828082880A438280704702894FF683
:10212000F8731A40028102890A43028170470289CA
:102130004FF67F731A40028102890A430281704779
:102140008184704781857047818670470187704719
:1021500081877047A0F84010704702884FF6FF4310
:102160001A40028002880A43028070470146888E26
:1021700070470146088F70470146888F70470146B7
:10218000B1F8400070470146888C70470146088DC1
:10219000704702460020138A0B4201D0012000E064
:1021A00000207047CA430282704730B502460020C3
:1021B00000230024158A05EA0103958905EA010434
:1021C00013B10CB1012000E0002030BDCA430282EF
:1021D0007047000010B50446FC48844209D1012133
:1021E0008803FFF74FF900214FF48040FFF74AF9C9
:1021F00032E0F748844209D101214804FFF74FF942
:1022000000214FF40030FFF74AF925E0F1488442FD
:1022100009D101218804FFF742F900214FF4802001
:10222000FFF73DF918E0EC48844209D10121C804C8
:10223000FFF735F900214FF40020FFF730F90BE0EC
:10224000E648844208D101210805FFF728F900215A
:102250004FF48010FFF723F910BD2DE9F04786B049
:1022600005460E460024A24600BFA1460027B089BD
:1022700000B100BF2F462C8A4CF6FF700440F08856
:1022800004432C82AC894EF6F3100440B0883189A7
:102290000843718908430443AC81AC8A4FF6FF4080
:1022A0000440B0890443AC8201A8FFF764F8C74832
:1022B000874202D1DDF810A001E0DDF80CA0A8896A
:1022C00010F4004F08D00AEBCA0000EB0A10316886
:1022D0004900B0FBF1F807E00AEBCA0000EB0A1076
:1022E00031688900B0FBF1F86420B8FBF0F004011C
:1022F0002009642101FB1089A88910F4004F08D03F
:10230000322000EBC900B0FBF1F000F007000443FD
:1023100008E0322000EB09106421B0FBF1F000F07E
:102320000F0004432C8106B0BDE8F0874FF416512E
:10233000016000218180C18001810C214181002147
:102340008181704710B502460020108A4FF2FF03CA
:1023500018400B884C8823438C882343CC88234324
:102360001843108210BD0021018041808180C1800E
:10237000704721B1828942F40052828104E082894F
:102380004DF6FF731A4082817047F0B50346002472
:10239000002600250020A1F510676A3F00D100BF8C
:1023A0001846C1F3421401F01F06012707FA06F58B
:1023B000012C01D10C3004E0022C01D1103000E0DE
:1023C00014301AB107682F43076002E00768AF4373
:1023D0000760F0BD10B51AB1838A0B43838204E015
:1023E000838ACC43A4B22340838210BD028A4FF675
:1023F000F0731A400282028A0A430282704782897D
:102400004FF2FF731A40828182890A4382817047AA
:1024100021B1828942F00202828104E082894FF672
:10242000FD731A4082817047028A4FF6DF731A40AB
:102430000282028A0A430282704721B1028A42F470
:102440008042028204E0028A4BF6FF731A40028245
:102450007047C1F308028280704701468888C0F344
:1024600008007047818941F0010181817047028B2A
:10247000D2B20283028B42EA012202837047028BAE
:1024800002F47F420283028B0A430283704721B128
:10249000828A42F02002828204E0828A4FF6DF7351
:1024A0001A408282704721B1828A42F010028282F1
:1024B00004E0828A4FF6EF731A408282704721B19E
:1024C000828A42F00802828204E0828A4FF6F77321
:1024D0001A408282704721B1828942F4004282818F
:1024E00003E08289C2F30E028281704721B1828AA1
:1024F00042F40062828204E0828A4FF2FF731A4043
:1025000082827047828A4FF6FB731A408282828AE7
:102510000A438282704721B1828A42F0020282829B
:1025200004E0828A4FF6FD731A40828270470246A9
:102530000020B1F5007F00D100BF13880B4201D00D
:10254000012000E00020704701F40072B2F5007F26
:1025500000D100BFCA430280704770B50246002414
:10256000002300250020A1F510666A3E00D100BFBF
:10257000C1F3421501F01F03012606FA03F3012DF2
:1025800002D19689334006E0022D02D1168A3340EB
:1025900001E0968A33400C12012606FA04F41688EC
:1025A000344013B10CB1012000E0002070BD10B523
:1025B00000220023A1F510646A3C00D100BF0A127A
:1025C00001249440A3B2DC43048010BD00380140D4
:1025D0000044004000480040004C004000500040D3
:1025E000704710B5044690482178017040F6B83025
:1025F0008E4988808E4808600020C88008818872D3
:1026000040F6B8308B4988808B4808600020C8802D
:102610000881887284480078012805D0022808D1F2
:1026200086488749086009E04FF4E1308449086032
:1026300004E04FF416508249086000BF00BF7D4897
:102640007F49486079488860AFF26B00C8600846EF
:10265000FDF7A0FF10BD7748807A7047734909895C
:10266000724AD288914206DD704909896F4AD28840
:10267000891A88B208E06D4989886C4AD288891A1B
:102680006A4A1289114488B2704700B56748C08809
:1026900066490989884203D100206449887202E0B2
:1026A0000120624988726148807A032808D0FFF7C8
:1026B000D5FF40F2EE21884202DC02205B4988729D
:1026C0005A48807A00BD5B4909895A4AD2889142AA
:1026D00006DD58490989574AD288891A88B208E024
:1026E00054498988534AD288891A524A1289114416
:1026F00088B2704700B5FFF7E6FF40F6B831081A18
:1027000080B200BD4F480078704710B50446474876
:10271000C08847490C544548C088401C83B2434890
:102720008088401E984200DA002340480089984281
:1027300003D103203D49887204E03C48C380012056
:102740003A4988723948807A032808D0FFF786FF13
:1027500040F2EE21884202DC02203449887233487C
:10276000807A10BD10B504462046FFF7CEFF10BD9D
:1027700070B5044604E02078FFF7C7FF0546641CE7
:1027800020780028F7D1FDF782FF284670BD70B58C
:1027900004460D46FFF762FFA8420DDB002605E068
:1027A0002078FFF7B2FF641C701C86B2AE42F7DBE4
:1027B000FDF76DFF002070BD4FF0FF30FBE71D49B6
:1027C000C9881C4A1289914202D14FF0FF3008E0BB
:1027D00018490989184A505C16490989491C154A43
:1027E000118114490989134A9288914202DB002120
:1027F000104A1181704770B504460E46002509E065
:10280000FFF7DDFF0346B3F1FF3F03D02370641CE5
:10281000681C85B2B3F1FF3F01D0B542F0DB28B2AE
:1028200070BD094870470000400000208803002068
:10283000DC03002094030020940F002001C201005B
:10284000C803002041000020A00300200FB41CB5E5
:10285000074B06AA7B4469460090059800F013F9DF
:102860000020694600F022F91CBC5DF814FB000052
:10287000550200002DE9F04104460E4600200AE012
:10288000E1682046884738B3252806D0D4E90121DD
:102890009047206A401C2062F2E7E168204600274A
:1028A0008847050018D0A5F14100192802D8203525
:1028B0004FF400673246294620462760FDF750FC5A
:1028C00040B1012804D0F61D26F007060836D7E7E8
:1028D000361DD5E72846D9E7206ABDE8F08100001B
:1028E0002DE9F0410746002510687529394616A4E0
:1028F00011D0AFF30080002803DAC0F1000013A468
:1029000007E039688A0701D511A402E0490704D518
:1029100010A4012501E0AFF3008000210A2307F194
:10292000240607E0B0FBF3F203FB120030307054D2
:102930001046491C0028F5D12B4622463846BDE8F2
:10294000F04100F03EB80000000000002D00000043
:102950002B0000002000000010B5203AC0F00B80D2
:10296000B1E81850203AA0E81850B1E81850A0E893
:102970001850BFF4F5AF5FEA027C24BFB1E81850ED
:10298000A0E8185044BF18C918C0BDE810405FEA5D
:10299000827C24BF51F8043B40F8043B08BF7047D9
:1029A000D20728BF31F8023B48BF11F8012B28BFDE
:1029B00020F8023B48BF00F8012B70477047704772
:1029C00070472DE9F0470D4604469246994600F1BE
:1029D00024080168880604D5E06921F0100121600F
:1029E00000E00120A84202DDA0EB050700E000277F
:1029F000A16907EB050202EB0900A1EB0000A06151
:102A00002068C00602D42046AFF30080002608E00C
:102A1000D4E901211AF806009047206A401C761C70
:102A200020624E45F4DB2068C0060AD52046AFF38D
:102A3000008006E0D4E9012130209047206A401C44
:102A40002062381EA7F10107F4DC07E0D4E9012178
:102A500018F805009047206A401C2062281EA5F146
:102A60000105F3DC2046AFF300802068000602D5A4
:102A70000220BDE8F0870120FBE7000001694A1C45
:102A800002610878704700B58FB0CDE901310021AF
:102A9000059105497944CDE9031011466846FFF7D1
:102AA000E9FE0FB000BD0000E5FFFFFF0A6802F875
:102AB000010B0A607047754600F028F8AE46050025
:102AC0006946534620F00700854618B020B5FDF74B
:102AD0007FFFBDE820404FF000064FF000074FF0A9
:102AE00000084FF0000B21F00701AC46ACE8C0092C
:102AF000ACE8C009ACE8C009ACE8C0098D46704735
:102B00000446AFF300802046FDF73EFB00487047C7
:102B10004C1B002000487047501B00200149182022
:102B2000ABBEFEE726000200704710B5FFF7F2FFCC
:102B30004FF00001016010BD582B0008000000207C
:102B400044000000280100089C2B000844000020DD
:102B50006C1D00004401000801000400000000009A
:102B60000000000000000000000000000000000065
:102B70000000000000000000000000000000000055
:102B80000000000000000000010203040102030431
:0C2B900006070809020406080000000007
:04000005080009B92D
:00000001FF
