:020000040800F2
:10000000400F0020C1090008310500083305000831
:10001000370500083B0500083F0500080000000008
:100020000000000000000000000000004305000880
:100030004505000800000000470500088708000883
:10004000D7090008D7090008D7090008D709000810
:10005000D7090008D7090008D7090008D709000800
:10006000D7090008D7090008D7090008D7090008F0
:10007000D7090008D7090008D7090008D7090008E0
:10008000D7090008D7090008ED010008D7090008C2
:10009000D7090008D7090008D7090008D7090008C0
:1000A000D7090008D7090008D7090008D7090008B0
:1000B000D7090008D7090008D7090008D7090008A0
:1000C000D7090008D7090008D7090008D709000890
:1000D000D7090008D7090008F3060008D709000867
:1000E000D7090008D7090008D709000800F002F86E
:1000F00000F03CF80AA090E8000C82448344AAF186
:100100000107DA4501D100F031F8AFF2090EBAE883
:100110000F0013F0010F18BFFB1A43F0010318473B
:100120001C3B00003C3B0000103A24BF78C878C15B
:10013000FAD8520724BF30C830C144BF04680C60ED
:10014000704700000023002400250026103A28BF35
:1001500078C1FBD8520728BF30C148BF0B60704739
:100160001FB503F064FD1FBD10B510BD03F025FDE4
:100170001146FFF7F5FF00F0D3FA03F043FD03B497
:10018000FFF7F2FF03BC03F04BFD0000002100224B
:1001900005E0DA4830F811000244481C81B2D84822
:1001A00000888142F5DBD6480088B2FBF0F080B2CF
:1001B00070470120D349087070470020D14908706A
:1001C00070477047CF4800787047CF480088704725
:1001D00001464FF0FF30CA4A1288914202DACB4AF8
:1001E000118000207047CA480078704710B5C54894
:1001F0000078052822D2DFE800F02403222325001E
:10020000C4480068C4490880C4480088BC490988BB
:10021000884202D10020C1490880BF480188BF48F8
:1002200002880088401CBD4B1880B44820F812108A
:10023000B9480088BA490968884704E000BF00BF90
:1002400000BF00BF00BF00BF6FF00200B1494C39D2
:100250000860B448006840F480204FF0E021C1F805
:10026000800210BD00B585B0684601F088F8DDE970
:100270000101884202D1029805B000BD02984000F9
:10028000FAE72DE9F04188B007460121042001F08A
:10029000F0F8A54801F048F905A801F0ABFCFFF71C
:1002A000E1FF3968B0FBF1F414B908B0BDE8F081A2
:1002B000B4F5803F03DA0025601E86B23AE04FF0C5
:1002C000FF3294464FF6FF7894FBF8F81FFA88F057
:1002D00019E000F101081FFA88F094FBF0F81FFA0A
:1002E00088F101FB1042624501D294460346A0F515
:1002F0007F48B8F1FF0806D1B4FBF3F81FFA88F184
:1003000098B2002201E0002AE3D100BF884208DD54
:10031000A1F101081FFA88F5A0F101081FFA88F67B
:1003200007E0A0F101081FFA88F5A1F101081FFA02
:1003300088F600BFADF81450ADF8186005A97A48EA
:1003400001F0C6F90121784801F07CFD01A801F017
:100350005AFC6020ADF804000120ADF80600ADF8AD
:100360000A000220ADF80C0001A96F4801F0BFFAA5
:1003700001216D4801F063FC00BF96E708B501213B
:100380004FF4047001F068F82020ADF80000002060
:100390008DF803006946654800F0AAFD08BD30B538
:1003A0008BB0054600205D4908800820544908802C
:1003B0005B496868086001214FF4047001F04CF853
:1003C00001A800F0DCFF05982968B0FBF1F4514862
:1003D0004C3800F00FFB06A800F056FB4FF420202D
:1003E000089001208DF8280006A94A484C3800F0F2
:1003F00028FB012147484C3800F017FC01214548F3
:100400004C3800F04AFBEF2C07DD072301220F21B7
:1004100040484C3800F0ADFB42E0472C07DD062396
:1004200001220F213B484C3800F0A3FB38E0372C69
:1004300007DD052301220F2136484C3800F099FBD7
:100440002EE0292C07DD042301220F2131484C38EE
:1004500000F08FFB24E01C2C07DD032301220F2179
:100460002C484C3800F085FB1AE00D2C07DD0223E8
:1004700001220F2127484C3800F07BFB10E0072CAD
:1004800007DD01231A460F2122484C3800F071FB8A
:1004900006E0002301220F211E484C3800F069FBC2
:1004A0001C484C3800F01BFB00BF1A484C3800F0C9
:1004B0001BFB0028F9D117484C3800F01FFB00BF88
:1004C00014484C3800F01FFB0028F9D101211148D5
:1004D0004C3800F0E2FA01224FF408710D484C3814
:1004E00000F0F1FA2846FFF7CCFEFFF747FF0421A2
:1004F000122000F043F90BB030BD0000480000208E
:10050000120000200C000020020000200400002047
:10051000000000204C2401400E00002010000020AC
:100520000800002080E200E00008004000100140C8
:10053000704700BFFEE700BFFEE700BFFEE700BF59
:10054000FEE770477047704770B5054671484068D0
:10055000006870494968C98845546E484068C08839
:10056000401C84B26B4840688088401EA04200DA7C
:100570000024684840680089A04204D103206549EE
:100580004968887206E063484068C4800120614978
:10059000496888725F484068807A032808D002F072
:1005A00095F8B0F5807F03DC02205A4949688872CB
:1005B00058484068807A70BD08B50121042000F0D9
:1005C0004BFF0420ADF8000018208DF80300022036
:1005D0008DF802006946504800F08AFC0820ADF80A
:1005E000000004208DF8030069464B4800F080FCB1
:1005F00008BD1FB5044614222146464803F0A8FA58
:10060000684601F097FE206800900121480400F040
:1006100030FF424801F0E2FD6946404801F021FE0A
:10062000012240F225513D4801F0B3FE022126206F
:1006300000F0A4F8FFF7C0FF0121384801F09DFE4B
:100640001FBD34488068C08832498968098988425A
:100650000CD132480C30008820F080002F490C313A
:10066000088000202B498968887270472B480088D1
:1006700010F0800F37D027488068006825498968C6
:100680000989405C2549091D088022488068008945
:10069000401C2049896808811E4880680089B0F59F
:1006A000806F03DB00201B49896808811948806836
:1006B000008918498968C98888420CD117480C30CC
:1006C000008820F0800015490C3108800020114975
:1006D0008968887207E011480C30008840F080007B
:1006E0000E490C31088000BFBFE700B5FFF7A9FF36
:1006F00000BD10B50948048814F0200F04D0011D76
:100700000988C8B2FFF720FF14F0800F01D0FFF76F
:1007100098FF10BD58000020000801400044004030
:1007200000F02CF900F0A3F81149086000F09FF8E0
:10073000104908601BE00E48006800F09BF838B1D3
:100740000B4800680C4908440949086002F07CFB2A
:100750000848006800F08EF848B10648006800F5C7
:100760007A700449086002F033FAFFF7BEFFE2E74F
:100770001400002018000020A086010030B50A46B1
:100780000346C51700EBD5656911202303FB110350
:10079000DCB213071D0E1D4B1D544FF0E02303EB7D
:1007A0008103D3F800310125A5402B434FF0E0250C
:1007B00005EB8105C5F8003130BD10B50246C41700
:1007C00000EBD4646111202202FB1102D3B2104A63
:1007D00052F8214001229A4022430D4C44F8212036
:1007E00010BD10B50246C41700EBD464611120227D
:1007F00002FB1102D3B2074A52F8214001229A406B
:100800002243044C44F8212010BD000000E400E025
:1008100080E100E080E200E000B585B0684600F0CD
:10082000AEFD4FF0E020006940F006004FF0E021FF
:10083000086146F2A8110198B0FBF1F0401E4FF09C
:10084000E02148610846006940F00100086105B0F8
:1008500000BD00BF0F4909688842FBD8704700B54A
:1008600002460C4909688818FFF7F3FF00BD0948E4
:1008700000687047014607480068884201D9012096
:1008800070470020FCE703480068283001490860F1
:10089000704700001C00002010B500F075FCFFF749
:1008A000BBFF4FF4803000F08FFC00F0CCFC01283F
:1008B00001D000BFFEE74FF48021881000F0E8FC73
:1008C000012000F0F1FC4FF4FA70FFF7C8FF392067
:1008D00000F09DFC012801D000BFFEE7022000F0DF
:1008E000E6FC4FF4FA70FFF7BAFF00F0E9FC0221D2
:1008F000B1EBA00F01D000BFFEE7002000F0E5FC47
:10090000002000F0EBFC002000F0F1FC10BD000026
:1009100008B50121142000F09FFD4FF48070ADF860
:10092000000010208DF8030002208DF802006946B7
:100930001F4800F0DDFA4FF40070ADF80000102001
:100940008DF8030002208DF802006946184800F077
:10095000CFFA0120ADF8000028208DF80300022016
:100960008DF802006946134800F0C2FA08BD08B5C8
:1009700001200090684601F038FE08BD10B5FFF771
:100980008BFFFFF7C5FFFFF747FFFFF7F0FF0A48B0
:100990000A49086000200872012048724FF4106074
:1009A0004881084602F0EDF8642002F0C4F810BD5A
:1009B000001001400008014070110100B40800203F
:1009C00008480047FEE7FEE7FEE7FEE7FEE7FEE732
:1009D000FEE7FEE7FEE7FEE703480449024A044B50
:1009E00070470000ED000008400D0020400F00207F
:1009F000400D002010B50446F948844208D1012179
:100A0000401500F043FD0021601500F03FFD17E0A8
:100A1000F448844208D10121001500F037FD00217F
:100A2000201500F033FD0BE0EF48844208D101218E
:100A3000C80300F02BFD00214FF4004000F026FD1C
:100A400010BD30B50246002000235068E74C20401E
:100A50000D790C6844EA0524204350609068E44C0A
:100A60002040D1E902542C434D7944EA4504204307
:100A70009060D06A20F470000C7C641EE4B22343C2
:100A800040EA0350D06230BD002101600171417124
:100A90008160C16001210174704721B1826842F018
:100AA0000102826003E0826822F0010282607047E6
:100AB00021B1826842F48072826003E0826822F48D
:100AC00080728260704710B50023CBB21AB14468BF
:100AD0001C43446002E044689C43446010BD81684C
:100AE00041F0080181607047014600208A6812F0D9
:100AF000080F01D0012000E000207047816841F01C
:100B0000040181607047014600208A6812F0040FDA
:100B100001D0012000E00020704721B1826842F43A
:100B2000A002826003E0826822F4A0028260704723
:100B3000014600208A6812F4800F01D0012000E0F5
:100B40000020704710B50A4600210023416821F4B7
:100B50006041531E41EA4331416010BD21B14268FA
:100B600042F40062426003E0426822F400624260A4
:100B70007047F0B504460D4600200021092D11DD17
:100B8000E068A5F10A0606EB4607072606FA07F114
:100B90008843A5F10A0606EB460603FA06F1084368
:100BA000E0600CE0206905EB4507072606FA07F12F
:100BB000884305EB450603FA06F108432061072A3E
:100BC0000FDA606B561E06EB86071F2606FA07F142
:100BD0008843561E06EB860605FA06F10843606355
:100BE00022E00D2A0FDA206BD61F06EB86071F26A0
:100BF00006FA07F18843D61F06EB860605FA06F1CA
:100C00000843206310E0E06AA2F10D0606EB8607B8
:100C10001F2606FA07F18843A2F10D0606EB8606A9
:100C200005FA06F10843E062F0BD21B1826842F4A2
:100C30008012826003E0826822F480128260704732
:100C40000146C86C80B2704765484C3000687047F8
:100C500021B1426842F48062426003E0426822F4BB
:100C600080624260704721B1426842F48052426023
:100C700003E0426822F48052426070470A46002135
:100C8000816821F4E04111438160704721B182689D
:100C900042F40042826003E0826822F400428260F3
:100CA000704721B1826842F40212826003E08268D8
:100CB00022F4021282607047014600208A6812F412
:100CC000001F01D0012000E000207047F0B504466D
:100CD0001546002000220026092911DDE068A1F157
:100CE0000A0707EB470C072707FA0CF29043A1F11C
:100CF0000A0707EB470703FA07F21043E0600CE02E
:100D0000206901EB410C072707FA0CF2904301EB35
:100D1000410703FA07F210432061A06BC0F30156AC
:100D2000EF1C06F1010CA7EB0C0707EB870C1F2744
:100D300007FA0CF29043EF1C06F1010CA7EB0C072D
:100D400007EB870701FA07F21043A063F0BD10B567
:100D50000A4600210023816B21F44011531E41EA11
:100D60000351816310BD10B5002303460B441A6084
:100D700010BD02460023134601F128000344186801
:100D800080B270470A46002141681A4B194011434E
:100D9000416070474162826270470A4600214168A3
:100DA00021F01F0111434160704740B10C490831E7
:100DB000096841F400010A4A0832116007E0084955
:100DC0000831096821F40001054A083211607047B2
:100DD0000246002013680B420ED001200DE00000F7
:100DE0000024014000280140003C0140FFFEF0FFCC
:100DF000FDF7F1FFFFFD3FFF00207047CA4302608F
:100E0000704770B502460020002300240B1255687D
:100E1000CEB205EA060415681D4202D00CB10120CD
:100E200000E0002070BD00220A12D3430360704727
:100E300010B50446CA48844208D10121042000F0BC
:100E400025FB0021042000F021FB46E0C548844238
:100E500008D10121082000F019FB0021082000F032
:100E600015FB3AE0C048844208D10121102000F06F
:100E70000DFB0021102000F009FB2EE0BB4884424E
:100E800008D10121202000F001FB0021202000F0EA
:100E9000FDFA22E0B648844208D10121402000F04A
:100EA000F5FA0021402000F0F1FA16E0B148844242
:100EB00008D10121802000F0E9FA0021802000F013
:100EC000E5FA0AE0AC48844207D10121801500F020
:100ED000DDFA0021A01500F0D9FA10BD10B50121EE
:100EE000084600F0D3FA0021012000F0CFFA10BD2F
:100EF0002DE9F041024600250026002000230024B1
:100F0000002791F803C00CF00F0591F803C01CF006
:100F1000100F03D091F802C04CEA0505B1F800C0EB
:100F20001CF0FF0F31D0146800202BE04FF0010CB3
:100F30000CFA00F3B1F800C00CEA03069E4220D17F
:100F400083004FF00F0C0CFA03F7BC4305FA03FCC7
:100F50004CEA040491F803C0BCF1280F06D14FF00D
:100F6000010C0CFA00FCC2F814C00AE091F803C0AE
:100F7000BCF1480F05D14FF0010C0CFA00FCC2F88F
:100F800010C0401C0828D1D31460B1F800C0BCF1D7
:100F9000FF0F34DD546800202EE000F1080C4FF004
:100FA000010808FA0CF3B1F800C00CEA03069E42EF
:100FB00021D183004FF00F0C0CFA03F7BC4305FA64
:100FC00003FC4CEA040491F803C0BCF1280F05D1DE
:100FD00000F1080C08FA0CF8C2F8148091F803C06C
:100FE000BCF1480F07D100F1080C4FF0010808FAD6
:100FF0000CF8C2F81080401C0828CED35460BDE81D
:10100000F0814FF6FF710180022181700421C170CF
:1010100070470246002093680B4201D0012000E097
:10102000002070470146886880B270470246002061
:10103000D3680B4201D0012000E000207047014638
:10104000C86880B2704701617047416170470AB15A
:10105000016100E041617047C16070474FF4803228
:101060000A438261816182618269826970470246B6
:101070000020424B18684FF68073184040EA021077
:1010800008433E4B186070473D49C8617047F0B552
:101090000A46002300240021002500F00046B6F196
:1010A000004F02D1354EF16901E0344E7168C0F352
:1010B000034583B200F44016B6F5401F08D121F075
:1010C00070612E4E766826F070662C4F7E6012E0BE
:1010D00000F48016B6F5801F06D1032606FA05F443
:1010E000A14341F0706106E0460D360103FA06F6B1
:1010F000B14341F0706122B1460D360103FA06F6A4
:10110000314300F00046B6F1004F02D11B4EF161B1
:1011100001E01A4E7160F0BD30B500228B071C0F44
:101120000F2303FA04F2154B08338C1053F82430C4
:101130009343124C08348D1044F8253023468C100C
:1011400053F824308C07240F00FA04F423430B4C8B
:1011500008348D1044F8253030BD0A4908607047C6
:1011600000080140000C0140001001400014014043
:1011700000180140001C0140002001400000014017
:1011800000002042DC002042DC48006840F0010002
:10119000DA49086008464068D9490840D74948609C
:1011A00008460068D7490840D449086008460068E6
:1011B00020F4802008600846406820F4FE00486063
:1011C0004FF41F0088607047CC49096821F48031D2
:1011D000CA4A11601146096821F480211160B0F5F6
:1011E000803F03D0B0F5802F0ED106E0C3490968D7
:1011F00041F48031C14A116007E0C049096841F4F7
:10120000A021BE4A116000E000BF00BF704710B5CA
:1012100001460022002300204A11012A02D1B74CC6
:10122000236806E0022A02D1B44C236A01E0B34CE1
:10123000636A01F01F02012494401C4201D0012086
:1012400000E0002010BD70B500240025002600BF7E
:101250003120FFF7DCFF0646641CB4F5A06F01D017
:10126000002EF5D03120FFF7D2FF08B1012500E0B4
:101270000025284670BD01460020A04A106820F0D5
:10128000F80040EAC100106070479F49086070474D
:1012900002460020994B586820F47C1042EA010372
:1012A0001843964B58607047974908667047014647
:1012B0000020924A506820F00300084350607047B5
:1012C0008E48406800F00C007047014600208B4AB1
:1012D000506820F0F000084350607047014600203D
:1012E000864A506820F4E060084350607047014629
:1012F0000020824A506820F4605040EAC1005060EB
:10130000704729B17D4A527A02437C4B5A7206E0FB
:101310007A4A527AC343DBB21A40784B5A7270470A
:101320007A490860704701460020744A506820F4EA
:1013300040400843506070470021754A11706F4A61
:1013400082F82010012802D0042808D103E00121EE
:101350006F4A117004E005216D4A117000E000BF72
:1013600000BF70476B49086070476449096A0143D0
:10137000624A11627047674944390860704730B566
:1013800000210022002400235C4D6D6805F00C0153
:1013900021B1042905D0082923D105E05E4D05605F
:1013A00022E05D4D05601FE0544D6D6805F470123C
:1013B000524D6D6805F48034022505EB92421CB94C
:1013C000564D554305600BE04C4D6D6815F4003FDC
:1013D00003D0524D5543056002E04F4D5543056023
:1013E00002E04D4D056000BF00BF444D6D6805F043
:1013F000F00109094A4D6B5C0568DD4045603F4DD1
:101400006D6805F4E061090A454D6B5C4568DD4097
:1014100085603A4D6D6805F46051C90A404D6B5CBA
:101420004568DD40C560354D6D6805F44041890B68
:101430003C4D6B5CC568B5FBF3F5056130BD29B16A
:101440002E4A526902432D4B5A6104E02B4A5269DD
:1014500082432A4B5A61704729B1284A9269024354
:10146000264B9A6104E0254A92698243234B9A6194
:10147000704729B1214AD2690243204BDA6104E066
:101480001E4AD26982431D4BDA61704729B11B4A5B
:10149000D2680243194BDA6004E0184AD2688243EA
:1014A000164BDA60704729B1144A12690243134B94
:1014B0001A6104E0114A12698243104B1A617047A5
:1014C00014494039086070470F49C86470470B4998
:1014D000C87170470948406A40F080700749486207
:1014E000704701460020054A92680A4201D0012057
:1014F00000E00020704701498872704700100240E8
:101500000000FFF8FFFFF6FE00004242D800424212
:10151000201002408004424200127A0000093D007F
:10152000200000203000002010B50446FE48844210
:1015300008D10121C014FFF7A9FF0021E014FFF733
:10154000A5FFC4E0B4F1804F08D101210846FFF7A0
:10155000AAFF00210120FFF7A6FFB8E0F34884426C
:1015600008D101210220FFF79EFF00210220FFF792
:101570009AFFACE0EE48844208D101210420FFF735
:1015800092FF00210420FFF78EFFA0E0E94884428B
:1015900008D101210820FFF786FF00210820FFF76E
:1015A00082FF94E0E448844208D101211020FFF733
:1015B0007AFF00211020FFF776FF88E0DF488442A1
:1015C00008D101212020FFF76EFF00212020FFF726
:1015D0006AFF7CE0DA48844208D101214014FFF719
:1015E00055FF00216014FFF751FF70E0D548844299
:1015F00009D10121C804FFF749FF00214FF4002061
:10160000FFF744FF63E0D048844209D10121080577
:10161000FFF73CFF00214FF48010FFF737FF56E043
:10162000CA48844209D101214805FFF72FFF002154
:101630004FF40010FFF72AFF49E0C548844208D163
:1016400001214020FFF72FFF00214020FFF72BFF53
:101650003DE0C048844208D101218020FFF723FFEC
:1016600000218020FFF71FFF31E0BB48844208D1F2
:1016700001218015FFF717FF0021A015FFF713FFC9
:1016800025E0B648844209D101210804FFF7FEFE97
:1016900000214FF48030FFF7F9FE18E0B048844293
:1016A00009D101214804FFF7F1FE00214FF4003079
:1016B000FFF7ECFE0BE0AB48844208D1012188041F
:1016C000FFF7E4FE00214FF48020FFF7DFFE10BD9E
:1016D00000220288944B98420ED0994B98420BD02E
:1016E000B0F1804F08D0914B984205D0904B984272
:1016F00002D0904B984204D14FF68F731A404B881A
:101700001A438D4B984207D08C4B984204D04FF629
:10171000FF431A40CB881A4302808B8883850B884D
:101720000385814B98420BD0854B984208D08B4B58
:10173000984205D08A4B984202D08A4B984201D1F8
:101740000B7A038601238382704770B50024002240
:101750000023058C4FF6FE7635400584028C838885
:10176000048B4FF68F752C40B51E2C400D882C43F2
:10177000751E2A400D892A434D882A436A4DA84286
:101780000BD06F4DA84208D0744DA84205D0744DBF
:10179000A84202D0734DA84213D14FF6F7752A40E4
:1017A0004D892A434FF6FB752A408D882A434FF610
:1017B000FF652B404FF6FF552B408D892B43CD897C
:1017C0002B4383800483CD888586028470BD70B5E9
:1017D000002400220023058C4FF6EF763540058467
:1017E000028C8388048B48F6FF752C404FF6FF452A
:1017F0002C400D882D0644EA15444FF6DF752A402B
:101800000D892D0542EA15424D882D0542EA154203
:10181000454DA84202D04A4DA8421BD14FF67F75D4
:101820002A404D892D0542EA15424FF6BF752A40E0
:101830008D882D0542EA15424FF6FF352B404FF2B9
:10184000FF752B408D89AD0443EA1543CD89AD0466
:1018500043EA154383800483CD880587028470BDE5
:1018600070B5002400220023058C4FF6FF6635403A
:101870000584028C8388848B4FF68F752C404FF63D
:10188000FC752C400D882C434FF6FF552A400D89DE
:101890002D0642EA15424D882D0642EA1542224D98
:1018A000A84202D0264DA8421BD14FF2FF752A4014
:1018B0004D892D0642EA15424FF6FF352A408D88A4
:1018C0002D0642EA15424EF6FF752B404DF6FF7588
:1018D0002B408D892D0543EA1543CD892D0543EA1B
:1018E000154383808483CD888587028470BD70B55D
:1018F000002200230024058C4EF6FF763540058437
:10190000038C8488828B48F6FF752A404FF6FF458A
:101910002A400D882D0642EA15424DF6FF752B40F0
:101920000D892D0720E00000002C0140000400403C
:1019300000080040000C004000100040001400406F
:1019400000340140004C014000500140005401406F
:1019500000180040001C00400020004000400140F2
:10196000004401400048014043EA15434D882D07DB
:1019700043EA1543FE4DA84202D0FE4DA84206D1CF
:101980004BF6FF752C408D89AD0544EA15448480E3
:101990008283CD88A0F84050038470BD828B4FF2C3
:1019A000FF331A408283828B0B0642EA1342828302
:1019B0007047F0B50C461546002100220026078C22
:1019C0004EF6FF7C07EA0C070784818B028C270701
:1019D0003E0C40F6FF4739402F0641EA17411F07EA
:1019E00041EA17414DF6FF773A4046F480573A43B3
:1019F00081830284F0BD828B4FF6F3731A40828399
:101A0000828B0A4382837047F0B50C46154600214D
:101A100000220026078C4FF6FF6C07EA0C070784AC
:101A2000818B028C27063E0C4FF60C7739401F0540
:101A300045EA174739434FF6FF573A4046F4807757
:101A40003A4381830284F0BD028B4FF2FF331A4088
:101A50000283028B0B0642EA134202837047F0B501
:101A60000C461546002100220026078C4FF6EF7C1D
:101A700007EA0C070784018B028C27053E0C40F611
:101A8000FF4739401F0741EA17412F0641EA174136
:101A90004FF6DF773A4046F010073A43018302845D
:101AA000F0BD028B4FF6F3731A400283028B0A4398
:101AB00002837047F0B50C46154600210022068CC3
:101AC0004FF6FE773E400684018B028C4FF60C7673
:101AD00031401E0545EA164631437E1E324044F031
:101AE0000106324301830284F0BD70B505460C4601
:101AF000208850B92389A28861882846FFF7DAFF39
:101B0000E1882846FFF7CDFF25E0208804280AD188
:101B10002389A28861882846FFF7A1FFE18828462B
:101B2000FFF792FF17E0208808280AD12389A288AE
:101B300061882846FFF768FFE1882846FFF75BFFCA
:101B400009E02389A28861882846FFF732FFE188EF
:101B50002846FFF723FF70BD2DE9F04105460C46EE
:101B600000260127608808B9022600E00026A08828
:101B7000012801D1022700E001272088A0B923898C
:101B8000A28861882846FFF795FFE1882846FFF77D
:101B900088FF23893A4631462846FFF760FFE188EF
:101BA0002846FFF751FF13E02389A2886188284661
:101BB000FFF755FFE1882846FFF746FF23893A469D
:101BC00031462846FFF776FFE1882846FFF769FF90
:101BD000BDE8F0810A884B881A438B881A43CB886A
:101BE0001A430B891A434B891A438B891A43A0F86D
:101BF000442070474FF6FF71818000210180C18031
:101C00004180017270470021018041808180C18044
:101C1000018141818181C181704700210180418022
:101C2000012181800021C180018170470021018054
:101C300041808180C180018141818181704721B1D2
:101C4000028842F00102028004E002884FF6FE732F
:101C50001A400280704731B1B0F8442042F400428B
:101C6000A0F8442005E0B0F84420C2F30E02A0F82A
:101C70004420704710B51AB183890B43838104E077
:101C80008389CC43A4B22340838110BD81827047F5
:101C900041EA0203A0F84830704710B51AB18389B1
:101CA0000B43838104E08389CC43A4B22340838126
:101CB00010BD01894FF6F8721140018170470A4644
:101CC000002101894FF68F7319401143018170473C
:101CD00030B504460D4629462046FFF7F0FF20891F
:101CE00040F00700208130BD2DE9F04104460D464B
:101CF00016461F46602D06D13B460122314620463E
:101D0000FFF7ADFE05E03B46012231462046FFF7D6
:101D1000D1FE29462046FFF7D2FF208940F0070078
:101D20002081BDE8F08130B50C4600210189C9B29F
:101D30001D0642EA154525432943018130BD2DE9A1
:101D4000F04105460E4617469846002443463A465B
:101D500031462846FFF7E7FF2C894FF6F87004401C
:101D600044F007044FF68F70044044F0700403E021
:101D7000002C0140003401402C81BDE8F081F0B519
:101D800004460D4616461F463B4632462946204627
:101D9000FFF7C9FF208940F480402081F0BD018514
:101DA000828270470A46002101884FF68F731940DE
:101DB000114301807047F0B50C4615461E460021C0
:101DC000002200230189028B038C4FF6F8773940FB
:101DD00021434FF6FC473A4040F201173A434FF691
:101DE000DD773B40370545EA17473B4301810283D6
:101DF0000384F0BD0A460021018B4FF68F73194012
:101E00001143018370470A460021018B48F6FF7396
:101E10001940130641EA1341018370470A46002125
:101E2000818B4FF68F7319401143818370470A46A7
:101E30000021818B48F6FF731940130641EA1341D4
:101E40008183704721B1028842F08002028004E061
:101E500002884FF67F731A400280704721B1828852
:101E600042F00402828004E082884FF6FB731A403D
:101E70008280704721B1828842F00802828004E0AB
:101E800082884FF6F7731A408280704721B18288AA
:101E900042F00102828004E082884FF6FE731A400D
:101EA000828070470A460021018B4FF6F773194074
:101EB0001143018370470A460021018B4FF2FF73E3
:101EC0001940130641EA1341018370470A46002175
:101ED000818B4FF6F77319401143818370470A468F
:101EE0000021818B4FF2FF731940130641EA134121
:101EF000818370470A460021018B4FF6FB7319401E
:101F00001143018370470A460021018B4FF6FF33CE
:101F10001940130641EA1341018370470A46002124
:101F2000818B4FF6FB7319401143818370470A463A
:101F30000021818B4FF6FF331940130641EA13410C
:101F4000818370470A460021018B4FF67F73194049
:101F50001143018370470A460021018BC1F30E0132
:101F6000130641EA1341018370470A460021818B21
:101F70004FF67F7319401143818370470A46002151
:101F8000818BC1F30E01130641EA1341818370472F
:101F90000A460021018C4FF6FD731940114301845C
:101FA00070470A460021018C4FF6F7731940114320
:101FB000018470470A460021018C4FF6DF731940F7
:101FC000130541EA1341018470470A460021018C40
:101FD0004FF67F731940130541EA1341018470479E
:101FE0000A460021018C4FF6FF531940130641EABF
:101FF0001341018470470A460021018C4FF2FF73A0
:102000001940130641EA1341018470470A46002132
:10201000018C4DF6FF731940130741EA1341018407
:10202000704730B5002301248C40A3B2048CDD43FB
:10203000ADB22C400484048C02FA01F5ADB22C43FD
:10204000048430BD30B5002304248C40A3B2048C3A
:10205000DD43ADB22C400484048C02FA01F5ADB22C
:102060002C43048430BD70B503460020002418467C
:10207000183001258D40ACB21D8CE643B6B2354018
:102080001D8409B1082909D100EB6100056825F01C
:10209000700505600568154305600CE00D1FADB2C5
:1020A00000EB6500056825F4E04505600568160647
:1020B00045EA1645056070BD21B1028842F0020272
:1020C000028004E002884FF6FD731A4002807047D8
:1020D00021B1028842F00402028004E002884FF637
:1020E000FB731A400280704721B1828842F080025F
:1020F000828004E082884FF67F731A4082807047A6
:1021000002884FF6F7731A40028002880A43028061
:10211000704782884FF68F731A40828082880A4304
:102120008280704702894FF6F8731A400281028953
:102130000A430281704702894FF67F731A40028179
:1021400002890A4302817047818470478185704704
:10215000818670470187704781877047A0F84010DB
:10216000704702884FF6FF431A40028002880A43F4
:10217000028070470146888E70470146088F70477D
:102180000146888F70470146B1F84000704701460C
:10219000888C70470146088D704702460020138ADC
:1021A0000B4201D0012000E000207047CA430282A8
:1021B000704730B50246002000230024158A05EA46
:1021C0000103958905EA010413B10CB1012000E077
:1021D000002030BDCA4302827047000010B504469B
:1021E000FC48844209D101218803FFF74FF90021FF
:1021F0004FF48040FFF74AF932E0F748844209D1B2
:1022000001214804FFF74FF900214FF40030FFF798
:102210004AF925E0F148844209D101218804FFF7F9
:1022200042F900214FF48020FFF73DF918E0EC4817
:10223000844209D10121C804FFF735F900214FF488
:102240000020FFF730F90BE0E648844208D1012175
:102250000805FFF728F900214FF48010FFF723F954
:1022600010BD2DE9F04786B005460E460024A24673
:1022700000BFA1460027B08900B100BF2F462C8ABD
:102280004CF6FF700440F08804432C82AC894EF673
:10229000F3100440B088318908437189084304432E
:1022A000AC81AC8A4FF6FF400440B0890443AC8255
:1022B00001A8FFF764F8C748874202D1DDF810A0F3
:1022C00001E0DDF80CA0A88910F4004F08D00AEB5B
:1022D000CA0000EB0A1031684900B0FBF1F807E0D2
:1022E0000AEBCA0000EB0A1031688900B0FBF1F874
:1022F0006420B8FBF0F004012009642101FB10897F
:10230000A88910F4004F08D0322000EBC900B0FBC0
:10231000F1F000F00700044308E0322000EB091060
:102320006421B0FBF1F000F00F0004432C8106B0F3
:10233000BDE8F0874FF41651016000218180C18013
:1023400001810C21418100218181704710B5024635
:102350000020108A4FF2FF0318400B884C8823435B
:102360008C882343CC8823431843108210BD00215E
:10237000018041808180C180704721B1828942F40F
:102380000052828104E082894DF6FF731A408281F7
:102390007047F0B503460024002600250020A1F573
:1023A00010676A3F00D100BF1846C1F3421401F024
:1023B0001F06012707FA06F5012C01D10C3004E0B5
:1023C000022C01D1103000E014301AB107682F43FD
:1023D000076002E00768AF430760F0BD10B51AB1AF
:1023E000838A0B43838204E0838ACC43A4B22340D4
:1023F000838210BD028A4FF6F0731A400282028A6D
:102400000A430282704782894FF2FF731A40828129
:1024100082890A438281704721B1828942F0020297
:10242000828104E082894FF6FD731A4082817047F1
:10243000028A4FF6DF731A400282028A0A4302823E
:10244000704721B1028A42F48042028204E0028A8B
:102450004BF6FF731A4002827047C1F30802828074
:10246000704701468888C0F308007047818941F0B1
:10247000010181817047028BD2B20283028B42EA52
:10248000012202837047028B02F47F420283028B97
:102490000A430283704721B1828A42F0200282827D
:1024A00004E0828A4FF6DF731A408282704721B1BE
:1024B000828A42F01002828204E0828A4FF6EF7331
:1024C0001A408282704721B1828A42F008028282D9
:1024D00004E0828A4FF6F7731A408282704721B176
:1024E000828942F40042828103E08289C2F30E02B3
:1024F0008281704721B1828A42F40062828204E0C4
:10250000828A4FF2FF731A4082827047828A4FF6A6
:10251000FB731A408282828A0A438282704721B109
:10252000828A42F00202828204E0828A4FF6FD73C0
:102530001A408282704702460020B1F5007F00D128
:1025400000BF13880B4201D0012000E0002070473B
:1025500001F40072B2F5007F00D100BFCA430280CF
:10256000704770B502460024002300250020A1F525
:1025700010666A3E00D100BFC1F3421501F01F038F
:10258000012606FA03F3012D02D19689334006E0B5
:10259000022D02D1168A334001E0968A33400C1294
:1025A000012606FA04F41688344013B10CB1012058
:1025B00000E0002070BD10B500220023A1F51064DA
:1025C0006A3C00D100BF0A1201249440A3B2DC434C
:1025D000048010BD00380140004400400048004025
:1025E000004C004000500040704710B504469B4826
:1025F000217801704FF4806099498880994808607B
:102600000020C880088188724FF4806096498880D5
:10261000964808600020C880088188728F4800783A
:10262000012805D0022808D191489249086009E0A4
:102630004FF4E1308F49086004E04FF416508D49A3
:10264000086000BF00BF88488A49486084488860A5
:10265000AFF26B00C8600846FDF7CBFF10BD8248A3
:10266000807A70477E4909897D4AD288914206DD89
:102670007B4909897A4AD288891A88B208E0784960
:102680008988774AD288891A754A1289114488B292
:10269000704700B57248C08871490989884203D1E2
:1026A00000206F49887202E001206D4988726C48F1
:1026B000807A032807D0FFF7D5FFB0F5807F02DCD2
:1026C0000220674988726648807A00BD6649098998
:1026D000654AD288914206DD63490989624AD288F7
:1026E000891A88B208E0604989885F4AD288891AC5
:1026F0005D4A1289114488B2704700B5FFF7E6FFC2
:10270000C0F5806080B200BD5B480078704710B5AE
:1027100004465348C08853490C545148C088401C53
:1027200083B24F488088401E984200DA00234C480C
:102730000089984203D103204949887204E048483F
:10274000C3800120464988724548807A032807D013
:10275000FFF788FFB0F5807F02DC022040498872D5
:102760003F48807A10BD10B504462046FFF7CFFFE2
:1027700010BD70B5044604E02078FFF7C8FF054699
:10278000641C20780028F7D1FDF7AFFF284670BD04
:1027900070B504460D46FFF765FFA8420DDB002625
:1027A00005E02078FFF7B3FF641C701C86B2AE42D0
:1027B000F7DBFDF79AFF002070BD4FF0FF30FBE71D
:1027C0002949C988284A1289914202D14FF0FF3025
:1027D00008E025490989254A505C23490989491C93
:1027E000214A1181204909891F4A9288914202DBBE
:1027F00000211D4A1181704770B504460E46002520
:1028000009E0FFF7DDFF0346B3F1FF3F03D023707C
:10281000641C681C85B2B3F1FF3F01D0B542F0DB08
:1028200028B270BD1049C9880F4A1289914202D15D
:102830004FF0FF3003E00C4909890C4A505C7047A7
:1028400000B587B0684601F0D1F81C2269460B48F4
:1028500001F07EF9094807B000BD000034000020F7
:102860006C000020B400002078000020B404002098
:1028700001C20100A00000203500002084000020DB
:102880000120C94908707047C84901604FF4FA71C6
:102890008180002101814181C181C1800182C17497
:1028A0008174704710B5C2494868FFF7EDFF0220F8
:1028B000BF4908730120BF490870FDF77AFC10BDBD
:1028C00010B5BB48007B00285FD003285CD1FFF720
:1028D000E0FE022800D159E0B648007858B1B6A011
:1028E000FFF747FFB2484068008AB149496848810C
:1028F0000020B0490870AE4840680068AC4949689B
:10290000498930F81100AF490880A94840684089DA
:10291000401CA74949684881A54840684089A449A6
:1029200049688988884203D10020A14949684881C3
:10293000A44800880011A349088008460088C0B256
:10294000088008460088C0B2FFF7E1FE984840685A
:10295000408997494968098A884214D19448407A45
:1029600048B101280AD002280BD1002090490873F1
:10297000FDF723FC06E0FFF795FF03E0FFF792FF6A
:1029800000E000BF00BF01E000BF00BF00BF10BDFE
:10299000C27C22B1012A03D0022A14D112E000BF66
:1029A0000289521C0281028983889A4203D1002243
:1029B0000281012282740389026822F81310012225
:1029C000C27400E000BF00BF704730B504460D463A
:1029D000E08958B90220E0742089401C2082208AB6
:1029E000A188884209DB0020208206E02946204693
:1029F000FFF7CEFFE089401EE081E07C30BD018919
:102A0000C180817C39B981888289891A8288038949
:102A1000D21A914204DD81888289891AC18104E039
:102A200081880289891A491EC18170470146088937
:102A30008A89904201DC887C08B10120704700201F
:102A4000FCE730B5044600255948007B05285CD2D8
:102A5000DFE800F05C4F035A5D0055494868FFF716
:102A6000E5FF002830D05248407A01282CD0504849
:102A7000007A10B1012826D112E04D484089A042C9
:102A800006DA5148007818B1012500204E49087037
:102A900047484089A04202DD01204B49087012E0FE
:102AA00043484089A04206DD4748007818B1012517
:102AB0000020454908703E484089A04202DA0120C2
:102AC0004149087000BF00BF394948682146FFF7F7
:102AD0005FFF1DB93648407A012809D101203449E9
:102AE000087300203849087031494868FFF787FFAC
:102AF0000EE02F4948682146FFF767FF022802D100
:102B000003202B49087303E002E000BF00BF00BFB1
:102B100000BF30BD1CB50446254804600094AFF2E8
:102B2000DD0001906846FDF73AFC1CBD10B5044677
:102B3000FDF72CFB10BD4FF4FA7190FBF1F201FB95
:102B400012011B4A52689181704710B5FDF735FBA1
:102B500000201749087310BD704715494881704718
:102B60001349487270471249087270471048007B39
:102B7000704700B501200E4908734868FFF73FFF12
:102B800000BD1CB5044620680090AFF249100190CA
:102B90006846FDF704FC0D48606000202073606803
:102BA000FFF772FE1CBD000036000020D808002090
:102BB000B4080020370000204F53433833353030FD
:102BC000000000003A00002038000020C408002067
:102BD00010B5FFF775FE10BD10B500242AE1C248FC
:102BE0000068001D50F82410C04A881A914218D07D
:102BF0000CDCBF48081872D0BE49401870D0BE49DE
:102C000040186ED0BD4940186CD10CE1A0F1407065
:102C10000A3868D0BA49401873D0BA494018F3D17D
:102C2000FEE0B1480068103050F82400B6498842F0
:102C300004D14FF47A70FFF76DFFA1E0AA48006855
:102C4000103050F82400B049491C884204D14FF498
:102C5000FA60FFF75FFF93E0A3480068103050F878
:102C60002400A949091D884204D141F28830FFF7A8
:102C700051FF85E09C480068103050F82400A349BB
:102C8000884204D142F21070FFF744FF78E0964882
:102C90000068103050F824009C49491C884204D137
:102CA00044F62060FFF736FF6AE08F480068103076
:102CB00050F824009549091D884204D14CF2503047
:102CC000FFF728FF5CE088480068103050F82400C7
:102CD0008F49884208D18F48FFF71CFF50E086E0FB
:102CE0004FE07BE0A2E070E07F480068103050F8D1
:102CF00024008749491C884204D18748FFF70AFF0E
:102D00003EE08CE078480068103050F8240080499C
:102D1000091D884203D18148FFF7FCFE30E072486C
:102D20000068103050F824007D49884203D17D4866
:102D3000FFF7F0FE24E06C480068103050F82400E3
:102D40007749491C884203D17748FFF7E3FE17E033
:102D500065480068103050F824007149091D884208
:102D600003D17248FFF7D6FE0AE05F4800681030D2
:102D700050F824006E49884202D16E48FFF7CAFE1F
:102D800055E059480068103050F824006A498842DC
:102D900003D10020FFF7E4FE16E05348006810302E
:102DA00050F824006549884203D10120FFF7D8FE7E
:102DB0000AE04D480068103050F82400604988420D
:102DC00002D10220FFF7CCFE31E0474909681031FB
:102DD00051F8241088B2FFF7AEFE28E04249096896
:102DE000103151F8241088B2FFF7B7FE1FE03E48BB
:102DF0000068103050F824005249884203D1002066
:102E0000FFF7B1FE0AE038480068103050F824009F
:102E10004D49884202D10120FFF7A5FE07E006E0F8
:102E2000FFF740FD03E0FFF790FE00E000BF00BFAA
:102E3000601CC4B22C480068001D50F8240010B17A
:102E4000032CFFF6CCAE10BD10B5FFF7F9FC2649F8
:102E500008600846006800683C4A811A904238D0F1
:102E60000CDC3B49401816D03A49401835D03A4955
:102E7000401818D03949401833D110E038480818A4
:102E800023D0384940181CD03749401815D037494D
:102E9000401826D10DE036A0FFF76BFC22E042A0DF
:102EA000FFF767FC1EE0FFF797FE4FA0FFF761FCFE
:102EB00018E04DA0FFF75DFC14E04BA0FFF759FCB4
:102EC00010E049A0FFF755FC0CE047A0FFF751FCCC
:102ED00008E045A0FFF74DFC04E043A0FFF749FCE4
:102EE00000E000BF00BF10BD3C000020465245512D
:102EF000BBBBB8BAF1F1FDFD080DF3FAF9F006FC21
:102F00000C0DF5FFF1F0FDFF314B5F5F31304B5F92
:102F10003130304BA0860100400D030020A1070096
:102F2000314D5F5F40420F0080841E00404B4C00DB
:102F300031304D5F809698004E4F524D4155544F61
:102F400053494E475249534546414C4C4D454153D8
:102F5000B7BBB1C002F404F0F8FC05FF0A01F1FDB3
:102F6000F7F5F4FE1300FEFFF7FF06F5050AF9FF7B
:102F700049444E5F53544D33324631303020626104
:102F8000736564206D756C7469707572706F7365AC
:102F9000206465766963652056302E302C204B33D3
:102FA0003846454C0D0A0000536F6D652070726FF6
:102FB000626C656D207769746820636F6D6D616EFA
:102FC000642070617273696E67202863686365634B
:102FD0006B2073796E74617820616E642076616C09
:102FE00075657329000000004F4B000070B5044662
:102FF000FDF73DFCFD49451804E02846FDF73AFC85
:1030000000B103E0FFF779FBA042F6DB00BF70BD23
:1030100008B504216846FFF7EFFB9DF803000006A2
:103020009DF8021040EA01409DF8011040EA01209D
:103030009DF80010084308BD10B5002418E00420D6
:10304000FFF7D4FFFFF7E4FFE9490860084600688E
:10305000E849401805D1E6480168E74840F82410DF
:1030600003E00120E549087000BF00BF601CC4B246
:10307000FFF7A6FB3A2801D1032CE0DBFFF7A0FB0A
:1030800010BD10B5002418E00420FFF7AFFFFFF7D4
:10309000BFFFD749086008460068D649401805D1E7
:1030A000D3480168D44840F8241003E00120D349F4
:1030B000087000BF00BF601CC4B2FFF781FB3A2854
:1030C00001D1032CE0DBFFF77BFB10BD10B5002422
:1030D00049E00420FFF78AFFFFF79AFFC449086020
:1030E00008460068C649401811D0C649401808D0A3
:1030F000C549401830D1BE480168BF4840F8241087
:103100002EE0BB480168BC4840F8241028E00420A9
:10311000FFF76CFFFFF754FB20281CD1B44801686F
:10312000B54840F82410FFF773FFB149086008461E
:103130000068B649884204D0AD480068B449884266
:1031400006D1AB480168AC480C3040F8241002E0CE
:103150000120AA49087003E00120A849087000BFB7
:1031600000BF601CC4B2FFF72BFB3A2801D1032C2F
:10317000AFDBFFF725FB10BD10B50024FCE00420F9
:10318000FFF734FFFFF744FF994908600846A14A5A
:103190000168881A914279D009DC9F4808180DD03F
:1031A0009E4940182FD09E49401870D150E09D494B
:1031B000401872D09C494018F7D1CAE00420FFF7AC
:1031C00015FFFFF7FDFA20281CD1894801688A48BD
:1031D00040F82410FFF71CFF854908600846006886
:1031E0008A49884204D0824800688949884206D1C9
:1031F0007F48016880480C3040F8241002E001202C
:103200007E490870B5E00420FFF7F0FEFFF7D8FA1A
:1032100020281CD176480168774840F82410FFF731
:10322000F7FE73490860084600688049884204D068
:103230006F4800687E49884206D16D4801686E4833
:103240000C3040F8241002E001206C49087090E036
:103250000420FFF7CBFEFFF7B3FA20281CD1644807
:103260000168654840F82410FFF7D2FE6049086005
:1032700008460068012802D00846006848B95C4842
:1032800001685D480C3040F8241005E067E06CE010
:1032900003E00120594908706BE00420FFF7A6FE07
:1032A000FFF78EFA202853D151480168524840F860
:1032B0002410FFF7ADFE4E490860084600685D49DE
:1032C00088423BD04A480068491C884236D048486A
:1032D0000068C91C884231D0454800685649884278
:1032E0002CD043480068491C884227D040480068D9
:1032F000C91C884222D03E480068504988421DD0EF
:103300003B480068491C884218D039480068C91CED
:10331000884213D036480068494988420ED0344864
:103320000068491C884209D031480068C91C88429D
:1033300004D02F4800684349884206D12C480168D0
:103340002D480C3040F8241002E001202B49087071
:103350000FE027480168284840F8241009E0244875
:103360000168254840F8241003E001202349087033
:1033700000BF00BF601CC4B2FFF722FA3A2802D196
:10338000032CFFF6FCAEFFF71BFA10BD10B50024AE
:1033900022E00420FFF72AFEFFF73AFE14490860F6
:1033A000084600682849401809D0A0F1B8500C38E8
:1033B0000BD10F480168104840F8241009E00C4870
:1033C00001680D4840F8241003E001200B49087003
:1033D00000BF00BF601CC4B2FFF7F2F93A2801D168
:1033E000032CD6DBFFF7ECF910BD000040420F00C4
:1033F00044000020AABEB3C0C40C0020400000203E
:10340000BAADAEC0F3FD01EF0000FDFB52495345DC
:1034100046414C4C53544F50BBBBB8BAF1EAF6FF8F
:1034200011110FF70D020AFFF3FDF2FC414E445F4C
:103430004F525F5F314B5F5F31304B5F3130304B0C
:10344000314D5F5F31304D5FB9BAABC070B500240C
:103450000CE10420FFF7CAFDFFF7DAFDFE49086022
:1034600008460068FD4A811A90426ED00DDCFC4986
:1034700040186BD0A0F5FD300A3868D0F9494018E3
:1034800010D0F94940187DD13BE0F84808187AD0AF
:10349000F74940185CD0F749401875D0F6494018F4
:1034A000F1D17DE00420FFF7A1FDFFF789F9202885
:1034B00026D1E9480168F14840F82410FFF7A8FD3B
:1034C000E549086008460068ED4988420ED0E248A8
:1034D0000068EC49884209D0DF480068EA49884220
:1034E00004D0DD480068E949884206D1DA4801681D
:1034F000E2480C3040F8241002E00120E449087052
:10350000B1E00420FFF772FDFFF75AF920281BD124
:10351000D1480168D94840F82410FFF779FDCE4919
:1035200008600846006885B2084600684FF6FF71DB
:1035300001EA104625B9D1480C3040F8246002E079
:103540000120D349087000BF8DE076E07BE080E089
:103550000420FFF74BFDFFF733F920281FD1BE48A9
:103560000168C64840F82410FFF752FDBA490860C8
:103570000846006885B2084600684FF6FF7101EA08
:10358000104602E06BE02FE051E025B9BB480C305B
:1035900040F8246002E00120BD49087000BF62E0ED
:1035A0000420FFF723FDFFF70BF920281BD1AA48C1
:1035B0000168B24840F82410FFF72AFDA6490860C8
:1035C0000846006885B2084600684FF6FF7101EAB8
:1035D000104625B9A9480C3040F8246002E00120CB
:1035E000AB49087000BF3EE00420FFF7FFFCFFF787
:1035F000E7F820281AD198480168A04840F824101C
:10360000FFF706FD9449086008460022531E016832
:10361000591A72EB020006DB8F48016897480C309C
:1036200040F8241002E00120994908701BE08A4804
:103630000168924840F8241015E0874801688F48D7
:1036400040F824100FE0844801688C4840F82410AA
:1036500009E081480168894840F8241003E001200E
:103660008B49087000BF00BF601CC4B2FFF7A8F808
:103670003A2802D1032CFFF6ECAEFFF7A1F870BD9B
:1036800070B5002494E10420FFF7B0FCFFF7C0FC04
:103690007149086008467F4A0168881A91427CD0C7
:1036A0000CDC7D48081879D07C49401811D07C4941
:1036B00040185CD07B49401871D16BE1A0F140709B
:1036C0000A3830D0784940186AD078494018F3D188
:1036D00059E10420FFF78AFCFFF772F8202821D176
:1036E0005D480168654840F82410FFF791FC5A498D
:1036F0000860084600686E49884209D0564800684C
:103700006C49884204D0544800686B49884206D10D
:103710005148016859480C3040F8241002E001205B
:103720005B49087041E10420FFF760FCFFF748F8AF
:1037300020281BD148480168504840F82410FFF762
:1037400067FC454908600846006885B2084600687D
:103750004FF6FF7101EA104625B948480C3040F891
:10376000246002E001204A49087000BF1DE10420E6
:10377000FFF73CFCFFF724F8202820D136480168E9
:103780003E4840F82410FFF743FC334908600846E0
:10379000006885B20846006803E036E010E000E10A
:1037A000CCE04FF6FF7101EA104625B933480C30E2
:1037B00040F8246002E001203549087000BFF4E0C1
:1037C0000420FFF713FCFEF7FBFF20281CD1224842
:1037D00001682A4840F82410FFF71AFC1E490860C7
:1037E000084600683549884204D01B4800683449BF
:1037F000884206D11848016820480C3040F824104F
:1038000002E0012022490870CFE00420FFF7EEFB20
:10381000FEF7D6FF20287DD10F480168174840F8F1
:103820002410FFF7F5FB0C4908600846006825499D
:10383000884279D008480068491C884274D00648FC
:103840000068C91C88426FD0034800681E4988423E
:103850006AD00148006839E04400002053544F50BA
:10386000BAADAEC0FCF202FA130C00F90D020AFF69
:10387000F70BFFFDFCF1F3FE0FFFFDFAC40C002077
:1038800053494E4553515245545249414152425475
:103890004000002046524551BBBBB8BAF1F1FDFDD6
:1038A000080DF3FAF9F006FC0C0DF5FFF1F0FDFF41
:1038B0004E4F524D4155544F53494E47524953452F
:1038C00046414C4C314B5F5F31304B5F491C884265
:1038D0002AD08D480068C91C884225D08A480068D3
:1038E0008A49884220D088480068491C88421BD0F9
:1038F00085480068C91C884216D0834800688449FE
:10390000884211D080480068491C88420CD07E480B
:10391000006801E011E007E0C91C884204D07A4841
:1039200000687C49884205D1774801687A4840F8A8
:10393000241002E001207949087036E00420FFF7E6
:1039400055FBFEF73DFF20281CD16F4801687248E7
:103950000C3840F82410FFF75BFB6B490860084601
:1039600000686F49884204D0674800686D49884202
:1039700005D165480168684840F8241002E001203C
:103980006649087011E06048016863480C3840F8E7
:1039900024100AE05C4801685F480C3840F82410A5
:1039A00003E001205D49087000BF00BF601CC4B285
:1039B000FEF706FF3A2802D1032CFFF664AEFEF7AD
:1039C000FFFE70BD00205449103908604860002196
:1039D000514810388160C16000204F49103908619A
:1039E00000214D48103841618161704710B504468F
:1039F00000204A490870FFF7E5FFFEF77EFE002829
:103A000070DD0420FFF7F2FAFFF702FB3E49086081
:103A100008460068444A811A90424ED00CDC434963
:103A2000401816D0424940182FD0424940181CD0A7
:103A30004149401851D112E04048081845D040494A
:103A4000401832D03F49401827D03F49401844D150
:103A500013E02D48006830491039086041E02A48D9
:103A600000682D49103908603BE0274800682A4962
:103A700010390860FFF704FE33E023480068264948
:103A800010390860FFF7E2FC2BE01F48006822496C
:103A900010390860FFF77AFC23E01B4800681E49D4
:103AA00010390860FFF768FB1BE0174800681A49E7
:103AB00010390860FFF70AFB13E013480068164945
:103AC00010390860FFF7DDFA0BE00F480068124973
:103AD00010390860FFF7B0FA03E001200F490870C1
:103AE00000BF00BF0D480078012806D117480A49D9
:103AF000103908600020094908701C220649103955
:103B0000204600F025F810BD440000203130304B35
:103B1000314D5F5F31304D5FD00C00204000002000
:103B20003038425F3136425F4D454153B7BBB1C07B
:103B300002F404F0F8FC05FF0A01F1FDF7F5F4FECC
:103B40001300FEFFF7FF06F5050AF9FF4552525232
:103B500010B5203AC0F00B80B1E81850203AA0E828
:103B60001850B1E81850A0E81850BFF4F5AF5FEA5C
:103B7000027C24BFB1E81850A0E8185044BF18C90F
:103B800018C0BDE810405FEA827C24BF51F8043BB6
:103B900040F8043B08BF7047D20728BF31F8023B0A
:103BA00048BF11F8012B28BF20F8023B48BF00F89E
:103BB000012B7047704770477047754600F028F832
:103BC000AE4605006946534620F00700854618B00A
:103BD00020B5FCF701FFBDE820404FF000064FF094
:103BE00000074FF000084FF0000B21F00701AC4632
:103BF000ACE8C009ACE8C009ACE8C009ACE8C00951
:103C00008D4670470446AFF300802046FCF7B7FAB4
:103C100000487047DC0C002000487047E00C002092
:103C200001491820ABBEFEE726000200704710B520
:103C3000FFF7F2FF4FF00001016010BD5C3C00088F
:103C4000000000204800000028010008A43C0008F3
:103C500048000020F80E00004401000800000000A9
:103C60000000000000000000000000000000000054
:103C70000000000000000000000000000000000044
:103C800001020304010203040607080902040608EE
:103C90000000000100000000000000000000000023
:043CA0000000000020
:04000005080009C125
:00000001FF
