:020000040800F2
:1000000060030020A90300088B0100088D0100088F
:100010009101000895010008990100080000000006
:100020000000000000000000000000009D0100082A
:100030009F01000800000000A1010008BD030008A6
:10004000BF030008BF030008BF030008BF03000888
:10005000BF030008BF030008BF030008BF03000878
:10006000BF030008BF030008BF030008BF03000868
:10007000BF030008BF030008BF030008BF03000858
:10008000BF030008BF030008BF030008BF03000848
:10009000BF030008BF030008BF030008BF03000838
:1000A000BF030008BF030008BF030008BF03000828
:1000B000BF030008BF030008BF030008BF03000818
:1000C000BF030008BF030008BF030008BF03000808
:1000D000BF030008FD020008BF030008BF030008BB
:1000E000BF030008BF030008BF03000800F002F8C8
:1000F00000F03CF80AA090E8000C82448344AAF186
:100100000107DA4501D100F031F8AFF2090EBAE883
:100110000F0013F0010F18BFFB1A43F0010318473B
:10012000F40C0000140D0000103A24BF78C878C108
:10013000FAD8520724BF30C830C144BF04680C60ED
:10014000704700000023002400250026103A28BF35
:1001500078C1FBD8520728BF30C148BF0B60704739
:100160001FB500F050FE1FBD10B510BD00F011FE10
:100170001146FFF7F5FF00F00FF900F02FFE03B472
:10018000FFF7F2FF03BC00F037FE704700BFFEE749
:1001900000BFFEE700BFFEE700BFFEE77047704705
:1001A0007047000070B505465D48406800685C49CE
:1001B0004968C98845545A484068C088401C84B280
:1001C000574840688088401EA04200DA0024544806
:1001D00040680089A04204D10320514949688872CF
:1001E00006E04F484068C48001204D494968887244
:1001F0004B484068807A032807D000F0D7FC1028CD
:1002000003DC022046494968887245484068807A84
:1002100070BD10B5044614222146414800F084FD0B
:100220004048806940F005003E4988613E483F49AA
:1002300008603C48806940F480403A4988613C4805
:10024000008842F22C01084339490880D020091F58
:1002500008803848006840F020004FF0E021C1F8E5
:10026000040110BD2E488068C0882D49896809891D
:1002700088420AD12E48008820F080002C4908804E
:10028000002027498968887270472548806800687F
:10029000234989680989405C254908390880204834
:1002A00080680089401C1E49896808811C48806854
:1002B00000893F2803DD0020194989680881184812
:1002C0008068008916498968C98888420AD1184817
:1002D000008820F0800016490880002010498968B5
:1002E000887205E01248008840F0800010490880BC
:1002F00000BFC9E700B5FFF7B5FF00BD10B50C485A
:100300000C38048814F0200F04D0011D0988C8B2ED
:10031000FFF748FF14F0800F01D0FFF7A3FF10BDD7
:100320001800002000100240B44444440408014076
:100330000C38014004E100E0704708B501211420A9
:1003400000F060FB4FF48070ADF8000010208DF8D5
:10035000030002208DF802006946114800F09EF863
:100360004FF40070ADF8000010208DF8030002205B
:100370008DF8020069460A4800F090F80120ADF8B7
:10038000000028208DF8030002208DF80200694645
:10039000044800F083F808BDFFF7CFFF00BFFEE779
:1003A000001001400008014008480047FEE7FEE752
:1003B000FEE7FEE7FEE7FEE7FEE7FEE7FEE7FEE715
:1003C00003480449024A044B70470000ED0000084E
:1003D00060010020600300206001002010B5044689
:1003E000CA48844208D10121042000F025FB0021E5
:1003F000042000F021FB46E0C548844208D10121D9
:10040000082000F019FB0021082000F015FB3AE05D
:10041000C048844208D10121102000F00DFB0021CA
:10042000102000F009FB2EE0BB48844208D10121D6
:10043000202000F001FB0021202000F0FDFA22E046
:10044000B648844208D10121402000F0F5FA00218D
:10045000402000F0F1FA16E0B148844208D10121B1
:10046000802000F0E9FA0021802000F0E5FA0AE09F
:10047000AC48844207D10121801500F0DDFA00214B
:10048000A01500F0D9FA10BD10B50121084600F002
:10049000D3FA0021012000F0CFFA10BD2DE9F04180
:1004A000024600250026002000230024002791F8A2
:1004B00003C00CF00F0591F803C01CF0100F03D01F
:1004C00091F802C04CEA0505B1F800C01CF0FF0F1E
:1004D00031D0146800202BE04FF0010C0CFA00F32F
:1004E000B1F800C00CEA03069E4220D183004FF011
:1004F0000F0C0CFA03F7BC4305FA03FC4CEA0404A6
:1005000091F803C0BCF1280F06D14FF0010C0CFA92
:1005100000FCC2F814C00AE091F803C0BCF1480F17
:1005200005D14FF0010C0CFA00FCC2F810C0401CC1
:100530000828D1D31460B1F800C0BCF1FF0F34DD3E
:10054000546800202EE000F1080C4FF0010808FA72
:100550000CF3B1F800C00CEA03069E4221D18300DF
:100560004FF00F0C0CFA03F7BC4305FA03FC4CEAFE
:10057000040491F803C0BCF1280F05D100F1080C68
:1005800008FA0CF8C2F8148091F803C0BCF1480FC7
:1005900007D100F1080C4FF0010808FA0CF8C2F876
:1005A0001080401C0828CED35460BDE8F0814FF67F
:1005B000FF710180022181700421C17070470246E1
:1005C000002093680B4201D0012000E0002070471A
:1005D0000146886880B2704702460020D3680B420B
:1005E00001D0012000E0002070470146C86880B2B9
:1005F000704701617047416170470AB1016100E0D5
:1006000041617047C16070474FF480320A43826194
:100610008161826182698269704702460020424B93
:1006200018684FF68073184040EA021008433E4BAA
:10063000186070473D49C8617047F0B50A4600230D
:1006400000240021002500F00046B6F1004F02D141
:10065000354EF16901E0344E7168C0F3034583B251
:1006600000F44016B6F5401F08D121F070612E4EFF
:10067000766826F070662C4F7E6012E000F48016DB
:10068000B6F5801F06D1032606FA05F4A14341F012
:10069000706106E0460D360103FA06F6B14341F0FB
:1006A000706122B1460D360103FA06F6314300F0BF
:1006B0000046B6F1004F02D11B4EF16101E01A4E27
:1006C0007160F0BD30B500228B071C0F0F2303FAB9
:1006D00004F2154B08338C1053F824309343124C1A
:1006E00008348D1044F8253023468C1053F82430FC
:1006F0008C07240F00FA04F423430B4C08348D10AC
:1007000044F8253030BD0A490860704700080140B0
:10071000000C01400010014000140140001801408D
:10072000001C014000200140000001400000204268
:10073000DC002042DC48006840F00100DA49086033
:1007400008464068D9490840D749486008460068CB
:10075000D7490840D44908600846006820F4802042
:1007600008600846406820F4FE0048604FF41F000F
:1007700088607047CC49096821F48031CA4A116009
:100780001146096821F480211160B0F5803F03D043
:10079000B0F5802F0ED106E0C349096841F48031DD
:1007A000C14A116007E0C049096841F4A021BE4A6E
:1007B000116000E000BF00BF704710B50146002285
:1007C000002300204A11012A02D1B74C236806E019
:1007D000022A02D1B44C236A01E0B34C636A01F0EF
:1007E0001F02012494401C4201D0012000E000209F
:1007F00010BD70B500240025002600BF3120FFF792
:10080000DCFF0646641CB4F5A06F01D0002EF5D0C5
:100810003120FFF7D2FF08B1012500E0002528466E
:1008200070BD01460020A04A106820F0F80040EAA0
:10083000C100106070479F49086070470246002061
:10084000994B586820F47C1042EA01031843964BF8
:100850005860704797490866704701460020924AE1
:10086000506820F003000843506070478E4840688D
:1008700000F00C007047014600208B4A506820F0C1
:10088000F00008435060704701460020864A5068D7
:1008900020F4E06008435060704701460020824A1F
:1008A000506820F4605040EAC1005060704729B1A0
:1008B0007D4A527A02437C4B5A7206E07A4A527A57
:1008C000C343DBB21A40784B5A7270477A490860CA
:1008D000704701460020744A506820F440400843A5
:1008E000506070470021754A11706F4A82F82010DD
:1008F000012802D0042808D103E001216F4A1170B9
:1009000004E005216D4A117000E000BF00BF704790
:100910006B49086070476449096A0143624A116281
:100920007047674944390860704730B5002100229C
:10093000002400235C4D6D6805F00C0121B10429F1
:1009400005D0082923D105E05E4D056022E05D4D0C
:1009500005601FE0544D6D6805F47012524D6D68CE
:1009600005F48034022505EB92421CB9564D5543DF
:1009700005600BE04C4D6D6815F4003F03D0524DFF
:100980005543056002E04F4D5543056002E04D4D73
:10099000056000BF00BF444D6D6805F0F001090916
:1009A0004A4D6B5C0568DD4045603F4D6D6805F460
:1009B000E061090A454D6B5C4568DD4085603A4D54
:1009C0006D6805F46051C90A404D6B5C4568DD40B7
:1009D000C560354D6D6805F44041890B3C4D6B5C3D
:1009E000C568B5FBF3F5056130BD29B12E4A5269E2
:1009F00002432D4B5A6104E02B4A526982432A4B31
:100A00005A61704729B1284A92690243264B9A617C
:100A100004E0254A92698243234B9A61704729B1C9
:100A2000214AD2690243204BDA6104E01E4AD269AE
:100A300082431D4BDA61704729B11B4AD2680243D9
:100A4000194BDA6004E0184AD2688243164BDA6028
:100A5000704729B1144A12690243134B1A6104E02A
:100A6000114A12698243104B1A6170471449403988
:100A7000086070470F49C86470470B49C8717047D8
:100A80000948406A40F08070074948627047014653
:100A90000020054A92680A4201D0012000E00020AF
:100AA0007047014988727047001002400000FFF84B
:100AB000FFFFF6FE00004242D800424220100240F2
:100AC0008004424200127A0000093D00000000202C
:100AD00010000020704710B504468B482178017043
:100AE00040208A4988808A4808600020C8800881A0
:100AF0008872402087498880874808600020C88025
:100B00000881887280480078012804D0022806D124
:100B10008249087007E001208049087003E0002046
:100B20007E49087000BF00BF7A487C49486077481A
:100B30008860AFF25F00C8600846FFF76AFB10BD2F
:100B40007448807A704771490989704AD288914205
:100B500006DD6E4909896D4AD288891A88B208E093
:100B60006A498988694AD288891A684A128911446F
:100B700088B2704700B56548C088644909898842D1
:100B800003D100206149887202E001205F49887228
:100B90005E48807A032806D0FFF7D5FF102802DCD4
:100BA00002205A4988725948807A00BD59490989FA
:100BB000584AD288914206DD56490989554AD28859
:100BC000891A88B208E053498988524AD288891A1A
:100BD000504A1289114488B2704700B5FFF7E6FF0A
:100BE000C0F1400080B200BD4D480078704710B59C
:100BF00004464648C08846490C544448C088401CB6
:100C000083B242488088401E984200DA00233F4861
:100C10000089984203D103203C49887204E03B4894
:100C2000C3800120394988723848807A032806D069
:100C3000FFF789FF102802DC02203449887233480C
:100C4000807A10BD10B504462046FFF7D0FF10BDD6
:100C500070B5044604E02078FFF7C9FF0546641C20
:100C600020780028F7D1FFF745FB284670BD70B506
:100C700004460D46FFF767FFA8420DDB002605E09E
:100C80002078FFF7B4FF641C701C86B2AE42F7DB1D
:100C9000FFF730FB002070BD4FF0FF30FBE71D4930
:100CA000C9881C4A1289914202D14FF0FF3008E0F6
:100CB00018490989184A505C16490989491C154A7E
:100CC000118114490989134A9288914202DB00215B
:100CD000104A1181704770B504460E46002509E0A0
:100CE000FFF7DDFF0346B3F1FF3F03D02370641C21
:100CF000681C85B2B3F1FF3F01D0B542F0DB28B2EA
:100D000070BD084870470000140000202C0000202F
:100D10008000002038000020C00000206C0000206F
:100D2000150000204400002010B5203AC0F00B80D0
:100D3000B1E81850203AA0E81850B1E81850A0E8DF
:100D40001850BFF4F5AF5FEA027C24BFB1E8185039
:100D5000A0E8185044BF18C918C0BDE810405FEAA9
:100D6000827C24BF51F8043B40F8043B08BF704725
:100D7000D20728BF31F8023B48BF11F8012B28BF2A
:100D800020F8023B48BF00F8012B704770477047BE
:100D90007047754600F028F8AE4605006946534690
:100DA00020F00700854618B020B5FFF709FBBDE825
:100DB00020404FF000064FF000074FF000084FF0C2
:100DC000000B21F00701AC46ACE8C009ACE8C00953
:100DD000ACE8C009ACE8C0098D4670470446AFF3E3
:100DE00000802046FFF7CBF9004870470001002043
:100DF000004870470401002001491820ABBEFEE7FF
:100E000026000200704710B5FFF7F2FF4FF0000117
:100E1000016010BD340E0008000000201800000022
:100E2000280100084C0E00081800002048030000AC
:100E30004401000800000000010203040102030451
:0C0E400006070809020406080000000074
:04000005080003A943
:00000001FF
