:020000040800F2
:1000000060130020E90B00084507000847070008B7
:100010004B0700084F0700085307000800000000C6
:10002000000000000000000000000000570700086A
:1000300059070008000000005B0700089B0A000841
:10004000FF0B0008FF0B0008FF0B0008FF0B000868
:10005000FF0B0008FF0B0008FF0B0008FF0B000858
:10006000FF0B0008FF0B0008FF0B0008FF0B000848
:10007000FF0B0008FF0B0008FF0B0008FF0B000838
:10008000FF0B0008FF0B0008ED010008FF0B000844
:10009000FF0B0008FF0B0008FF0B0008FF0B000818
:1000A000FF0B0008FF0B0008FF0B0008FF0B000808
:1000B000FF0B0008FF0B0008FF0B0008FF0B0008F8
:1000C000FF0B0008FF0B0008FF0B0008FF0B0008E8
:1000D000FF0B0008FF0B000807090008FF0B0008D2
:1000E000FF0B0008FF0B0008FF0B000800F002F8F0
:1000F00000F03CF80AA090E8000C82448344AAF186
:100100000107DA4501D100F031F8AFF2090EBAE883
:100110000F0013F0010F18BFFB1A43F0010318473B
:100120007851000098510000103A24BF78C878C177
:10013000FAD8520724BF30C830C144BF04680C60ED
:10014000704700000023002400250026103A28BF35
:1001500078C1FBD8520728BF30C148BF0B60704739
:100160001FB505F016F81FBD10B510BD04F02BFA31
:100170001146FFF7F5FF00F0DDFB04F049FA03B488
:10018000FFF7F2FF03BC04F051FA00000021002247
:1001900005E0DA4830F811000244481C81B2D84822
:1001A00000888142F5DBD6480088B2FBF0F080B2CF
:1001B00070470120D349087070470020D14908706A
:1001C00070477047CF4800787047CF480088704725
:1001D00001464FF0FF30CA4A1288914202DACB4AF8
:1001E000118000207047CA480078704710B5C54894
:1001F0000078052822D2DFE800F02403222325001E
:10020000C4480068C4490880C4480088BC490988BB
:10021000884202D10020C1490880BF480188BF48F8
:1002200002880088401CBD4B1880B44820F812108A
:10023000B9480088BA490968884704E000BF00BF90
:1002400000BF00BF00BF00BF6FF00200B1494C39D2
:100250000860B448006840F480204FF0E021C1F805
:10026000800210BD00B585B0684601F074FBDDE981
:100270000101884202D1029805B000BD02984000F9
:10028000FAE72DE9F04188B007460121042001F08A
:10029000DCFBA54801F034FC05A801F097FFFFF74F
:1002A000E1FF3968B0FBF1F414B908B0BDE8F081A2
:1002B000B4F5803F03DA0025601E86B23AE04FF0C5
:1002C000FF3294464FF6FF7894FBF8F81FFA88F057
:1002D00019E000F101081FFA88F094FBF0F81FFA0A
:1002E00088F101FB1042624501D294460346A0F515
:1002F0007F48B8F1FF0806D1B4FBF3F81FFA88F184
:1003000098B2002201E0002AE3D100BF884208DD54
:10031000A1F101081FFA88F5A0F101081FFA88F67B
:1003200007E0A0F101081FFA88F5A1F101081FFA02
:1003300088F600BFADF81450ADF8186005A97A48EA
:1003400001F0B2FC0121784802F068F801A801F040
:1003500046FF6020ADF804000120ADF80600ADF8BE
:100360000A000220ADF80C0001A96F4801F0ABFDB6
:1003700001216D4801F04FFF00BF96E708B501214C
:100380004FF4047001F054FB2020ADF80000002071
:100390008DF803006946654801F096F808BD30B550
:1003A0008BB0054600205D4908800820544908802C
:1003B0005B496868086001214FF4047001F038FB64
:1003C00001A801F0C8FA05982968B0FBF1F451487A
:1003D0004C3800F023FC06A800F06AFC4FF4202003
:1003E000089001208DF8280006A94A484C3800F0F2
:1003F0003CFC012147484C3800F02BFD01214548C9
:100400004C3800F05EFCEF2C07DD072301220F21A2
:1004100040484C3800F0C1FC42E0472C07DD062381
:1004200001220F213B484C3800F0B7FC38E0372C54
:1004300007DD052301220F2136484C3800F0ADFCC2
:100440002EE0292C07DD042301220F2131484C38EE
:1004500000F0A3FC24E01C2C07DD032301220F2164
:100460002C484C3800F099FC1AE00D2C07DD0223D3
:1004700001220F2127484C3800F08FFC10E0072C98
:1004800007DD01231A460F2122484C3800F085FC75
:1004900006E0002301220F211E484C3800F07DFCAD
:1004A0001C484C3800F02FFC00BF1A484C3800F0B4
:1004B0002FFC0028F9D117484C3800F033FC00BF5E
:1004C00014484C3800F033FC0028F9D101211148C0
:1004D0004C3800F0F6FB01224FF408710D484C38FF
:1004E00000F005FC2846FFF7CCFEFFF747FF04218C
:1004F000122000F04DFA0BB030BD00006C0000205F
:10050000120000200C000020020000200400002047
:10051000000000204C2401400E00002010000020AC
:100520000800002080E200E00008004000100140C8
:1005300000B585B0684601F00EFADDE90101884298
:1005400002D1029805B000BD02984000FAE72DE9FB
:10055000F04194B005467549A86808800121084615
:1005600001F059FA0121480701F06FFA0121042036
:1005700001F05EFA1020ADF84C0000208DF84F001D
:1005800013A96B4800F0A0FF0121084601F05DFAB5
:1005900010A801F01BFEFFF7CBFF2968B0FBF1F4B8
:1005A00014B914B0BDE8F081B4F5803F03DA002639
:1005B000601E87B23AE04FF0FF3294464FF6FF7864
:1005C00094FBF8F81FFA88F019E000F101081FFA0F
:1005D00088F094FBF0F81FFA88F101FB10426245A5
:1005E00001D294460346A0F57F48B8F1FF0806D132
:1005F000B4FBF3F81FFA88F198B2002201E0002A58
:10060000E3D100BF884208DDA1F101081FFA88F696
:10061000A0F101081FFA88F707E0A0F101081FFA0E
:1006200088F6A1F101081FFA88F700BFADF8406015
:10063000ADF844700020ADF84600ADF8420010A9B6
:100640004FF0804001F030FB2021480602F04DF8C9
:100650000121880701F0DFFD00F0FEFC24200C9052
:1006600000200F90334800F0ABFD334801906868DC
:10067000029010200390A86804900020059080202C
:10068000069040000790800008902020099000020A
:100690000A9000200B9001A9264800F032FE0121AB
:1006A000244800F059FE0CA9002000F0E0FC0121D4
:1006B000002000F0F9FC00202049087000BF70E71E
:1006C00010B5044600224FF48071880501F0D1FD79
:1006D0001948046001201949087010BD10B50122A5
:1006E0001102880501F0C5FD02201449087010BDF3
:1006F00010B500224FF48071880501F0BAFD00208A
:100700000E49087010BD0D48007870470C480088ED
:10071000704701464FF0FF30044A1288914202DAD6
:10072000074A118000207047704700001800002021
:10073000000801401C000240087400401500002021
:1007400016000020704700BFFEE700BFFEE700BFB5
:10075000FEE700BFFEE770477047704770B505467B
:1007600071484068006870494968C98845546E48B6
:100770004068C088401C84B26B4840688088401E36
:10078000A04200DA0024684840680089A04204D1F1
:10079000032065494968887206E063484068C48060
:1007A00001206149496888725F484068807A03285F
:1007B00008D002F077FAB0F5807F03DC02205A49B6
:1007C0004968887258484068807A70BD08B5012130
:1007D000042001F02DF90420ADF8000018208DF858
:1007E000030002208DF802006946504800F06CFEBC
:1007F0000820ADF8000004208DF8030069464B483E
:1008000000F062FE08BD1FB504461422214646488A
:1008100003F0A4FE684602F079F8206800900121F8
:10082000480401F012F9424801F0C4FF694640480B
:1008300002F003F8012240F225513D4802F095F8FC
:100840000221262000F0A4F8FFF7C0FF012138485C
:1008500002F07FF81FBD34488068C088324989683B
:10086000098988420CD132480C30008820F0800081
:100870002F490C31088000202B4989688872704705
:100880002B48008810F0800F37D027488068006818
:10089000254989680989405C2549091D0880224845
:1008A00080680089401C2049896808811E4880684A
:1008B0000089B0F5806F03DB00201B49896808813F
:1008C00019488068008918498968C98888420CD10C
:1008D00017480C30008820F0800015490C31088042
:1008E000002011498968887207E011480C3000889F
:1008F00040F080000E490C31088000BFBFE700B512
:10090000FFF7A9FF00BD10B50948048814F0200FB7
:1009100004D0011D0988C8B2FFF720FF14F0800F32
:1009200001D0FFF798FF10BD7C00002000080140B7
:100930000044004000F02CF900F0A3F811490860D1
:1009400000F09FF8104908601BE00E48006800F0B6
:100950009BF838B10B4800680C4908440949086005
:1009600002F067FF0848006800F08EF848B10648BA
:10097000006800F57A700449086002F099FDFFF7FD
:10098000BEFFE2E71C00002020000020A08601003E
:1009900030B50A460346C51700EBD565691120231B
:1009A00003FB1103DCB213071D0E1D4B1D544FF04A
:1009B000E02303EB8103D3F800310125A5402B434D
:1009C0004FF0E02505EB8105C5F8003130BD10B5CD
:1009D0000246C41700EBD4646111202202FB11020D
:1009E000D3B2104A52F8214001229A4022430D4CC2
:1009F00044F8212010BD10B50246C41700EBD464A2
:100A00006111202202FB1102D3B2074A52F82140A1
:100A100001229A402243044C44F8212010BD0000DA
:100A200000E400E080E100E080E200E000B585B095
:100A3000684600F090FF4FF0E020006940F00600AB
:100A40004FF0E021086146F2A8110198B0FBF1F0E7
:100A5000401E4FF0E02148610846006940F0010067
:100A6000086105B000BD00BF0F4909688842FBD886
:100A7000704700B502460C4909688818FFF7F3FF74
:100A800000BD094800687047014607480068884271
:100A900001D9012070470020FCE703480068283096
:100AA00001490860704700002400002010B500F0E4
:100AB00057FEFFF7BBFF4FF4803000F071FE00F0EF
:100AC000AEFE012801D000BFFEE74FF48021881060
:100AD00000F0CAFE012000F0D3FE4FF4FA70FFF7D9
:100AE000C8FF392000F07FFE012801D000BFFEE7DB
:100AF000022000F0C8FE4FF4FA70FFF7BAFF00F0D2
:100B0000CBFE0221B1EBA00F01D000BFFEE7002019
:100B100000F0C7FE002000F0CDFE002000F0D3FE64
:100B200010BD000008B50121142000F081FF4FF432
:100B30008070ADF8000010208DF8030002208DF8C1
:100B400002006946224800F0BFFC4FF40070ADF887
:100B5000000010208DF8030002208DF80200694685
:100B60001B4800F0B1FC0120ADF8000028208DF8F2
:100B7000030002208DF802006946164800F0A4FC2C
:100B800008BD08B501200090684602F01AF808BDBB
:100B900010B5FFF78BFFFFF7C5FFFFF747FFFFF724
:100BA000F0FF0D4802F066F90C48FFF762FF0C48B1
:100BB0000C49086000200872012048724FF4106050
:100BC0004881084602F04DFC642002F023FC10BD71
:100BD00000100140000801404C00002040420F007E
:100BE00070110100C00C002008480047FEE7FEE736
:100BF000FEE7FEE7FEE7FEE7FEE7FEE7FEE7FEE7CD
:100C000003480449024A044B70470000ED00000805
:100C100060110020601300206011002010B5044610
:100C2000F948844208D10121401500F01BFF002142
:100C3000601500F017FF17E0F448844208D1012145
:100C4000001500F00FFF0021201500F00BFF0BE056
:100C5000EF48844208D10121C80300F003FF0021BE
:100C60004FF4004000F0FEFE10BD30B502460020FB
:100C700000235068E74C20400D790C6844EA0524B5
:100C8000204350609068E44C2040D1E902542C434A
:100C90004D7944EA450420439060D06A20F4700006
:100CA0000C7C641EE4B2234340EA0350D06230BDA2
:100CB00000210160017141718160C16001210174F5
:100CC000704721B1826842F00102826003E08268CD
:100CD00022F001028260704721B1826842F4807282
:100CE000826003E0826822F480728260704710B5EF
:100CF0000023CBB21AB144681C43446002E044684C
:100D00009C43446010BD816841F0080181607047D8
:100D1000014600208A6812F0080F01D0012000E08F
:100D200000207047816841F00401816070470146EE
:100D300000208A6812F0040F01D0012000E000209A
:100D4000704721B1826842F4A002826003E08268A9
:100D500022F4A00282607047014600208A6812F4E3
:100D6000800F01D0012000E00020704710B50A4636
:100D700000210023416821F46041531E41EA4331C0
:100D8000416010BD21B1426842F40062426003E05C
:100D9000426822F4006242607047F0B504460D4696
:100DA00000200021092D11DDE068A5F10A0606EBFF
:100DB0004607072606FA07F18843A5F10A0606EB5F
:100DC000460603FA06F10843E0600CE0206905EBF3
:100DD0004507072606FA07F1884305EB450603FA9F
:100DE00006F108432061072A0FDA606B561E06EBF6
:100DF00086071F2606FA07F18843561E06EB86066D
:100E000005FA06F10843606322E00D2A0FDA206B31
:100E1000D61F06EB86071F2606FA07F18843D61F62
:100E200006EB860605FA06F10843206310E0E06A47
:100E3000A2F10D0606EB86071F2606FA07F1884386
:100E4000A2F10D0606EB860605FA06F10843E062FC
:100E5000F0BD21B1826842F48012826003E08268B2
:100E600022F48012826070470146C86C80B27047DD
:100E700065484C300068704721B1426842F4806296
:100E8000426003E0426822F480624260704721B110
:100E9000426842F48052426003E0426822F4805289
:100EA000426070470A460021816821F4E041114305
:100EB0008160704721B1826842F40042826003E0A1
:100EC000826822F400428260704721B1826842F455
:100ED0000212826003E0826822F40212826070478C
:100EE000014600208A6812F4001F01D0012000E0B2
:100EF00000207047F0B50446154600200022002669
:100F0000092911DDE068A1F10A0707EB470C072763
:100F100007FA0CF29043A1F10A0707EB470703FA1F
:100F200007F21043E0600CE0206901EB410C072759
:100F300007FA0CF2904301EB410703FA07F2104362
:100F40002061A06BC0F30156EF1C06F1010CA7EB6A
:100F50000C0707EB870C1F2707FA0CF29043EF1CD6
:100F600006F1010CA7EB0C0707EB870701FA07F264
:100F70001043A063F0BD10B50A4600210023816B29
:100F800021F44011531E41EA0351816310BD10B595
:100F9000002303460B441A6010BD0246002313468B
:100FA00001F128000344186880B270470A46002106
:100FB00041681A4B19401143416070474162826297
:100FC00070470A460021416821F01F01114341602A
:100FD000704740B10C490831096841F400010A4AE0
:100FE0000832116007E008490831096821F400015E
:100FF000054A0832116070470246002013680B4210
:101000000ED001200DE00000002401400028014026
:10101000003C0140FFFEF0FFFDF7F1FFFFFD3FFF49
:1010200000207047CA430260704770B50246002036
:10103000002300240B125568CEB205EA0604156899
:101040001D4202D00CB1012000E0002070BD002242
:101050000A12D3430360704710B50121480700F01E
:101060000EFD00214FF0005000F009FD10BD30B51D
:1010700000220023514C226840F6FE748440A243B3
:10108000D1E900452C438D682C43CD6844EA050323
:1010900003FA00F42243494C226030BD0021016074
:1010A00041608160C160704739B1444A12680123D0
:1010B00083401A43414B1A6006E0404A12680123FC
:1010C00083409A433D4B1A60704741B13B4A1268D6
:1010D0004FF4805383401A43384B1A6007E0374A75
:1010E00012684FF4805383409A43344B1A60704720
:1010F00010B551B1314A121D126804090123A340F1
:101100001A432E4B1B1D1A6009E02C4A121D12684F
:1011100004090123A3409A43284B1B1D1A6010BDEC
:1011200040B12649091D096841F00301234A121DF7
:10113000116007E02149091D096821F003011F4AD8
:10114000121D1160704710B53AB11C4B1B6801FAB3
:1011500000F42343194C236006E0184B1B6801FA86
:1011600000F4A343154C236010BD0022134A00F184
:1011700008031A44116070470022104A00F114035A
:101180001A441160704730B500240023082802D1AA
:1011900042EA012401E042EA0144084B00F1200543
:1011A0002B441C6030BD01460022044A2C2000EB79
:1011B00091000244106880B2704700000074004043
:1011C000016821F00101016000210160416081603E
:1011D000C1608B49884208D189490839496841F082
:1011E0000F01874A083A51608AE0854914318842E4
:1011F00008D183490839496841F0F001804A083A2A
:1012000051607DE07E492831884208D17C49083907
:10121000496841F470617A4A083A516070E078494F
:101220003C31884208D176490839496841F4704117
:10123000734A083A516063E071495031884208D1DD
:101240006F490839496841F470216D4A083A516084
:1012500056E06B496431884208D1694908394968C8
:1012600041F47001664A083A516049E064497831B6
:10127000884208D162490839496841F07061604A82
:10128000083A51603CE05F49884206D1011F096875
:1012900041F00F01021F116032E05A4914318842B7
:1012A00008D15849091F096841F0F001554A121F39
:1012B000116025E053492831884208D15149091F5E
:1012C000096841F470614F4A121F116018E04D49DE
:1012D0003C31884208D14B49091F096841F47041EB
:1012E000484A121F11600BE046495031884207D12D
:1012F0004449091F096841F47021424A121F1160D4
:10130000704710B50022026847F6F0739A430C6AE2
:101310008B6823430C6923434C6923438C69234323
:10132000CC6923434C6A23438C6A23431A430260EB
:10133000CB6843600B6883604B68C36010BD0021BD
:10134000016041608160C160016141618161C16191
:10135000016241628162704721B1026842F001027C
:10136000026003E0026822F00102026070471AB1D5
:1013700003680B43036002E003688B43036070471C
:101380000146486880B2704701460020002211F0F3
:10139000805F03D01B4B083B1A6802E0184B083BE8
:1013A0001A680A4201D0012000E00020704710F0C6
:1013B000805F03D01349091F086002E01049083913
:1013C0004860704701460020002211F0805F03D082
:1013D0000C4B083B1A6802E0094B083B1A680A42AA
:1013E00001D0012000E00020704710F0805F03D0A2
:1013F0000449091F086002E0014908394860704744
:10140000080002400804024010B50446CA4884425D
:1014100008D10121042000F025FB0021042000F068
:1014200021FB46E0C548844208D10121082000F094
:1014300019FB0021082000F015FB3AE0C048844267
:1014400008D10121102000F00DFB0021102000F038
:1014500009FB2EE0BB48844208D10121202000F086
:1014600001FB0021202000F0FDFA22E0B648844272
:1014700008D10121402000F0F5FA0021402000F0C1
:10148000F1FA16E0B148844208D10121802000F031
:10149000E9FA0021802000F0E5FA0AE0AC48844235
:1014A00007D10121801500F0DDFA0021A01500F020
:1014B000D9FA10BD10B50121084600F0D3FA002179
:1014C000012000F0CFFA10BD2DE9F04102460025C1
:1014D0000026002000230024002791F803C00CF010
:1014E0000F0591F803C01CF0100F03D091F802C053
:1014F0004CEA0505B1F800C01CF0FF0F31D01468AC
:1015000000202BE04FF0010C0CFA00F3B1F800C002
:101510000CEA03069E4220D183004FF00F0C0CFA18
:1015200003F7BC4305FA03FC4CEA040491F803C03A
:10153000BCF1280F06D14FF0010C0CFA00FCC2F8E8
:1015400014C00AE091F803C0BCF1480F05D14FF078
:10155000010C0CFA00FCC2F810C0401C0828D1D3C2
:101560001460B1F800C0BCF1FF0F34DD54680020F6
:101570002EE000F1080C4FF0010808FA0CF3B1F866
:1015800000C00CEA03069E4221D183004FF00F0CED
:101590000CFA03F7BC4305FA03FC4CEA040491F887
:1015A00003C0BCF1280F05D100F1080C08FA0CF8B3
:1015B000C2F8148091F803C0BCF1480F07D100F1C4
:1015C000080C4FF0010808FA0CF8C2F81080401C13
:1015D0000828CED35460BDE8F0814FF6FF7101803A
:1015E000022181700421C170704702460020936877
:1015F0000B4201D0012000E00020704701468868BE
:1016000080B2704702460020D3680B4201D001200F
:1016100000E0002070470146C86880B27047016151
:101620007047416170470AB1016100E04161704754
:10163000C16070474FF480320A43826181618261E8
:1016400082698269704702460020424B18684FF653
:101650008073184040EA021008433E4B1860704700
:101660003D49C8617047F0B50A46002300240021B7
:10167000002500F00046B6F1004F02D1354EF16969
:1016800001E0344E7168C0F3034583B200F44016A4
:10169000B6F5401F08D121F070612E4E766826F015
:1016A00070662C4F7E6012E000F48016B6F5801F45
:1016B00006D1032606FA05F4A14341F0706106E065
:1016C000460D360103FA06F6B14341F0706122B1CE
:1016D000460D360103FA06F6314300F00046B6F136
:1016E000004F02D11B4EF16101E01A4E7160F0BD56
:1016F00030B500228B071C0F0F2303FA04F2154BA1
:1017000008338C1053F824309343124C08348D1056
:1017100044F8253023468C1053F824308C07240FCE
:1017200000FA04F423430B4C08348D1044F82530A0
:1017300030BD0A490860704700080140000C0140B4
:10174000001001400014014000180140001C01403D
:10175000002001400000014000002042DC00204247
:10176000DC48006840F00100DA490860084640683B
:10177000D9490840D749486008460068D749084019
:10178000D44908600846006820F4802008600846B4
:10179000406820F4FE0048604FF41F0088607047E6
:1017A000CC49096821F48031CA4A116011460968A0
:1017B00021F480211160B0F5803F03D0B0F5802F77
:1017C0000ED106E0C349096841F48031C14A116075
:1017D00007E0C049096841F4A021BE4A116000E059
:1017E00000BF00BF704710B5014600220023002053
:1017F0004A11012A02D1B74C236806E0022A02D11D
:10180000B44C236A01E0B34C636A01F01F02012467
:1018100094401C4201D0012000E0002010BD70B5B2
:1018200000240025002600BF3120FFF7DCFF06461C
:10183000641CB4F5A06F01D0002EF5D03120FFF765
:10184000D2FF08B1012500E00025284670BD014601
:101850000020A04A106820F0F80040EAC1001060A3
:1018600070479F490860704702460020994B5868AE
:1018700020F47C1042EA01031843964B58607047ED
:1018800097490866704701460020924A506820F048
:1018900003000843506070478E48406800F00C0019
:1018A0007047014600208B4A506820F0F000084342
:1018B0005060704701460020864A506820F4E0607E
:1018C00008435060704701460020824A506820F467
:1018D000605040EAC1005060704729B17D4A527A99
:1018E00002437C4B5A7206E07A4A527AC343DBB217
:1018F0001A40784B5A7270477A490860704701461F
:101900000020744A506820F44040084350607047FB
:101910000021754A11706F4A82F82010012802D008
:10192000042808D103E001216F4A117004E0052169
:101930006D4A117000E000BF00BF70476B4908603E
:1019400070476449096A0143624A116270476749F6
:1019500044390860704730B500210022002400237C
:101960005C4D6D6805F00C0121B1042905D00829F2
:1019700023D105E05E4D056022E05D4D05601FE06E
:10198000544D6D6805F47012524D6D6805F4803445
:10199000022505EB92421CB9564D554305600BE0FC
:1019A0004C4D6D6815F4003F03D0524D5543056012
:1019B00002E04F4D5543056002E04D4D056000BF0C
:1019C00000BF444D6D6805F0F00109094A4D6B5C9C
:1019D0000568DD4045603F4D6D6805F4E061090A2A
:1019E000454D6B5C4568DD4085603A4D6D6805F49A
:1019F0006051C90A404D6B5C4568DD40C560354D9E
:101A00006D6805F44041890B3C4D6B5CC568B5FBC6
:101A1000F3F5056130BD29B12E4A526902432D4BC1
:101A20005A6104E02B4A526982432A4B5A6170473B
:101A300029B1284A92690243264B9A6104E0254A5B
:101A400092698243234B9A61704729B1214AD26936
:101A50000243204BDA6104E01E4AD26982431D4BE7
:101A6000DA61704729B11B4AD2680243194BDA6028
:101A700004E0184AD2688243164BDA60704729B1F5
:101A8000144A12690243134B1A6104E0114A1269A5
:101A90008243104B1A6170471449403908607047FF
:101AA0000F49C86470470B49C87170470948406ABC
:101AB00040F0807007494862704701460020054A9F
:101AC00092680A4201D0012000E0002070470149DD
:101AD00088727047001002400000FFF8FFFFF6FE1A
:101AE00000004242D800424220100240800442429C
:101AF00000127A0000093D00280000203800002074
:101B000010B50446FE48844208D10121C014FFF7F5
:101B1000A9FF0021E014FFF7A5FFC4E0B4F1804F56
:101B200008D101210846FFF7AAFF00210120FFF795
:101B3000A6FFB8E0F348844208D101210220FFF754
:101B40009EFF00210220FFF79AFFACE0EE4884429E
:101B500008D101210420FFF792FF00210420FFF7A4
:101B60008EFFA0E0E948844208D101210820FFF758
:101B700086FF00210820FFF782FF94E0E4488442BA
:101B800008D101211020FFF77AFF00211020FFF774
:101B900076FF88E0DF48844208D101212020FFF74A
:101BA0006EFF00212020FFF76AFF7CE0DA488442C4
:101BB00008D101214014FFF755FF00216014FFF701
:101BC00051FF70E0D548844209D10121C804FFF7D4
:101BD00049FF00214FF40020FFF744FF63E0D048A5
:101BE000844209D101210805FFF73CFF00214FF491
:101BF0008010FFF737FF56E0CA48844209D101211F
:101C00004805FFF72FFF00214FF40010FFF72AFFD0
:101C100049E0C548844208D101214020FFF72FFF49
:101C200000214020FFF72BFF3DE0C048844208D14F
:101C300001218020FFF723FF00218020FFF71FFFF5
:101C400031E0BB48844208D101218015FFF717FF1E
:101C50000021A015FFF713FF25E0B648844209D103
:101C600001210804FFF7FEFE00214FF48030FFF74A
:101C7000F9FE18E0B048844209D101214804FFF779
:101C8000F1FE00214FF40030FFF7ECFE0BE0AB4813
:101C9000844208D101218804FFF7E4FE00214FF4BB
:101CA0008020FFF7DFFE10BD00220288944B98428F
:101CB0000ED0994B98420BD0B0F1804F08D0914B89
:101CC000984205D0904B984202D0904B984204D154
:101CD0004FF68F731A404B881A438D4B984207D0AA
:101CE0008C4B984204D04FF6FF431A40CB881A43DE
:101CF00002808B8883850B880385814B98420BD0AB
:101D0000854B984208D08B4B984205D08A4B98421D
:101D100002D08A4B984201D10B7A03860123838239
:101D2000704770B5002400220023058C4FF6FE7624
:101D300035400584028C8388048B4FF68F752C40C8
:101D4000B51E2C400D882C43751E2A400D892A4350
:101D50004D882A436A4DA8420BD06F4DA84208D047
:101D6000744DA84205D0744DA84202D0734DA842CC
:101D700013D14FF6F7752A404D892A434FF6FB756C
:101D80002A408D882A434FF6FF652B404FF6FF55BA
:101D90002B408D892B43CD892B4383800483CD88B1
:101DA0008586028470BD70B5002400220023058C56
:101DB0004FF6EF7635400584028C8388048B48F615
:101DC000FF752C404FF6FF452C400D882D0644EA48
:101DD00015444FF6DF752A400D892D0542EA15425C
:101DE0004D882D0542EA1542454DA84202D04A4D84
:101DF000A8421BD14FF67F752A404D892D0542EA36
:101E000015424FF6BF752A408D882D0542EA1542CE
:101E10004FF6FF352B404FF2FF752B408D89AD04F7
:101E200043EA1543CD89AD0443EA15438380048317
:101E3000CD880587028470BD70B500240022002380
:101E4000058C4FF6FF6635400584028C8388848BB1
:101E50004FF68F752C404FF6FC752C400D882C43A7
:101E60004FF6FF552A400D892D0642EA15424D884E
:101E70002D0642EA1542224DA84202D0264DA84224
:101E80001BD14FF2FF752A404D892D0642EA1542BB
:101E90004FF6FF352A408D882D0642EA15424EF650
:101EA000FF752B404DF6FF752B408D892D0543EABC
:101EB0001543CD892D0543EA154383808483CD885E
:101EC0008587028470BD70B5002200230024058C34
:101ED0004EF6FF7635400584038C8488828B48F665
:101EE000FF752A404FF6FF452A400D882D0642EA2D
:101EF00015424DF6FF752B400D892D0720E000009F
:101F0000002C01400004004000080040000C00408C
:101F1000001000400014004000340140004C01401B
:101F2000005001400054014000180040001C0040D7
:101F300000200040004001400044014000480140B2
:101F400043EA15434D882D0743EA1543FE4DA84249
:101F500002D0FE4DA84206D14BF6FF752C408D896C
:101F6000AD0544EA154484808283CD88A0F84050B2
:101F7000038470BD828B4FF2FF331A408283828BC1
:101F80000B0642EA134282837047F0B50C461546B1
:101F9000002100220026078C4EF6FF7C07EA0C0782
:101FA0000784818B028C27073E0C40F6FF4739409F
:101FB0002F0641EA17411F0741EA17414DF6FF7707
:101FC0003A4046F480573A4381830284F0BD828BC5
:101FD0004FF6F3731A408283828B0A4382837047E1
:101FE000F0B50C461546002100220026078C4FF65E
:101FF000FF6C07EA0C070784818B028C27063E0CD6
:102000004FF60C7739401F0545EA174739434FF61D
:10201000FF573A4046F480773A4381830284F0BD0B
:10202000028B4FF2FF331A400283028B0B0642EA07
:10203000134202837047F0B50C461546002100227A
:102040000026078C4FF6EF7C07EA0C070784018B0C
:10205000028C27053E0C40F6FF4739401F0741EA36
:1020600017412F0641EA17414FF6DF773A4046F015
:1020700010073A4301830284F0BD028B4FF6F373DD
:102080001A400283028B0A4302837047F0B50C4664
:10209000154600210022068C4FF6FE773E4006844E
:1020A000018B028C4FF60C7631401E0545EA164630
:1020B00031437E1E324044F00106324301830284E4
:1020C000F0BD70B505460C46208850B92389A2881A
:1020D00061882846FFF7DAFFE1882846FFF7CDFF41
:1020E00025E0208804280AD12389A288618828460F
:1020F000FFF7A1FFE1882846FFF792FF17E020884D
:1021000008280AD12389A28861882846FFF768FF3A
:10211000E1882846FFF75BFF09E02389A2886188F0
:102120002846FFF732FFE1882846FFF723FF70BDFE
:102130002DE9F04105460C4600260127608808B9C4
:10214000022600E00026A088012801D1022700E035
:1021500001272088A0B92389A28861882846FFF733
:1021600095FFE1882846FFF788FF23893A463146E4
:102170002846FFF760FFE1882846FFF751FF13E08C
:102180002389A28861882846FFF755FFE188284601
:10219000FFF746FF23893A4631462846FFF776FF88
:1021A000E1882846FFF769FFBDE8F0810A884B887F
:1021B0001A438B881A43CB881A430B891A434B89DD
:1021C0001A438B891A43A0F8442070474FF6FF71D9
:1021D000818000210180C18041800172704700210F
:1021E000018041808180C180018141818181C181E3
:1021F0007047002101804180012181800021C18040
:10220000018170470021018041808180C18001816E
:1022100041818181704721B1028842F00102028030
:1022200004E002884FF6FE731A400280704731B115
:10223000B0F8442042F40042A0F8442005E0B0F891
:102240004420C2F30E02A0F84420704710B51AB122
:1022500083890B43838104E08389CC43A4B2234068
:10226000838110BD8182704741EA0203A0F84830A3
:10227000704710B51AB183890B43838104E08389C9
:10228000CC43A4B22340838110BD01894FF6F8727C
:102290001140018170470A46002101894FF68F7372
:1022A000194011430181704730B504460D46294657
:1022B0002046FFF7F0FF208940F00700208130BD65
:1022C0002DE9F04104460D4616461F46602D06D105
:1022D0003B46012231462046FFF7ADFE05E03B4676
:1022E000012231462046FFF7D1FE29462046FFF75E
:1022F000D2FF208940F007002081BDE8F08130B591
:102300000C4600210189C9B21D0642EA1545254344
:102310002943018130BD2DE9F04105460E4617469F
:102320009846002443463A4631462846FFF7E7FFE1
:102330002C894FF6F870044044F007044FF68F7074
:10234000044044F0700403E0002C014000340140DC
:102350002C81BDE8F081F0B504460D4616461F46B7
:102360003B46324629462046FFF7C9FF208940F404
:1023700080402081F0BD0185828270470A4600219D
:1023800001884FF68F731940114301807047F0B5F3
:102390000C4615461E460021002200230189028BAF
:1023A000038C4FF6F877394021434FF6FC473A400B
:1023B00040F201173A434FF6DD773B40370545EAD7
:1023C00017473B43018102830384F0BD0A46002185
:1023D000018B4FF68F7319401143018370470A46F2
:1023E0000021018B48F6FF731940130641EA13419F
:1023F000018370470A460021818B4FF68F73194085
:102400001143818370470A460021818B48F6FF7390
:102410001940130641EA13418183704721B10288B4
:1024200042F08002028004E002884FF67F731A4077
:102430000280704721B1828842F00402828004E069
:1024400082884FF6FB731A408280704721B18288E0
:1024500042F00802828004E082884FF6F7731A4047
:102460008280704721B1828842F00102828004E0BC
:1024700082884FF6FE731A40828070470A46002118
:10248000018B4FF6F77319401143018370470A46D9
:102490000021018B4FF2FF731940130641EA1341EB
:1024A000018370470A460021818B4FF6F77319406C
:1024B0001143818370470A460021818B4FF2FF73DD
:1024C0001940130641EA1341818370470A460021EF
:1024D000018B4FF6FB7319401143018370470A4685
:1024E0000021018B4FF6FF331940130641EA1341D7
:1024F000018370470A460021818B4FF6FB73194018
:102500001143818370470A460021818B4FF6FF33C8
:102510001940130641EA1341818370470A4600219E
:10252000018B4FF67F7319401143018370470A46B0
:102530000021018BC1F30E01130641EA134101830F
:1025400070470A460021818B4FF67F731940114373
:10255000818370470A460021818BC1F30E01130667
:1025600041EA1341818370470A460021018C4FF6EE
:10257000FD7319401143018470470A460021018C04
:102580004FF6F77319401143018470470A46002142
:10259000018C4FF6DF731940130541EA13410184A2
:1025A00070470A460021018C4FF67F7319401305CE
:1025B00041EA1341018470470A460021018C4FF61D
:1025C000FF531940130641EA1341018470470A463C
:1025D0000021018C4FF2FF731940130641EA1341A9
:1025E000018470470A460021018C4DF6FF731940A3
:1025F000130741EA13410184704730B500230124D9
:102600008C40A3B2048CDD43ADB22C400484048C16
:1026100002FA01F5ADB22C43048430BD30B500237D
:1026200004248C40A3B2048CDD43ADB22C4004845E
:10263000048C02FA01F5ADB22C43048430BD70B5B0
:102640000346002000241846183001258D40ACB206
:102650001D8CE643B6B235401D8409B1082909D165
:1026600000EB6100056825F07005056005681543FD
:1026700005600CE00D1FADB200EB6500056825F4A8
:10268000E04505600568160645EA1645056070BD1B
:1026900021B1028842F00202028004E002884FF673
:1026A000FD731A400280704721B1028842F0040293
:1026B000028004E002884FF6FB731A4002807047E4
:1026C00021B1828842F08002828004E082884FF645
:1026D0007F731A408280704702884FF6F7731A4062
:1026E000028002880A430280704782884FF68F7307
:1026F0001A40828082880A438280704702894FF69E
:10270000F8731A40028102890A43028170470289E4
:102710004FF67F731A40028102890A430281704793
:102720008184704781857047818670470187704733
:1027300081877047A0F84010704702884FF6FF432A
:102740001A40028002880A43028070470146888E40
:1027500070470146088F70470146888F70470146D1
:10276000B1F8400070470146888C70470146088DDB
:10277000704702460020138A0B4201D0012000E07E
:1027800000207047CA430282704730B502460020DD
:1027900000230024158A05EA0103958905EA01044E
:1027A00013B10CB1012000E0002030BDCA43028209
:1027B0007047000010B50446FC48844209D101214D
:1027C0008803FFF74FF900214FF48040FFF74AF9E3
:1027D00032E0F748844209D101214804FFF74FF95C
:1027E00000214FF40030FFF74AF925E0F148844218
:1027F00009D101218804FFF742F900214FF480201C
:10280000FFF73DF918E0EC48844209D10121C804E2
:10281000FFF735F900214FF40020FFF730F90BE006
:10282000E648844208D101210805FFF728F9002174
:102830004FF48010FFF723F910BD2DE9F04786B063
:1028400005460E460024A24600BFA1460027B089D7
:1028500000B100BF2F462C8A4CF6FF700440F08870
:1028600004432C82AC894EF6F3100440B0883189C1
:102870000843718908430443AC81AC8A4FF6FF409A
:102880000440B0890443AC8201A8FFF764F8C7484C
:10289000874202D1DDF810A001E0DDF80CA0A88984
:1028A00010F4004F08D00AEBCA0000EB0A103168A0
:1028B0004900B0FBF1F807E00AEBCA0000EB0A1090
:1028C00031688900B0FBF1F86420B8FBF0F0040136
:1028D0002009642101FB1089A88910F4004F08D059
:1028E000322000EBC900B0FBF1F000F00700044318
:1028F00008E0322000EB09106421B0FBF1F000F099
:102900000F0004432C8106B0BDE8F0874FF4165148
:10291000016000218180C18001810C214181002161
:102920008181704710B502460020108A4FF2FF03E4
:1029300018400B884C8823438C882343CC8823433E
:102940001843108210BD0021018041808180C18028
:10295000704721B1828942F40052828104E0828969
:102960004DF6FF731A4082817047F0B5034600248C
:10297000002600250020A1F510676A3F00D100BFA6
:102980001846C1F3421401F01F06012707FA06F5A5
:10299000012C01D10C3004E0022C01D1103000E0F8
:1029A00014301AB107682F43076002E00768AF438D
:1029B0000760F0BD10B51AB1838A0B43838204E02F
:1029C000838ACC43A4B22340838210BD028A4FF68F
:1029D000F0731A400282028A0A4302827047828997
:1029E0004FF2FF731A40828182890A4382817047C5
:1029F00021B1828942F00202828104E082894FF68D
:102A0000FD731A4082817047028A4FF6DF731A40C5
:102A10000282028A0A430282704721B1028A42F48A
:102A20008042028204E0028A4BF6FF731A4002825F
:102A30007047C1F308028280704701468888C0F35E
:102A400008007047818941F0010181817047028B44
:102A5000D2B20283028B42EA012202837047028BC8
:102A600002F47F420283028B0A430283704721B142
:102A7000828A42F02002828204E0828A4FF6DF736B
:102A80001A408282704721B1828A42F0100282820B
:102A900004E0828A4FF6EF731A408282704721B1B8
:102AA000828A42F00802828204E0828A4FF6F7733B
:102AB0001A408282704721B1828942F400428281A9
:102AC00003E08289C2F30E028281704721B1828ABB
:102AD00042F40062828204E0828A4FF2FF731A405D
:102AE00082827047828A4FF6FB731A408282828A02
:102AF0000A438282704721B1828A42F002028282B6
:102B000004E0828A4FF6FD731A40828270470246C3
:102B10000020B1F5007F00D100BF13880B4201D027
:102B2000012000E00020704701F40072B2F5007F40
:102B300000D100BFCA430280704770B5024600242E
:102B4000002300250020A1F510666A3E00D100BFD9
:102B5000C1F3421501F01F03012606FA03F3012D0C
:102B600002D19689334006E0022D02D1168A334005
:102B700001E0968A33400C12012606FA04F4168806
:102B8000344013B10CB1012000E0002070BD10B53D
:102B900000220023A1F510646A3C00D100BF0A1294
:102BA00001249440A3B2DC43048010BD00380140EE
:102BB0000044004000480040004C004000500040ED
:102BC000704710B504469B48217801704FF480602F
:102BD00099498880994808600020C88008818872D7
:102BE0004FF4806096498880964808600020C8802D
:102BF000088188728F480078012805D0022808D102
:102C000091489249086009E04FF4E1308F4908602B
:102C100004E04FF416508D49086000BF00BF88489B
:102C20008A49486084488860AFF26B00C8600846F3
:102C3000FDF7E9FD10BD8248807A70477E49098919
:102C40007D4AD288914206DD7B4909897A4AD28839
:102C5000891A88B208E078498988774AD288891A1F
:102C6000754A1289114488B2704700B57248C0880D
:102C700071490989884203D100206F49887202E0B6
:102C800001206D4988726C48807A032807D0FFF7CD
:102C9000D5FFB0F5807F02DC022067498872664864
:102CA000807A00BD66490989654AD288914206DD6D
:102CB00063490989624AD288891A88B208E0604962
:102CC00089885F4AD288891A5D4A1289114488B27C
:102CD000704700B5FFF7E6FFC0F5806080B200BD29
:102CE0005B480078704710B504465348C088534984
:102CF0000C545148C088401C83B24F488088401E05
:102D0000984200DA00234C480089984203D10320FE
:102D10004949887204E04848C380012046498872C6
:102D20004548807A032807D0FFF788FFB0F5807FF9
:102D300002DC0220404988723F48807A10BD10B5FD
:102D400004462046FFF7CFFF10BD70B5044604E0EF
:102D50002078FFF7C8FF0546641C20780028F7D1CB
:102D6000FDF7CDFD284670BD70B504460D46FFF752
:102D700065FFA8420DDB002605E02078FFF7B3FFD2
:102D8000641C701C86B2AE42F7DBFDF7B8FD002074
:102D900070BD4FF0FF30FBE72949C988284A1289E6
:102DA000914202D14FF0FF3008E025490989254AB8
:102DB000505C23490989491C214A1181204909890C
:102DC0001F4A9288914202DB00211D4A11817047FF
:102DD00070B504460E46002509E0FFF7DDFF034607
:102DE000B3F1FF3F03D02370641C681C85B2B3F1BC
:102DF000FF3F01D0B542F0DB28B270BD1049C98851
:102E00000F4A1289914202D14FF0FF3003E00C4982
:102E100009890C4A505C704700B587B0684601F0DC
:102E2000E5FA1C2269460B4801F098FB094807B0F7
:102E300000BD00003C00002090000020D8000020D1
:102E40009C000020D804002001C20100C400002022
:102E50003D000020A80000203EB5044660680090B8
:102E60002068006801902068808802906846FDF71D
:102E70006EFB3EBD2DE9F04F8FB0044609A80B90C4
:102E8000A6480990A649A068B1FBF0F087B2B7F553
:102E9000FA7F01DD4FF4FA77ADF82870A068784327
:102EA0000C90E088642801DD6420E080E0887843AD
:102EB0001FFA80F8642098FBF0F01FFA80F80025D4
:102EC00004E12078012804D002280CD0032809D17D
:102ED00021E0454503DAA0886188461802E0A08811
:102EE0006188461ADCE045450ADA6088400000FB4C
:102EF00005F696FBF8F6A08830446188461A09E08A
:102F00006088400000FB05F696FBF8F6A088301AB2
:102F100061884618C4E0002008900790384602F007
:102F20005DF80590284602F041F80490059901F0FB
:102F30005FFF0690069801F0CDFE0022794BCDE9A7
:102F4000040101F09BFD11D2069801F0C3FE00229E
:102F5000754BCDE9020101F0C7FDCDE9040101F097
:102F60006DFB06904FF0FF30079038E0069801F0B7
:102F7000B1FE00226D4BCDE9040101F07FFD11D2BD
:102F8000069801F0A7FE0022684BCDE9020101F08E
:102F9000B7FDCDE9040101F051FB06904FF0FF3081
:102FA00007901CE0069801F095FE0022604BCDE9E9
:102FB000040101F063FD10D2069801F08BFE00229F
:102FC0005A4BCDE9020101F08FFDCDE9040101F07A
:102FD00035FB06900120079001E00120079006983C
:102FE00001F078FE00224FF08043CDE9000101F0AE
:102FF00047FC504A504BCDE9020101F041FCCDE9BC
:10300000040101F01BFB0690DDF818A04FF0010B46
:10301000D9462DE0584601F0E1FF0490079801F0F1
:10302000C5FF5146029001F0EDFF0390049901F0B5
:10303000DFFE0590089901F079FE089009F1010082
:103040000BFB00F009F1020148431FFA80FB0798CF
:10305000404240B207905046069901F0D3FF0590D8
:10306000069901F0CFFF824609F102004FFA80F97C
:10307000B9F1080FCEDB608801F0B0FF0590089928
:1030800001F0C0FF0890A08801F0A8FF0590089902
:1030900001F04CFE0890089801F06CFF064600BF56
:1030A00000BF002E04DA00201C4921F815000BE0B7
:1030B000B6F5805F05DB40F6FF70184921F8150072
:1030C00002E0164921F81560681C05B2BD42FFF602
:1030D000F8AE0BA8FFF7C0FE01200FB0BDE8F08FDF
:1030E00010B51648FFF7C6FEFDF7F8FA10BD10B58B
:1030F000FDF7FEFA10BD10B5FDF705FB30B1012854
:1031000006D0022805D0032805D105E0002010BD17
:1031100000BF0120FBE700BF0220F8E7D80800202D
:1031200080841E000000E83F0000F03F0000E03F08
:103130000000D03F182D4454FB2109404C000020D2
:103140000120D14908707047D04901604FF40071E7
:103150008180002101814181C181C1800182C174CE
:103160008174704710B5CA494868FFF7EDFF022027
:10317000C74908730120C7490870FDF71AF810BD48
:1031800010B5C348007B00286ED003286BD1FFF731
:103190006CFD022800D168E0BE48007858B1BEA09E
:1031A000FFF7D3FDBA484068008AB94949684881A9
:1031B0000020B849087033E0B54840680068B44959
:1031C0004968498930F81100B6490880B04840681C
:1031D0004089401CAE4949684881AD4840684089F3
:1031E000AB4949688988884203D10020A8494968C9
:1031F0004881AC4800880011AA4908800846008828
:10320000C0B2088008460088C0B2FFF76CFDA04835
:10321000406840899E494968098A884200D103E094
:10322000FFF70CFD0128C7DC00BF994840684089C2
:1032300097494968098A884214D19548407A48B12B
:1032400001280AD002280BD1002091490873FCF70D
:10325000B4FF06E0FFF786FF03E0FFF783FF00E01F
:1032600000BF00BF01E000BF00BF00BF10BDC27CB7
:1032700022B1012A03D0022A14D112E000BF028930
:10328000521C0281028983889A4203D10022028162
:10329000012282740389026822F813100122C27489
:1032A00000E000BF00BF704730B504460D46E0891E
:1032B00058B90220E0742089401C2082208AA1880D
:1032C000884209DB0020208206E029462046FFF7DD
:1032D000CEFFE089401EE081E07C30BD0189C180E5
:1032E000817C39B981888289891A82880389D21AB6
:1032F000914204DD81888289891AC18104E0818834
:103300000289891A491EC1817047014608898A8944
:10331000904201DC887C08B1012070470020FCE766
:1033200030B5044600255A48007B05285CD2DFE80A
:1033300000F05C4F035A5D0055494868FFF7E5FF10
:10334000002830D05248407A01282CD05048007ACA
:1033500010B1012826D112E04D484089A04206DA7A
:103360005148007818B1012500204F49087048489D
:103370004089A04202DD01204B49087012E0444818
:103380004089A04206DD4848007818B10125002098
:10339000454908703E484089A04202DA012042496E
:1033A000087000BF00BF3A4948682146FFF75FFF39
:1033B0001DB93748407A012809D1012034490873E2
:1033C00000203949087032494868FFF787FF0EE04E
:1033D0002F4948682146FFF767FF022802D10320E2
:1033E0002B49087303E002E000BF00BF00BF00BF2D
:1033F00030BD1CB50446264804600094AFF2DF00DF
:1034000001906846FCF7CBFF1CBD10B50446FCF7E5
:10341000BDFE10BD0146C21700EBD2525212A0EB06
:1034200042221B4B5B689A81704710B5FCF7C5FEC2
:1034300000201749087310BD70471549488170472F
:103440001349487270471249087270471048007B50
:10345000704700B501200E4908734868FFF73EFF2A
:1034600000BD1CB5044620680090AFF24B100190DF
:103470006846FCF794FF0D48606000202073606888
:10348000FFF762FE1CBD000058000020E40C002085
:10349000C00C0020590000204F53433833353030E2
:1034A000000000005C0000205A000020D00C00202A
:1034B00010B5FFF765FE10BD10B5002477E0F148A8
:1034C0000068001D50F82400EF4A811A904214D081
:1034D00009DCEE49401818D0ED49401845D0ED49B7
:1034E000401860D15CE0EC48081846D0EB49401821
:1034F00053D0EB49401856D147E0E24800681030FD
:1035000050F82400E74988604EE0DE48006810303B
:1035100050F82400E449884203D10320E1490870AF
:1035200022E0D8480068103050F82400DF49884273
:1035300003D10120DB49087016E0D2480068103042
:1035400050F82400DA49884203D10220D549087096
:103550000AE0CC480068103050F82400D549884271
:1035600002D10420CF4908701EE0C6480068103020
:1035700050F82400CB49488016E0C248006810305B
:1035800050F82400C74988800EE0BE48006810301B
:1035900050F82400C349C88006E0FFF7A1FD03E00E
:1035A000FFF7A5FD00E000BF00BF601CC4B2B54836
:1035B0000068001D50F8240010B1032CFFF67FAF07
:1035C00010BD10B500242AE1AE480068001D50F877
:1035D0002410AD4A881A914218D00CDCB64808185D
:1035E00072D0B649401870D0B54940186ED0B54970
:1035F00040186CD10CE1A0F13F700D3868D0B24991
:10360000401873D0B1494018F3D1FDE09D480068DF
:10361000103050F82400AE49884204D14FF47A703B
:10362000FFF7E7FEA1E097480068103050F824004B
:10363000A749491C884204D14FF4FA60FFF7D9FE2C
:1036400093E090480068103050F82400A049091D0C
:10365000884204D141F28830FFF7CBFE85E08948EB
:103660000068103050F824009A49884204D142F290
:103670001070FFF7BEFE78E082480068103050F806
:1036800024009449491C884204D144F62060FFF785
:10369000B0FE6AE07B480068103050F824008D4985
:1036A000091D884204D14CF25030FFF7A2FE5CE0C5
:1036B00074480068103050F824008749884208D1C7
:1036C0008648FFF796FE50E086E04FE07BE0A2E000
:1036D0009BE06C480068103050F824007E49491C7B
:1036E000884204D17E48FFF784FE3EE062E06548F0
:1036F0000068103050F824007749091D884203D132
:103700007848FFF776FE30E05E480068103050F8E9
:1037100024007549884203D17448FFF76AFE24E00B
:1037200058480068103050F824006F49491C8842FE
:1037300003D16F48FFF75DFE17E052480068103074
:1037400050F824006849091D884203D16948FFF7F1
:1037500050FE0AE04B480068103050F824006649DB
:10376000884202D16548FFF744FE55E045480068AD
:10377000103050F824006249884203D10020FFF73E
:103780005FFE16E03F480068103050F824005D49A5
:10379000884203D10120FFF753FE0AE03948006850
:1037A000103050F824005849884202D10220FFF717
:1037B00047FE31E033490968103151F8241088B2CE
:1037C000FFF728FE28E02F490968103151F824102E
:1037D00088B2FFF732FE1FE02A480068103050F828
:1037E00024004A49884203D10020FFF72CFE0AE05A
:1037F00024480068103050F824004549884202D11E
:103800000120FFF720FE07E006E0FFF7ABFC03E036
:10381000FFF70BFE00E000BF00BF601CC4B21948F8
:103820000068001D50F8240010B1032CFFF6CCAE48
:1038300010BD10B5FFF7F0FA12490860084600689D
:103840000068344A811A90421BD00CDC324940187F
:1038500016D0324940186FD03149401879D03149DB
:1038600040186BD171E03048081868D02F494018D3
:1038700066D02F49401879D02E4940185ED16FE0AC
:103880005FE07FE06000002046524551ACA6AFBA31
:10389000130C00F9EEF800FCF70BFFFDFCF304FF3E
:1038A0000FFDECFA4C00002053494E455351524550
:1038B0005452494141524254BBBBB8BAF1F1FDFDEB
:1038C000080DF3FAF9F006FC0300FCFF0C0DF5FF00
:1038D000314B5F5F31304B5F3130304BA0860100A0
:1038E000400D030020A10700314D5F5F40420F00F3
:1038F00080841E00404B4C0031304D5F8096980014
:103900004E4F524D4155544F53494E4752495345DE
:1039100046414C4C4D454153B7BBB1C002F404F095
:10392000F8FC05FF0A01F1FDF7F5F4FE1300FEFFB8
:10393000F7FF06F5050AF9FF28E00AE02AE01DE096
:1039400018E016A0FFF701FA25E022A0FFF7FDF925
:1039500021E0FFF736FE21A0FFF7F7F91BE005E0B5
:10396000FFF7AAFD1DA0FFF7F0F914E01BA0FFF779
:10397000ECF910E019A0FFF7E8F90CE017A0FFF749
:10398000E4F908E015A0FFF7E0F904E013A0FFF761
:10399000DCF900E000BF00BF10BD000049444E5FED
:1039A00053544D33324631303020626173656420A8
:1039B0006D756C7469707572706F7365206465766F
:1039C0006963652056302E312C204B333846454CE8
:1039D0000D0A0000455252520000000041434B4E78
:1039E0000000000070B50446FDF74BF8FB49451890
:1039F00004E02846FDF748F800B103E0FFF769F955
:103A0000A042F6DB00BF70BD08B5FFF7C5F9C0B234
:103A10008DF80000FFF7C0F9C0B28DF80100FFF784
:103A2000BBF9C0B28DF80200FFF7B6F9C0B28DF84D
:103A300003009DF8030000069DF8021040EA0140D3
:103A40009DF8011040EA01209DF80010084308BDD0
:103A500010B500241AE0FFF79FF90420FFF7C2FF1A
:103A6000FFF7D2FFDE49086008460068DD494018CC
:103A700005D1DB480168DC4840F8241003E0012050
:103A8000DA49087000BF00BF601CC4B2FFF7B6F986
:103A90003A2801D1032CDEDB10BD10B500241AE05A
:103AA000FFF77AF90420FFF79DFFFFF7ADFFCC4940
:103AB000086008460068CB49401805D1C84801682D
:103AC000C94840F8241003E00120C849087000BF2D
:103AD00000BF601CC4B2FFF791F93A2801D1032C52
:103AE000DEDB10BD10B500244BE0FFF755F90420D4
:103AF000FFF778FFFFF788FFB949086008460068BC
:103B0000BB49401811D0BB49401808D0BA494018E9
:103B100030D1B3480168B44840F824102EE0B048D2
:103B20000168B14840F8241028E00420FFF75AFF4C
:103B3000FFF732F920281CD1A9480168AA4840F8AB
:103B40002410FFF761FFA649086008460068AB49EA
:103B5000884204D0A2480068A949884206D1A048FA
:103B60000168A1480C3040F8241002E001209F4970
:103B7000087003E001209D49087000BF00BF601C71
:103B8000C4B2FFF73BF93A2801D1032CADDB10BDDD
:103B900010B50024FFE0FFF7FFF80420FFF722FF35
:103BA000FFF732FF8E49086008460068954A811A7F
:103BB00090427AD009DC944940180ED093494018BD
:103BC00030D09349401871D151E09248081873D011
:103BD000A0F13F700D38F6D1CAE00420FFF702FFD4
:103BE000FFF7DAF820281CD17D4801687E4840F8AC
:103BF0002410FFF709FF7A490860084600687F49EA
:103C0000884204D0764800687D49884206D17448CD
:103C1000016875480C3040F8241002E00120734917
:103C20000870B5E00420FFF7DDFEFFF7B5F82028A7
:103C30001CD16B4801686C4840F82410FFF7E4FE83
:103C400067490860084600687349884204D06448A0
:103C500000687249884206D16148016862480C30A8
:103C600040F8241002E001206049087090E0042030
:103C7000FFF7B8FEFFF790F820281CD158480168DC
:103C8000594840F82410FFF7BFFE55490860084620
:103C90000068012802D00846006848B95048016809
:103CA00051480C3040F8241005E067E06CE003E078
:103CB00001204E4908706BE00420FFF793FEFFF7E8
:103CC0006BF8202853D146480168474840F8241033
:103CD000FFF79AFE4249086008460068504988424A
:103CE0003BD03F480068491C884236D03C480068B9
:103CF000C91C884231D03A4800684A4988422CD0D1
:103D000037480068491C884227D035480068C91CDC
:103D1000884222D032480068434988421DD030484A
:103D20000068491C884218D02D480068C91C884288
:103D300013D02B4800683D4988420ED028480068BF
:103D4000491C884209D026480068C91C884204D012
:103D5000234800683649884206D121480168224834
:103D60000C3040F8241002E00120204908700FE0D8
:103D70001B4801681C4840F8241009E018480168F5
:103D8000194840F8241003E001201849087000BFCA
:103D900000BF601CC4B2FFF731F83A2802D1032CEF
:103DA000FFF6F9AE10BD10B5002452E0FEF7F4FFA7
:103DB0000420FFF717FEFFF727FE094908600846B1
:103DC00000681C49401837D0A0F1B8500C3839D1E0
:103DD00003480168044840F8241037E040420F00CF
:103DE00068000020AABEB3C0E810002064000020D4
:103DF000BABAAEC0F3F001EF00020EFC52495345CF
:103E000046414C4C53544F50BBBBB8BAF1EAF6FF95
:103E100011110FF70D020AFF414E445F4F525F5FD1
:103E2000314B5F5F31304B5F3130304B314D5F5F35
:103E300031304D5FB9BAABC0F8480168F84840F876
:103E4000241003E00120F749087000BF00BF601C88
:103E5000C4B2FEF7D3FF3A2801D1032CA6DB10BD74
:103E600070B500240AE1FEF797FF0420FFF7BAFDC2
:103E7000FFF7CAFDE94908600846EB4A0168881A5D
:103E800091427DD00CDCE94808187AD0E849401806
:103E900078D0E849401810D0E749401873D13BE08A
:103EA000E649401870D0E649401859D0E549401815
:103EB0006BD0E5494018F1D17DE00420FFF792FD79
:103EC000FEF76AFF202826D1D4480168D44840F87C
:103ED0002410FFF799FDD149086008460068DB49C6
:103EE00088420ED0CD480068D949884209D0CB48D5
:103EF0000068D849884204D0C8480068D64988423A
:103F000006D1C6480168C6480C3040F8241002E0CB
:103F10000120C4490870AEE00420FFF763FDFEF7FE
:103F20003BFF20281BD1BD480168BD4840F8241044
:103F3000FFF76AFDB94908600846006885B208467F
:103F400000684FF6FF7101EA104625B9B4480C30FD
:103F500040F8246002E00120B249087000BF8AE006
:103F60000420FFF73FFDFEF717FF202822D1AB48C2
:103F70000168AB4840F82410FFF746FDA74905E06B
:103F800063E068E06DE072E039E058E00860084600
:103F9000006885B2084600684FF6FF7101EA1046D6
:103FA00025B99F480C3040F8246002E001209D496B
:103FB000087000BF5FE00420FFF714FDFEF7ECFE81
:103FC00020281BD195480168954840F82410FFF738
:103FD0001BFD924908600846006885B208460068E3
:103FE0004FF6FF7101EA104625B98D480C3040F8B4
:103FF000246002E001208B49087000BF3BE00420F0
:10400000FFF7F0FCFEF7C8FE202817D183480168AF
:10401000834840F82410FFF7F7FC80490860084601
:10402000006810F1020F06D8084601687C480C3081
:1040300040F8241002E001207A4908701BE077481C
:104040000168774840F8241015E074480168744806
:1040500040F824100FE071480168714840F82410BE
:1040600009E06E4801686E4840F8241003E0012022
:104070006C49087000BF00BF601CC4B2FEF7BEFEF2
:104080003A2802D1032CFFF6EEAE70BD70B50024C5
:1040900090E1FEF781FE0420FFF7A4FCFFF7B4FCDB
:1040A0005E49086008466D4A0168881A91427CD0D2
:1040B0000CDC6B48081879D06A49401811D06A495D
:1040C00040185CD06949401871D166E1A0F13F7099
:1040D0000D386DD0664940182DD066494018F3D18F
:1040E00030E10420FFF77EFCFEF756FE202821D1A8
:1040F0004A4801684A4840F82410FFF785FC4749C0
:104100000860084600685C49884209D04348006856
:104110005A49884204D0414800685949884206D12A
:104120003E4801683E480C3040F8241002E001206F
:104130003C4908703BE10420FFF754FCFEF72CFEDD
:1041400020281BD135480168354840F82410FFF776
:104150005BFC324908600846006885B20846006882
:104160004FF6FF7101EA104625B92D480C3040F892
:10417000246002E001202B49087000BF17E10420F1
:10418000FFF730FCFEF708FE202820D12348016805
:10419000234840F82410FFF737FC20490860084600
:1041A000006885B20846006803E06FE010E0FAE0BE
:1041B000EDE04FF6FF7101EA104625B918480C30C2
:1041C00040F8246002E001201649087000BFEEE0CC
:1041D0000420FFF707FCFEF7DFFD20281CD10F4865
:1041E00001680F4840F82410FFF70EFC0B490860E7
:1041F000084600682349884204D0084800682249DC
:10420000884206D10548016805480C3040F8241062
:1042100002E0012003490870C9E0000068000020A6
:10422000E81000206400002053544F50BABAAEC0CA
:10423000F6F8FDFFFCF202FA130C00F90D020AFF7A
:10424000F70BFFFDFCF304FF0FFDECFA53494E455D
:10425000535152455452494141524254465245519C
:10426000BBBBB8BAF1F1FDFD080DF3FAF9F006FC9D
:104270000300FCFF0C0DF5FF4E4F524D4155544FBE
:1042800053494E475249534546414C4C0420FFF791
:10429000A9FBFEF781FD202853D19C4801689C486A
:1042A00040F82410FFF7B0FB984908600846006802
:1042B000984988423BD095480068491C884236D0CE
:1042C00092480068C91C884231D0904800689249E1
:1042D00088422CD08D480068491C884227D08B48E2
:1042E0000068C91C884222D0884800688B498842EF
:1042F0001DD086480068491C884218D08348006851
:10430000C91C884213D081480068854988420ED074
:104310007E480068491C884209D07C480068C91C56
:10432000884204D0794800687E49884206D177489F
:10433000016877480C3040F8241002E001207A49E7
:10434000087034E00420FFF74DFBFEF725FD202820
:104350001CD16E4801686E4840F82410FFF754FBEA
:104360006A490860084600687049884204D0674876
:1043700000686F49884206D16448016864480C307F
:1043800040F8241002E00120674908700FE05F4800
:1043900001685F4840F8241009E05C4801685C4807
:1043A00040F8241003E001205F49087000BF00BFFF
:1043B000601CC4B2FEF722FD3A2802D1032CFFF69E
:1043C00068AE70BD00205249091F08604860002196
:1043D0004F48001F8160C16000204D49091F0861DE
:1043E00000214B48001F41618161704770B5044650
:1043F000FEF76FFC054600204B490870FFF7E2FF0F
:10440000002D70DD0420FFF7EDFAFFF7FDFA3F49BC
:10441000086008460068474A811A90424ED00CDC7A
:104420004549401816D0454940182FD044494018F6
:104430001CD04449401851D112E04348081845D0D7
:104440004249401832D04249401827D041494018CB
:1044500044D113E02D4800682D49091F086041E050
:104460002A4800682A49091F08603BE0274800687D
:104470002749091F0860FFF709FE33E02348006859
:104480002349091F0860FFF7EBFC2BE01F48006879
:104490001F49091F0860FFF786FC23E01B480068DE
:1044A0001B49091F0860FFF773FB1BE017480068F2
:1044B0001749091F0860FFF715FB13E01348006850
:1044C0001349091F0860FFF7E8FA0BE00F4800687E
:1044D0000F49091F0860FFF7BBFA03E001201249EA
:1044E000087000BF00BF10480078012806D11A48A4
:1044F0000749091F086000200B4908701C22044965
:10450000091F204600F02AF870BD00006800002056
:10451000E8100020314B5F5F31304B5F3130304B62
:10452000314D5F5F31304D5F640000203038425FB5
:104530003136425F4D454153B7BBB1C002F404F080
:10454000F8FC05FF0A01F1FDF7F5F4FE1300FEFF8C
:10455000F7FF06F5050AF9FF4552525210B5203A09
:10456000C0F00B80B1E81850203AA0E81850B1E82C
:104570001850A0E81850BFF4F5AF5FEA027C24BFE2
:10458000B1E81850A0E8185044BF18C918C0BDE8D9
:1045900010405FEA827C24BF51F8043B40F8043BA2
:1045A00008BF7047D20728BF31F8023B48BF11F857
:1045B000012B28BF20F8023B48BF00F8012B7047B1
:1045C000704770477047754600F028F8AE46050002
:1045D0006946534620F00700854618B020B5FCF721
:1045E0000FFBBDE820404FF000064FF000074FF0F2
:1045F00000084FF0000B21F00701AC46ACE8C00901
:10460000ACE8C009ACE8C009ACE8C0098D46704709
:104610000446AFF300802046FBF7B1FD0048704729
:1046200000110020004870470411002001491820A3
:10463000ABBEFEE7260002007047000021F00042FA
:10464000A2F16052B2F5801F01F0004328BFD2F101
:104650007F6C0BD95FEA001C43EAC20242EB507048
:1046600018BF704728BF20F001007047B2F5801FC7
:10467000BCBF184670474FEA410C1CF5001F02D220
:10468000084600F08DBD70B500F0A4F90000008967
:10469000FFF7F6BF4FF00040A0F580007047000024
:1046A00010B591EA030F48BF83F0004300F1308258
:1046B000841A71EB030C05D2121943EB0C03001B97
:1046C00061EB0C01DFF824E14FEA1154A4EB135C19
:1046D0001EEA430F18BF9EEA445F73D023EA0E031D
:1046E000DCF1200E21EA045143F4801332D322FA84
:1046F0000CFE10EB0E0023FA0CFE41EB0E01CCF188
:10470000200E03FA0EFE10EB0E0051F10001B1F580
:10471000801FCCF1200E32D201EB045112FA0EF2BE
:10472000BDE8104058BF7047401C38BF5FEA4202E6
:1047300018BF7047002814BF20F0010041F10001AC
:104740004FEA410313F5001F38BF7047A1F1C04184
:1047500000F08EB9012A43EB0302ACF1200CDCF12E
:104760001F0E32BF4FF0000E23FA0CF310EB0300C4
:1047700041EB0451B4EB115FD0D0A1EB045101F532
:10478000801149085FEA300001EB04510ED350F16B
:10479000000038BF12FA0EFE08D1BDE81040C9E78C
:1047A000401C38BF5FEA4202CAD1C3E7BDE81040EF
:1047B0004FEA410313F5001F38BF7047A1F1C04114
:1047C00000F056B99EEA445F08D011EA5E0FBDE8DA
:1047D000104004BF01F0004100207047BDE81040C8
:1047E00070B500F0F7F800BF64FBBE3E0000E0FFCC
:1047F000491058BFC1F140415B1058BFC3F140435D
:104800008B42EFF30080704751EA030C17D41CF57C
:10481000801F58BFBCF5801F00F10680994218BF69
:10482000704708BF9042704707D711F5801F58BFE7
:1048300013F5801F19D499427047894270471CF5BF
:10484000801F08D5BCF5801FF7D58B4218BF704775
:1048500008BF824270474FF4001C1CEB410F38BF69
:104860001CEB430F01D28B42704770B500F0B2F8D9
:10487000922449004FF000514FF08053FFF7B8BF2A
:10488000DFF848C170B51CEA111E1EBF1CEA1315E3
:104890009EEA0C0F95EA0C0F00F06F8081EA03048A
:1048A00023EA4C134EEAD47E21EA4C1141F48011E4
:1048B00043F48013AE44A1FB024CA0FB0365AEF1B0
:1048C0007F7E361955EB0C05A1FB034C4CF1000320
:1048D000A0FB021C16EB0C06654153F100030942D4
:1048E00018BF46F0010613F4007F0BD14FEA0331E5
:1048F0004FEA0530340341EA155140EA16506FF093
:1049000003020AE04FEAC3214FEAC520F40241EA5C
:10491000555140EA56506FF0020202EB2E4201EB75
:10492000025585EACE710AD05FEA440C18BF24F024
:10493000004450F1000041F1000120EAD47040F23F
:10494000FE7C624500D270BDA84214BF4FF0804487
:104950004FF04044002E08BF0024BEF1806FA8BF76
:10496000A1F1C041BDE8704080F282804FF00000AC
:1049700001F1C04101F0004170479EEA0C0F0CEAC2
:10498000131518BF95EA0C0F06D04FF0000081EA0E
:10499000030E0EF0004170BD00F01CF88900013ECE
:1049A00000F007B800F009B84FEA430C5FEA5C5C1E
:1049B00008D081EA030100F05BB84FEA410C5FEADE
:1049C0005C5CF6D14FF00000014970470000FF0722
:1049D0000000F87F0EF1020E2EF0030E5EF8046B5D
:1049E000364205D4012A43EB030515F5001F12D802
:1049F000012841EB010C1CF5001F0CD80ED14FEA29
:104A0000D17C15F5001F0CEB4C0C0CF1020C08BF0F
:104A10004CEBD37C04E04FF0080C01E04FEAD37C70
:104A20000CEB4C0526FA05F606F00706B6F1040C69
:104A300006D20EEB860CBDE870404CF0010C6047CE
:104A4000DFE80CF0090B02024FF000414FF00000CC
:104A5000A1F5002170BD19461046012851EB010453
:104A600018BFD4F5001484BF002001F0004170BDD0
:104A70000808A0F500114FEA3101704753EA010C14
:104A800017D41CF5801F58BFBCF5801F00F10680AD
:104A90008B4218BF704708BF8242704707D713F593
:104AA000801F58BF11F5801F19D48B4270479B425D
:104AB00070471CF5801F08D5BCF5801FF7D59942BB
:104AC00018BF704708BF904270474FF4001C1CEBA2
:104AD000430F38BF1CEB410F01D2994270470FB40E
:104AE0000CBC03BCFFF7C1BE91EA030F10B581F007
:104AF00000413FF5DDAD83F0004300F009B8000050
:104B000010B591EA030F48BF83F000433FF5D0ADE5
:104B1000841A71EB030C07D212198CF0004C43EB92
:104B20000C03001B61EB0C01DFF8A4E14FEA115408
:104B3000A4EB135C1EEA430F18BF9EEA445F00F02B
:104B4000B08023EA6E03524221EA0451C3EB6E03A4
:104B500038BF5B1EDCF1200E25D322FA0CFE10EBD1
:104B60000E0043FA0CFE41EB0E01CCF1200E03FACD
:104B70000EFE10EB0E0051F10001CCF1200E29D4F5
:104B800012FA0EF201EB0451BDE8104058BF704715
:104B9000401C1CBFB2F1004F704700280CBF491CDD
:104BA00020F00100704712EB020E43EB030218BF26
:104BB0004FF0010E4EEA4202ACF1200CDCF11E0E69
:104BC00054D943FA0CFE10EB0E0051F1FF31CCF139
:104BD0001E0ED5D50EF1010E12FA0EFE404141EB2C
:104BE000010101EB445C5FEA5C5C10D910EBDE7004
:104BF00001EB045138BFBEF1004FBDE8104018BFB3
:104C0000704700280CBF491C20F00100704730D2CB
:104C10004FEAD42C11F5001124F400641BD0B1FA32
:104C200081F20B3AA41AA41ED2F12003914030FA6B
:104C300003F31943904001EBCC71002C01EB0451BC
:104C4000BDE81040A8BF704701F1C0414FF000001F
:104C500001F000417047B0FA80F310FA03F100D17F
:104C600010BDE41A173C4805C90AE4E701EB0451FA
:104C700010BD491001EB0451BDE810404FEA30006F
:104C800002E04FF0000170474A0008BF0042F8D030
:104C9000B2F5001F28BF704701F000414FF000003F
:104CA00070479EEA445F07D011EA5E0FBDE81040EE
:104CB00004BF002100207047BDE8104070B5FFF729
:104CC00089FE00BF40DFF63E83F00041104670478A
:104CD0000000E0FF43004FEAD30C4FEA3C0C434096
:104CE0001FBF40070CF1605113F0FE4F70471CF0DE
:104CF000006F03D100200CF0004170470CF000431E
:104D000043EA507010B540EACC0000F0FCF900BF57
:104D1000000000924FEA0001FFF7AABE4FF00041E9
:104D20004FF00000A1F500217047000090EA010F4C
:104D300048BF81F0004100F14082421A3CBF801A16
:104D400089184FEAD0524FF07F4C1CEA410FA2EB7A
:104D5000D15318BF9CEA026F00F03B804FF0004C2B
:104D60004CEA00204CEA012121FA03FC10EB0C0C68
:104D70001ED202F1FF325FEA1C2040EBC25038BF66
:104D800070471CF07F0F4FEA400C18BFBCF17F4FFB
:104D900038BF7047C3F12003994008BF20F00100DD
:104DA000BCF17F4F38BF7047A0F1C04000F0F8B9A8
:104DB0004FEA3C00000A40EBC25028BF1CF0FF0F36
:104DC0004FEA400CE6D018BFBCF17F4F38BF7047A8
:104DD000EAE79CEA026F05D010EA5C0F08BF00F01A
:104DE0000040704710B500F08EF900BF64FBBE3E76
:104DF0004FF47F0C1CEAD0121EBF1CEAD11392EABA
:104E00000C0F93EA0C0F00F0858090EA010F48BF69
:104E100042F4807240F4000C41F400002CF07F4119
:104E200020F07F4000B58142A2EB03020FF2081C84
:104E3000ACEB504EC0F100009EF800E04FEA4E0E81
:104E400000FB0EFC38BF49004FEA2C1C02F5FA02A9
:104E50000CFB0EF34FEACE1E4FEA112C4FEAC12194
:104E60000EEB635E42EB22420EFB0CFC4FEA1C533E
:104E700000FB03114FEA112C4FEA01310EFB0CFC31
:104E80004FEADC4C00FB0C11C14228BF09184CEB67
:104E900003335DF804EB10EB410143EBC250B2F574
:104EA0007C0F38BF704729D512F0F00F1CBF00F1FE
:104EB000C04000F00040704700818283848586876F
:104EC00088898B8C8D8E8F919293959697999A9CC9
:104ED0009D9FA0A2A3A5A7A8AAACAEB0B2B3B5B738
:104EE000B9BCBEC0C2C5C7C9CCCED1D4D7D9DCDF0E
:104EF000E2E6E9ECF0F3F7FAFE0000004FEA400CBE
:104F00000CF1807CBCF17E4F28BF7047B0F1C040EF
:104F100000F046B990EA010F0CEAD11348BF42F401
:104F20008072624538BF634507D213F47F0F16D0F5
:104F300080EA010000F00040704710B500F0E3F88F
:104F4000097EFC3E00F005B880EA010000F0004058
:104F5000704780EA010000F0004000F021B912F42F
:104F60007F0F04BF0248704780EA010000F018B9C3
:104F70000000C07F41000B0ED3F19E0208D950F40F
:104F800000034FEA032323FA02F048BF4042704770
:104F900010B500F0B8F800BF499224800020704797
:104FA0006FF0004282EA20007047000010F00041DC
:104FB00048BF4042B0FA80F310FA03F2C3F19D03F8
:104FC0000BD051EAC35101EB1220530638BF704792
:104FD00000F1010008BF20F001007047B0FA80F333
:104FE00010FA03F2C3F19D030AD0D90501EB122098
:104FF000530638BF704700F1010008BF20F00100E0
:10500000704700004FF47F0C1CEAD0121EBF1CEA50
:10501000D11392EA0C0F93EA0C0F00F0478090EA4C
:10502000010F48BF42F480724FF0004C4CEA002060
:105030004CEA012102EB0302A0FB0113A2F50002DE
:10504000002918BF43F001035B0028BF4FEA330378
:1050500042EB22425FEA132C4CEBC2502EBFBCEB5A
:10506000436FB2F57C0F70474FEA036CBCF1004F01
:1050700008BF20F00100B2F57C0F38BF70470BD598
:1050800082F0FF0212F5803FC8BF704700F1C040B8
:10509000D8BF00F00040704700F5000C5FEA4C0CF0
:1050A00048BF7047B0F1C04000F07AB890EA010FF5
:1050B0000CEAD11348BF42F48072624538BF6345A1
:1050C00004D280EA010000F00040704710B500F003
:1050D0001AF800BF8900013E00F007B800F009B8D7
:1050E0005FEA410C5FEA1C6C08D080EA010000F026
:1050F00057B85FEA400C5FEA1C6CF6D14FF00040F5
:10510000A0F5800070470EF1020E2EF0030E5EF83F
:10511000044B244204D44FEA4102B2F17F4F11D82C
:105120004FEA4003B3F17F4F0CD80ED14FEAD07C49
:10513000B2F17F4F0CEB4C0C0CF1020C08BF4CEBA6
:10514000D17C04E04FF0080C01E04FEAD17C0CEB7D
:105150004C0324FA03F404F00704B4F1040C06D25F
:105160000EEB840CBDE810404CF0010C6047DFE80A
:105170000CF0070802024FF00040A0F5800010BDBF
:105180000846420018BFD2F1807288BF00F000408C
:1051900010BD10B5FFF746FA4FF00001016010BDD9
:1051A000FF2141EAD050C0057047000090EA010F8E
:1051B00048BF81F000413FF5C0AD421A04D882F0EB
:1051C0000042A0EB020011444FEAD0524FF07F4C56
:1051D0001CEA410FA2EBD15318BF9CEA026F4AD0E0
:1051E0004FF0004C4CEA00204CEA012121FA03FC6C
:1051F000B0EB0C0C0FD412F0FE0F36D05FEA4C006F
:105200001DD5001240EBC25038BF70471CF03F0F55
:1052100018BF70470BE0A2F101025FEA1C2040EBCF
:10522000C25038BF70471CF07F0F18BF7047C3F1E2
:105230002003994014BF401E20F0010070478008F1
:105240004FEA122308BF7047B0FA80FCA2EB0C02B1
:10525000CCF1280C60FA0CF093EA122F04BF00EB9B
:10526000C25070474FEAC3707047130A5FEADC1000
:1052700008BF7047F6E79CEA026F04D010EA5C0FA3
:1052800008BF0020704710B5FFF73DFF40DFF63E36
:1052900081F0004070470000B85200080000002074
:1052A0006C00000028010008245300086C00002056
:1052B000F41200004401000800000000000000009B
:1052C00000000000000000000000000001030000DA
:1052D00000000000000000000000000000000000CE
:1052E000000000000102030401020304060708098C
:1052F00002040608000000000300E803DC05320099
:10530000E80300000300E803DC053200E8030000C6
:10531000000100000000000000000000000000008C
:045320000000000089
:0400000508000BE9FB
:00000001FF
