:020000040800F2
:10000000680F0020150B00083105000833050008B3
:10001000370500083B0500083F0500080000000008
:100020000000000000000000000000004305000880
:10003000450500080000000047050008DB0900082E
:100040002B0B00082B0B00082B0B00082B0B0008B8
:100050002B0B00082B0B00082B0B00082B0B0008A8
:100060002B0B00082B0B00082B0B00082B0B000898
:100070002B0B00082B0B00082B0B00082B0B000888
:100080002B0B00082B0B0008ED0100082B0B0008C0
:100090002B0B00082B0B00082B0B00082B0B000868
:1000A0002B0B00082B0B00082B0B00082B0B000858
:1000B0002B0B00082B0B00082B0B00082B0B000848
:1000C0002B0B00082B0B00082B0B00082B0B000838
:1000D0002B0B00082B0B0008F30600082B0B000865
:1000E0002B0B00082B0B00082B0B000800F002F86C
:1000F00000F03CF80AA090E8000C82448344AAF186
:100100000107DA4501D100F031F8AFF2090EBAE883
:100110000F0013F0010F18BFFB1A43F0010318473B
:10012000E832000008330000103A24BF78C878C1D4
:10013000FAD8520724BF30C830C144BF04680C60ED
:10014000704700000023002400250026103A28BF35
:1001500078C1FBD8520728BF30C148BF0B60704739
:100160001FB503F04AF91FBD10B510BD03F00BF920
:100170001146FFF7F5FF00F06DFB03F029F903B41A
:10018000FFF7F2FF03BC03F031F900000021002269
:1001900005E0DA4830F811000244481C81B2D84822
:1001A00000888142F5DBD6480088B2FBF0F080B2CF
:1001B00070470120D349087070470020D14908706A
:1001C00070477047CF4800787047CF480088704725
:1001D00001464FF0FF30CA4A1288914202DACB4AF8
:1001E000118000207047CA480078704710B5C54894
:1001F0000078052822D2DFE800F02403222325001E
:10020000C4480068C4490880C4480088BC490988BB
:10021000884202D10020C1490880BF480188BF48F8
:1002200002880088401CBD4B1880B44820F812108A
:10023000B9480088BA490968884704E000BF00BF90
:1002400000BF00BF00BF00BF6FF00200B1494C39D2
:100250000860B448006840F480204FF0E021C1F805
:10026000800210BD00B585B0684601F032F9DDE9C5
:100270000101884202D1029805B000BD02984000F9
:10028000FAE72DE9F04188B007460121042001F08A
:100290009AF9A54801F0F2F905A801F055FDFFF71C
:1002A000E1FF3968B0FBF1F414B908B0BDE8F081A2
:1002B000B4F5803F03DA0025601E86B23AE04FF0C5
:1002C000FF3294464FF6FF7894FBF8F81FFA88F057
:1002D00019E000F101081FFA88F094FBF0F81FFA0A
:1002E00088F101FB1042624501D294460346A0F515
:1002F0007F48B8F1FF0806D1B4FBF3F81FFA88F184
:1003000098B2002201E0002AE3D100BF884208DD54
:10031000A1F101081FFA88F5A0F101081FFA88F67B
:1003200007E0A0F101081FFA88F5A1F101081FFA02
:1003300088F600BFADF81450ADF8186005A97A48EA
:1003400001F070FA0121784801F026FE01A801F0C1
:1003500004FD6020ADF804000120ADF80600ADF802
:100360000A000220ADF80C0001A96F4801F069FBFA
:1003700001216D4801F00DFD00BF96E708B5012190
:100380004FF4047001F012F92020ADF800000020B5
:100390008DF803006946654800F054FE08BD30B58D
:1003A0008BB0054600205D4908800820544908802C
:1003B0005B496868086001214FF4047001F0F6F8A9
:1003C00001A801F086F805982968B0FBF1F45148BE
:1003D0004C3800F0B9FB06A800F000FC4FF42020D8
:1003E000089001208DF8280006A94A484C3800F0F2
:1003F000D2FB012147484C3800F0C1FC012145489F
:100400004C3800F0F4FBEF2C07DD072301220F210D
:1004100040484C3800F057FC42E0472C07DD0623EB
:1004200001220F213B484C3800F04DFC38E0372CBE
:1004300007DD052301220F2136484C3800F043FC2C
:100440002EE0292C07DD042301220F2131484C38EE
:1004500000F039FC24E01C2C07DD032301220F21CE
:100460002C484C3800F02FFC1AE00D2C07DD02233D
:1004700001220F2127484C3800F025FC10E0072C02
:1004800007DD01231A460F2122484C3800F01BFCDF
:1004900006E0002301220F211E484C3800F013FC17
:1004A0001C484C3800F0C5FB00BF1A484C3800F01F
:1004B000C5FB0028F9D117484C3800F0C9FB00BF34
:1004C00014484C3800F0C9FB0028F9D1012111482B
:1004D0004C3800F08CFB01224FF408710D484C3869
:1004E00000F09BFB2846FFF7CCFEFFF747FF0421F7
:1004F000122000F0EDF90BB030BD000058000020D4
:10050000120000200C000020020000200400002047
:10051000000000204C2401400E00002010000020AC
:100520000800002080E200E00008004000100140C8
:10053000704700BFFEE700BFFEE700BFFEE700BF59
:10054000FEE770477047704770B5054671484068D0
:10055000006870494968C98845546E484068C08839
:10056000401C84B26B4840688088401EA04200DA7C
:100570000024684840680089A04204D103206549EE
:100580004968887206E063484068C4800120614978
:10059000496888725F484068807A032808D002F072
:1005A0003FF9B0F5807F03DC02205A494968887220
:1005B00058484068807A70BD08B50121042000F0D9
:1005C000F5FF0420ADF8000018208DF8030002208C
:1005D0008DF802006946504800F034FD0820ADF85F
:1005E000000004208DF8030069464B4800F02AFD06
:1005F00008BD1FB5044614222146464802F08EFE6F
:10060000684601F041FF206800900121480400F095
:10061000DAFF424801F08CFE6946404801F0CBFE0B
:10062000012240F225513D4801F05DFF02212620C4
:1006300000F04EF9FFF7C0FF0121384801F047FFF5
:100640001FBD34488068C08832498968098988425A
:100650000CD132480C30008820F080002F490C313A
:10066000088000202B498968887270472B480088D1
:1006700010F0800F37D027488068006825498968C6
:100680000989405C2549091D088022488068008945
:10069000401C2049896808811E4880680089B0F59F
:1006A000806F03DB00201B49896808811948806836
:1006B000008918498968C98888420CD117480C30CC
:1006C000008820F0800015490C3108800020114975
:1006D0008968887207E011480C30008840F080007B
:1006E0000E490C31088000BFBFE700B5FFF7A9FF36
:1006F00000BD10B50948048814F0200F04D0011D76
:100700000988C8B2FFF720FF14F0800F01D0FFF76F
:1007100098FF10BD68000020000801400044004020
:10072000012061490870704710B56048007850B3E7
:10073000012804D0022833D0032872D172E05C482B
:10074000007868B1012002F01FFA02F0FCF900F015
:1007500038F958490844584908600020544908703D
:100760005548006800F030F960B15448007801281D
:1007700002D102F012FA02E0002002F005FA002095
:100780004A49087064E002F005FA032807D1022004
:100790004649087002F0EDF901204549087057E01C
:1007A00002F021F8022800D152E04148007858B107
:1007B000032002F056F842484068008A40494968E0
:1007C000488100203A4908703D48406800683C492B
:1007D0004968498930F81140394840684089401CCF
:1007E00037494968488136484068408934494968F2
:1007F0008988884203D10020314949684881241101
:10080000E4B2204602F02DF82D48406840892C497A
:100810004968098A884202D103202449087017E0F8
:10082000FFE700BF25480078022805D001201F49B6
:1008300008701F4908700AE01B48007838B1002092
:10084000194908700120194908701949087000BF3A
:1008500000BF10BD00F03CF900F0B3F81949086082
:1008600000F0AFF8184908601DE01648006800F075
:10087000ABF838B1134800681449084411490860BE
:1008800002F0A2FA1048006800F09EF858B10E4835
:10089000006800F57A700C49086002F0A1F9FFF7D2
:1008A00024FFFFF741FFE0E7190000201A000020B5
:1008B0002000002040420F001C00002018000020F3
:1008C000C4080020280000202C000020A086010081
:1008D00030B50A460346C51700EBD56569112023DC
:1008E00003FB1103DCB213071D0E1D4B1D544FF00B
:1008F000E02303EB8103D3F800310125A5402B430E
:100900004FF0E02505EB8105C5F8003130BD10B58D
:100910000246C41700EBD4646111202202FB1102CD
:10092000D3B2104A52F8214001229A4022430D4C82
:1009300044F8212010BD10B50246C41700EBD46462
:100940006111202202FB1102D3B2074A52F8214062
:1009500001229A402243044C44F8212010BD00009B
:1009600000E400E080E100E080E200E000B585B056
:10097000684600F0AEFD4FF0E020006940F0060050
:100980004FF0E021086146F2A8110198B0FBF1F0A8
:10099000401E4FF0E02148610846006940F0010028
:1009A000086105B000BD00BF0F4909688842FBD847
:1009B000704700B502460C4909688818FFF7F3FF35
:1009C00000BD094800687047014607480068884232
:1009D00001D9012070470020FCE703480068283057
:1009E00001490860704700003000002010B500F099
:1009F00075FCFFF7BBFF4FF4803000F08FFC00F078
:100A0000CCFC012801D000BFFEE74FF48021881004
:100A100000F0E8FC012000F0F1FC4FF4FA70FFF761
:100A2000C8FF392000F09DFC012801D000BFFEE77F
:100A3000022000F0E6FC4FF4FA70FFF7BAFF00F076
:100A4000E9FC0221B1EBA00F01D000BFFEE70020BE
:100A500000F0E5FC002000F0EBFC002000F0F1FCD1
:100A600010BD000008B50121142000F09FFD4FF4D7
:100A70008070ADF8000010208DF8030002208DF882
:100A800002006946204800F0DDFA4FF40070ADF82E
:100A9000000010208DF8030002208DF80200694646
:100AA000194800F0CFFA0120ADF8000028208DF899
:100AB000030002208DF802006946144800F0C2FAD3
:100AC00008BD08B501200090684601F038FE08BD59
:100AD00010B5FFF78BFFFFF7C5FFFFF747FFFFF7E5
:100AE000F0FF42F210700A49086000200872487254
:100AF0004FF400604881084602F057F84FF48070C8
:100B000002F02CF810BD0000001001400008014068
:100B1000C408002008480047FEE7FEE7FEE7FEE7BE
:100B2000FEE7FEE7FEE7FEE7FEE7FEE703480449CF
:100B3000024A044B70470000ED000008680D0020D9
:100B4000680F0020680D002010B50446F948844263
:100B500008D10121401500F043FD0021601500F08F
:100B60003FFD17E0F448844208D10121001500F050
:100B700037FD0021201500F033FD0BE0EF488442E3
:100B800008D10121C80300F02BFD00214FF40040E3
:100B900000F026FD10BD30B502460020002350684D
:100BA000E74C20400D790C6844EA0524204350604E
:100BB0009068E44C2040D1E902542C434D7944EA3A
:100BC000450420439060D06A20F470000C7C641EC1
:100BD000E4B2234340EA0350D06230BD00210160FB
:100BE000017141718160C16001210174704721B1BF
:100BF000826842F00102826003E0826822F0010212
:100C00008260704721B1826842F48072826003E0A2
:100C1000826822F480728260704710B50023CBB2E4
:100C20001AB144681C43446002E044689C43446039
:100C300010BD816841F008018160704701460020C5
:100C40008A6812F0080F01D0012000E000207047F0
:100C5000816841F0040181607047014600208A6884
:100C600012F0040F01D0012000E00020704721B1F4
:100C7000826842F4A002826003E0826822F4A0024B
:100C800082607047014600208A6812F4800F01D00C
:100C9000012000E00020704710B50A460021002323
:100CA000416821F46041531E41EA4331416010BD67
:100CB00021B1426842F40062426003E0426822F4DB
:100CC000006242607047F0B504460D4600200021E6
:100CD000092D11DDE068A5F10A0606EB4607072697
:100CE00006FA07F18843A5F10A0606EB460603FA61
:100CF00006F10843E0600CE0206905EB4507072694
:100D000006FA07F1884305EB450603FA06F10843A6
:100D10002061072A0FDA606B561E06EB86071F2636
:100D200006FA07F18843561E06EB860605FA06F119
:100D30000843606322E00D2A0FDA206BD61F06EB12
:100D400086071F2606FA07F18843D61F06EB86069C
:100D500005FA06F10843206310E0E06AA2F10D06EF
:100D600006EB86071F2606FA07F18843A2F10D0657
:100D700006EB860605FA06F10843E062F0BD21B1F4
:100D8000826842F48012826003E0826822F480125A
:100D9000826070470146C86C80B2704765484C302D
:100DA0000068704721B1426842F48062426003E00B
:100DB000426822F480624260704721B1426842F486
:100DC0008052426003E0426822F4805242607047E1
:100DD0000A460021816821F4E04111438160704797
:100DE00021B1826842F40042826003E0826822F40A
:100DF00000428260704721B1826842F40212826030
:100E000003E0826822F402128260704701460020EB
:100E10008A6812F4001F01D0012000E00020704712
:100E2000F0B504461546002000220026092911DDF0
:100E3000E068A1F10A0707EB470C072707FA0CF255
:100E40009043A1F10A0707EB470703FA07F21043A3
:100E5000E0600CE0206901EB410C072707FA0CF277
:100E6000904301EB410703FA07F210432061A06BA6
:100E7000C0F30156EF1C06F1010CA7EB0C0707EBC2
:100E8000870C1F2707FA0CF29043EF1C06F1010CA8
:100E9000A7EB0C0707EB870701FA07F21043A063E3
:100EA000F0BD10B50A4600210023816B21F44011EA
:100EB000531E41EA0351816310BD10B50023034660
:100EC0000B441A6010BD02460023134601F12800AE
:100ED0000344186880B270470A46002141681A4BE3
:100EE00019401143416070474162826270470A466F
:100EF0000021416821F01F0111434160704740B15A
:100F00000C490831096841F400010A4A08321160AD
:100F100007E008490831096821F40001054A083250
:100F2000116070470246002013680B420ED001206A
:100F30000DE000000024014000280140003C014079
:100F4000FFFEF0FFFDF7F1FFFFFD3FFF00207047C0
:100F5000CA430260704770B5024600200023002497
:100F60000B125568CEB205EA060415681D4202D080
:100F70000CB1012000E0002070BD00220A12D34312
:100F80000360704710B50446CA48844208D1012165
:100F9000042000F025FB0021042000F021FB46E0A6
:100FA000C548844208D10121082000F019FB002126
:100FB000082000F015FB3AE0C048844208D1012126
:100FC000102000F00DFB0021102000F009FB2EE0A6
:100FD000BB48844208D10121202000F001FB002100
:100FE000202000F0FDFA22E0B648844208D1012119
:100FF000402000F0F5FA0021402000F0F1FA16E060
:10100000B148844208D10121802000F0E9FA002192
:10101000802000F0E5FA0AE0AC48844207D10121C3
:10102000801500F0DDFA0021A01500F0D9FA10BDFE
:1010300010B50121084600F0D3FA0021012000F08C
:10104000CFFA10BD2DE9F041024600250026002010
:1010500000230024002791F803C00CF00F0591F83D
:1010600003C01CF0100F03D091F802C04CEA050534
:10107000B1F800C01CF0FF0F31D0146800202BE045
:101080004FF0010C0CFA00F3B1F800C00CEA0306B3
:101090009E4220D183004FF00F0C0CFA03F7BC43A3
:1010A00005FA03FC4CEA040491F803C0BCF1280FD4
:1010B00006D14FF0010C0CFA00FCC2F814C00AE093
:1010C00091F803C0BCF1480F05D14FF0010C0CFAA8
:1010D00000FCC2F810C0401C0828D1D31460B1F83D
:1010E00000C0BCF1FF0F34DD546800202EE000F199
:1010F000080C4FF0010808FA0CF3B1F800C00CEA34
:1011000003069E4221D183004FF00F0C0CFA03F727
:10111000BC4305FA03FC4CEA040491F803C0BCF19B
:10112000280F05D100F1080C08FA0CF8C2F8148059
:1011300091F803C0BCF1480F07D100F1080C4FF043
:10114000010808FA0CF8C2F81080401C0828CED319
:101150005460BDE8F0814FF6FF710180022181707B
:101160000421C17070470246002093680B4201D0F1
:10117000012000E0002070470146886880B2704777
:1011800002460020D3680B4201D0012000E000207D
:1011900070470146C86880B270470161704741617D
:1011A00070470AB1016100E041617047C16070475A
:1011B0004FF480320A43826181618261826982696F
:1011C000704702460020424B18684FF68073184063
:1011D00040EA021008433E4B186070473D49C86121
:1011E0007047F0B50A46002300240021002500F0D6
:1011F0000046B6F1004F02D1354EF16901E0344EA0
:101200007168C0F3034583B200F44016B6F5401F81
:1012100008D121F070612E4E766826F070662C4F52
:101220007E6012E000F48016B6F5801F06D103261A
:1012300006FA05F4A14341F0706106E0460D36015F
:1012400003FA06F6B14341F0706122B1460D360152
:1012500003FA06F6314300F00046B6F1004F02D122
:101260001B4EF16101E01A4E7160F0BD30B50022F5
:101270008B071C0F0F2303FA04F2154B08338C1055
:1012800053F824309343124C08348D1044F8253021
:1012900023468C1053F824308C07240F00FA04F4F2
:1012A00023430B4C08348D1044F8253030BD0A49D7
:1012B0000860704700080140000C01400010014028
:1012C0000014014000180140001C014000200140B2
:1012D0000000014000002042DC002042DC480068A1
:1012E00040F00100DA49086008464068D9490840E2
:1012F000D749486008460068D7490840D449086083
:101300000846006820F4802008600846406820F401
:10131000FE0048604FF41F0088607047CC490968A0
:1013200021F48031CA4A11601146096821F48021F4
:101330001160B0F5803F03D0B0F5802F0ED106E0EC
:10134000C349096841F48031C14A116007E0C049CE
:10135000096841F4A021BE4A116000E000BF00BF4F
:10136000704710B501460022002300204A11012ACF
:1013700002D1B74C236806E0022A02D1B44C236A9A
:1013800001E0B34C636A01F01F02012494401C4247
:1013900001D0012000E0002010BD70B50024002520
:1013A000002600BF3120FFF7DCFF0646641CB4F5C1
:1013B000A06F01D0002EF5D03120FFF7D2FF08B189
:1013C000012500E00025284670BD01460020A04A06
:1013D000106820F0F80040EAC100106070479F4993
:1013E0000860704702460020994B586820F47C1032
:1013F00042EA01031843964B5860704797490866C4
:10140000704701460020924A506820F003000843CC
:10141000506070478E48406800F00C0070470146ED
:1014200000208B4A506820F0F0000843506070475D
:1014300001460020864A506820F4E060084350606E
:10144000704701460020824A506820F4605040EA0C
:10145000C1005060704729B17D4A527A02437C4BEB
:101460005A7206E07A4A527AC343DBB21A40784B8A
:101470005A7270477A490860704701460020744AE2
:10148000506820F440400843506070470021754A7E
:1014900011706F4A82F82010012802D0042808D168
:1014A00003E001216F4A117004E005216D4A1170BB
:1014B00000E000BF00BF70476B4908607047644997
:1014C000096A0143624A11627047674944390860FA
:1014D000704730B500210022002400235C4D6D6868
:1014E00005F00C0121B1042905D0082923D105E01C
:1014F0005E4D056022E05D4D05601FE0544D6D6856
:1015000005F47012524D6D6805F48034022505EB28
:1015100092421CB9564D554305600BE04C4D6D6829
:1015200015F4003F03D0524D5543056002E04F4D86
:101530005543056002E04D4D056000BF00BF444DBE
:101540006D6805F0F00109094A4D6B5C0568DD40E6
:1015500045603F4D6D6805F4E061090A454D6B5CDF
:101560004568DD4085603A4D6D6805F46051C90AF3
:10157000404D6B5C4568DD40C560354D6D6805F4D8
:101580004041890B3C4D6B5CC568B5FBF3F50561CB
:1015900030BD29B12E4A526902432D4B5A6104E0F5
:1015A0002B4A526982432A4B5A61704729B1284A13
:1015B00092690243264B9A6104E0254A926982436C
:1015C000234B9A61704729B1214AD2690243204BCB
:1015D000DA6104E01E4AD26982431D4BDA6170472A
:1015E00029B11B4AD2680243194BDA6004E0184A59
:1015F000D2688243164BDA60704729B1144A1269E7
:101600000243134B1A6104E0114A12698243104BE2
:101610001A61704714494039086070470F49C8641F
:1016200070470B49C87170470948406A40F08070A4
:1016300007494862704701460020054A92680A42FD
:1016400001D0012000E000207047014988727047F6
:10165000001002400000FFF8FFFFF6FE00004242CB
:10166000D8004242201002408004424200127A0018
:1016700000093D00340000204400002010B504465D
:10168000FE48844208D10121C014FFF7A9FF0021C0
:10169000E014FFF7A5FFC4E0B4F1804F08D10121A9
:1016A0000846FFF7AAFF00210120FFF7A6FFB8E0D8
:1016B000F348844208D101210220FFF79EFF002158
:1016C0000220FFF79AFFACE0EE48844208D10121E6
:1016D0000420FFF792FF00210420FFF78EFFA0E017
:1016E000E948844208D101210820FFF786FF002144
:1016F0000820FFF782FF94E0E448844208D10121EA
:101700001020FFF77AFF00211020FFF776FF88E016
:10171000DF48844208D101212020FFF76EFF00211D
:101720002020FFF76AFF7CE0DA48844208D10121DB
:101730004014FFF755FF00216014FFF751FF70E0E0
:10174000D548844209D10121C804FFF749FF00218F
:101750004FF40020FFF744FF63E0D048844209D1F2
:1017600001210805FFF73CFF00214FF48010FFF72F
:1017700037FF56E0CA48844209D101214805FFF7E6
:101780002FFF00214FF40010FFF72AFF49E0C54862
:10179000844208D101214020FFF72FFF0021402083
:1017A000FFF72BFF3DE0C048844208D10121802093
:1017B000FFF723FF00218020FFF71FFF31E0BB4828
:1017C000844208D101218015FFF717FF0021A015E1
:1017D000FFF713FF25E0B648844209D10121080430
:1017E000FFF7FEFE00214FF48030FFF7F9FE18E00E
:1017F000B048844209D101214804FFF7F1FE0021DD
:101800004FF40030FFF7ECFE0BE0AB48844208D108
:1018100001218804FFF7E4FE00214FF48020FFF748
:10182000DFFE10BD00220288944B98420ED0994BE7
:1018300098420BD0B0F1804F08D0914B984205D020
:10184000904B984202D0904B984204D14FF68F7340
:101850001A404B881A438D4B984207D08C4B9842C4
:1018600004D04FF6FF431A40CB881A4302808B887E
:1018700083850B880385814B98420BD0854B98421A
:1018800008D08B4B984205D08A4B984202D08A4BA5
:10189000984201D10B7A038601238382704770B589
:1018A000002400220023058C4FF6FE763540058487
:1018B000028C8388048B4FF68F752C40B51E2C400C
:1018C0000D882C43751E2A400D892A434D882A43D2
:1018D0006A4DA8420BD06F4DA84208D0744DA84263
:1018E00005D0744DA84202D0734DA84213D14FF6D3
:1018F000F7752A404D892A434FF6FB752A408D889B
:101900002A434FF6FF652B404FF6FF552B408D893C
:101910002B43CD892B4383800483CD888586028425
:1019200070BD70B5002400220023058C4FF6EF76C1
:1019300035400584028C8388048B48F6FF752C4063
:101940004FF6FF452C400D882D0644EA15444FF60E
:10195000DF752A400D892D0542EA15424D882D0577
:1019600042EA1542454DA84202D04A4DA8421BD139
:101970004FF67F752A404D892D0542EA15424FF6F4
:10198000BF752A408D882D0542EA15424FF6FF3576
:101990002B404FF2FF752B408D89AD0443EA154370
:1019A000CD89AD0443EA154383800483CD88058740
:1019B000028470BD70B5002400220023058C4FF610
:1019C000FF6635400584028C8388848B4FF68F75C3
:1019D0002C404FF6FC752C400D882C434FF6FF55DC
:1019E0002A400D892D0642EA15424D882D0642EA0D
:1019F0001542224DA84202D0264DA8421BD14FF2DB
:101A0000FF752A404D892D0642EA15424FF6FF35F3
:101A10002A408D882D0642EA15424EF6FF752B406E
:101A20004DF6FF752B408D892D0543EA1543CD8971
:101A30002D0543EA154383808483CD8885870284FE
:101A400070BD70B5002200230024058C4EF6FF7691
:101A500035400584038C8488828B48F6FF752A40C4
:101A60004FF6FF452A400D882D0642EA15424DF6F5
:101A7000FF752B400D892D0720E00000002C014050
:101A80000004004000080040000C0040001000402E
:101A90000014004000340140004C0140005001405F
:101AA0000054014000180040001C0040002000408D
:101AB00000400140004401400048014043EA154312
:101AC0004D882D0743EA1543FE4DA84202D0FE4D36
:101AD000A84206D14BF6FF752C408D89AD0544EA2E
:101AE000154484808283CD88A0F84050038470BD63
:101AF000828B4FF2FF331A408283828B0B0642EABD
:101B0000134282837047F0B50C461546002100222F
:101B10000026078C4EF6FF7C07EA0C070784818BB2
:101B2000028C27073E0C40F6FF4739402F0641EA5A
:101B300017411F0741EA17414DF6FF773A4046F437
:101B400080573A4381830284F0BD828B4FF6F37352
:101B50001A408283828B0A4382837047F0B50C4619
:101B60001546002100220026078C4FF6FF6C07EA7D
:101B70000C070784818B028C27063E0C4FF60C77EE
:101B800039401F0545EA174739434FF6FF573A409A
:101B900046F480773A4381830284F0BD028B4FF292
:101BA000FF331A400283028B0B0642EA1342028380
:101BB0007047F0B50C461546002100220026078C20
:101BC0004FF6EF7C07EA0C070784018B028C270590
:101BD0003E0C40F6FF4739401F0741EA17412F06E8
:101BE00041EA17414FF6DF773A4046F010073A4393
:101BF00001830284F0BD028B4FF6F3731A40028317
:101C0000028B0A4302837047F0B50C46154600214B
:101C10000022068C4FF6FE773E400684018B028C34
:101C20004FF60C7631401E0545EA164631437E1EBE
:101C3000324044F00106324301830284F0BD70B5A6
:101C400005460C46208850B92389A2886188284619
:101C5000FFF7DAFFE1882846FFF7CDFF25E020886F
:101C600004280AD12389A28861882846FFF7A1FFAA
:101C7000E1882846FFF792FF17E0208808280AD15C
:101C80002389A28861882846FFF768FFE1882846F3
:101C9000FFF75BFF09E02389A28861882846FFF7E8
:101CA00032FFE1882846FFF723FF70BD2DE9F041A0
:101CB00005460C4600260127608808B9022600E088
:101CC0000026A088012801D1022700E001272088F2
:101CD000A0B92389A28861882846FFF795FFE1888B
:101CE0002846FFF788FF23893A4631462846FFF702
:101CF00060FFE1882846FFF751FF13E02389A2889F
:101D000061882846FFF755FFE1882846FFF746FF20
:101D100023893A4631462846FFF776FFE188284670
:101D2000FFF769FFBDE8F0810A884B881A438B886A
:101D30001A43CB881A430B891A434B891A438B8960
:101D40001A43A0F8442070474FF6FF7181800021AC
:101D50000180C18041800172704700210180418073
:101D60008180C180018141818181C18170470021D1
:101D700001804180012181800021C1800181704763
:101D80000021018041808180C18001814181818168
:101D9000704721B1028842F00102028004E002880B
:101DA0004FF6FE731A400280704731B1B0F84420FC
:101DB00042F40042A0F8442005E0B0F84420C2F309
:101DC0000E02A0F84420704710B51AB183890B4366
:101DD000838104E08389CC43A4B22340838110BD76
:101DE0008182704741EA0203A0F84830704710B57D
:101DF0001AB183890B43838104E08389CC43A4B265
:101E00002340838110BD01894FF6F8721140018192
:101E100070470A46002101894FF68F73194011431C
:101E20000181704730B504460D4629462046FFF72C
:101E3000F0FF208940F00700208130BD2DE9F041FE
:101E400004460D4616461F46602D06D13B4601222C
:101E500031462046FFF7ADFE05E03B460122314604
:101E60002046FFF7D1FE29462046FFF7D2FF208902
:101E700040F007002081BDE8F08130B50C4600211C
:101E80000189C9B21D0642EA15452543294301814E
:101E900030BD2DE9F04105460E4617469846002410
:101EA00043463A4631462846FFF7E7FF2C894FF66E
:101EB000F870044044F007044FF68F70044044F07B
:101EC000700403E0002C0140003401402C81BDE887
:101ED000F081F0B504460D4616461F463B46324695
:101EE00029462046FFF7C9FF208940F48040208121
:101EF000F0BD0185828270470A46002101884FF6B5
:101F00008F731940114301807047F0B50C46154698
:101F10001E460021002200230189028B038C4FF60C
:101F2000F877394021434FF6FC473A4040F2011719
:101F30003A434FF6DD773B40370545EA17473B43C9
:101F4000018102830384F0BD0A460021018B4FF614
:101F50008F7319401143018370470A460021018B9A
:101F600048F6FF731940130641EA13410183704795
:101F70000A460021818B4FF68F73194011438183EC
:101F800070470A460021818B48F6FF7319401306FB
:101F900041EA13418183704721B1028842F08002F7
:101FA000028004E002884FF67F731A400280704777
:101FB00021B1828842F00402828004E082884FF6D8
:101FC000FB731A408280704721B1828842F0080278
:101FD000828004E082884FF6F7731A40828070474F
:101FE00021B1828842F00102828004E082884FF6AB
:101FF000FE731A40828070470A460021018B4FF61B
:10200000F77319401143018370470A460021018B81
:102010004FF2FF731940130641EA134101837047E1
:102020000A460021818B4FF6F773194011438183D3
:1020300070470A460021818B4FF2FF731940130647
:1020400041EA1341818370470A460021018B4FF614
:10205000FB7319401143018370470A460021018B2D
:102060004FF6FF331940130641EA134101837047CD
:102070000A460021818B4FF6FB731940114381837F
:1020800070470A460021818B4FF6FF331940130633
:1020900041EA1341818370470A460021018B4FF6C4
:1020A0007F7319401143018370470A460021018B59
:1020B000C1F30E01130641EA1341018370470A463A
:1020C0000021818B4FF67F73194011438183704744
:1020D0000A460021818BC1F30E01130641EA134128
:1020E000818370470A460021018C4FF6FD73194029
:1020F0001143018470470A460021018C4FF6F773A3
:1021000019401143018470470A460021018C4FF6A3
:10211000DF731940130541EA1341018470470A46F1
:102120000021018C4FF67F731940130541EA1341DA
:10213000018470470A460021018C4FF6FF53194075
:10214000130641EA1341018470470A460021018CBD
:102150004FF2FF731940130641EA1341018470479F
:102160000A460021018C4DF6FF731940130741EA1E
:1021700013410184704730B5002301248C40A3B281
:10218000048CDD43ADB22C400484048C02FA01F5CA
:10219000ADB22C43048430BD30B5002304248C4000
:1021A000A3B2048CDD43ADB22C400484048C02FA4B
:1021B00001F5ADB22C43048430BD70B50346002058
:1021C00000241846183001258D40ACB21D8CE64322
:1021D000B6B235401D8409B1082909D100EB610070
:1021E000056825F0700505600568154305600CE07D
:1021F0000D1FADB200EB6500056825F4E0450560F4
:102200000568160645EA1645056070BD21B10288CD
:1022100042F00202028004E002884FF6FD731A4089
:102220000280704721B1028842F00402028004E07B
:1022300002884FF6FB731A400280704721B18288F2
:1022400042F08002828004E082884FF67F731A4059
:102250008280704702884FF6F7731A400280028826
:102260000A430280704782884FF68F731A4082803B
:1022700082880A438280704702894FF6F8731A40B9
:10228000028102890A430281704702894FF67F73F7
:102290001A40028102890A43028170478184704793
:1022A00081857047818670470187704781877047B5
:1022B000A0F84010704702884FF6FF431A40028092
:1022C00002880A43028070470146888E70470146A3
:1022D000088F70470146888F70470146B1F840006B
:1022E00070470146888C70470146088D704702464A
:1022F0000020138A0B4201D0012000E0002070472B
:10230000CA430282704730B50246002000230024F1
:10231000158A05EA0103958905EA010413B10CB198
:10232000012000E0002030BDCA4302827047000057
:1023300010B50446FC48844209D101218803FFF707
:102340004FF900214FF48040FFF74AF932E0F74897
:10235000844209D101214804FFF74FF900214FF4CD
:102360000030FFF74AF925E0F148844209D1012104
:102370008804FFF742F900214FF48020FFF73DF970
:1023800018E0EC48844209D10121C804FFF735F96F
:1023900000214FF40020FFF730F90BE0E6488442BB
:1023A00008D101210805FFF728F900214FF480101A
:1023B000FFF723F910BD2DE9F04786B005460E461C
:1023C0000024A24600BFA1460027B08900B100BF8B
:1023D0002F462C8A4CF6FF700440F08804432C8270
:1023E000AC894EF6F3100440B088318908437189F6
:1023F00008430443AC81AC8A4FF6FF400440B089E7
:102400000443AC8201A8FFF764F8C748874202D1B1
:10241000DDF810A001E0DDF80CA0A88910F4004F51
:1024200008D00AEBCA0000EB0A1031684900B0FB83
:10243000F1F807E00AEBCA0000EB0A1031688900E6
:10244000B0FBF1F86420B8FBF0F00401200964212E
:1024500001FB1089A88910F4004F08D0322000EB4E
:10246000C900B0FBF1F000F00700044308E032209F
:1024700000EB09106421B0FBF1F000F00F00044301
:102480002C8106B0BDE8F0874FF4165101600021A1
:102490008180C18001810C214181002181817047AF
:1024A00010B502460020108A4FF2FF0318400B8837
:1024B0004C8823438C882343CC88234318431082C1
:1024C00010BD0021018041808180C180704721B111
:1024D000828942F40052828104E082894DF6FF73C2
:1024E0001A4082817047F0B503460024002600257B
:1024F0000020A1F510676A3F00D100BF1846C1F364
:10250000421401F01F06012707FA06F5012C01D13C
:102510000C3004E0022C01D1103000E014301AB16C
:1025200007682F43076002E00768AF430760F0BD0C
:1025300010B51AB1838A0B43838204E0838ACC43AB
:10254000A4B22340838210BD028A4FF6F0731A4072
:102550000282028A0A430282704782894FF2FF7325
:102560001A40828182890A438281704721B182891F
:1025700042F00202828104E082894FF6FD731A4024
:1025800082817047028A4FF6DF731A400282028A04
:102590000A430282704721B1028A42F480420282D9
:1025A00004E0028A4BF6FF731A4002827047C1F3BF
:1025B00008028280704701468888C0F3080070478F
:1025C000818941F0010181817047028BD2B202837F
:1025D000028B42EA012202837047028B02F47F429F
:1025E0000283028B0A430283704721B1828A42F040
:1025F0002002828204E0828A4FF6DF731A408282D0
:10260000704721B1828A42F01002828204E0828AFD
:102610004FF6EF731A408282704721B1828A42F0EE
:102620000802828204E0828A4FF6F7731A4082829F
:10263000704721B1828942F40042828103E082899D
:10264000C2F30E028281704721B1828A42F4006295
:10265000828204E0828A4FF2FF731A4082827047BE
:10266000828A4FF6FB731A408282828A0A438282F0
:10267000704721B1828A42F00202828204E0828A9B
:102680004FF6FD731A408282704702460020B1F572
:10269000007F00D100BF13880B4201D0012000E071
:1026A0000020704701F40072B2F5007F00D100BF36
:1026B000CA430280704770B50246002400230025FB
:1026C0000020A1F510666A3E00D100BFC1F342159B
:1026D00001F01F03012606FA03F3012D02D19689AA
:1026E000334006E0022D02D1168A334001E0968A7B
:1026F00033400C12012606FA04F41688344013B154
:102700000CB1012000E0002070BD10B500220023B4
:10271000A1F510646A3C00D100BF0A120124944064
:10272000A3B2DC43048010BD0038014000440040E7
:1027300000480040004C004000500040704710B579
:1027400004469B48217801704FF480609949888045
:10275000994808600020C880088188724FF4806022
:1027600096498880964808600020C8800881887251
:102770008F480078012805D0022808D19148924955
:10278000086009E04FF4E1308F49086004E04FF43D
:1027900016508D49086000BF00BF88488A494860CC
:1027A00084488860AFF26B00C8600846FDF721FFDF
:1027B00010BD8248807A70477E4909897D4AD28857
:1027C000914206DD7B4909897A4AD288891A88B202
:1027D00008E078498988774AD288891A754A128927
:1027E000114488B2704700B57248C08871490989A0
:1027F000884203D100206F49887202E001206D49B0
:1028000088726C48807A032807D0FFF7D5FFB0F5AF
:10281000807F02DC0220674988726648807A00BDAA
:1028200066490989654AD288914206DD634909896A
:10283000624AD288891A88B208E0604989885F4A6A
:10284000D288891A5D4A1289114488B2704700B54E
:10285000FFF7E6FFC0F5806080B200BD5B480078FE
:10286000704710B504465348C08853490C5451482A
:10287000C088401C83B24F488088401E984200DACE
:1028800000234C480089984203D1032049498872AB
:1028900004E04848C3800120464988724548807A50
:1028A000032807D0FFF788FFB0F5807F02DC022005
:1028B000404988723F48807A10BD10B504462046D2
:1028C000FFF7CFFF10BD70B5044604E02078FFF796
:1028D000C8FF0546641C20780028F7D1FDF705FFE6
:1028E000284670BD70B504460D46FFF765FFA84247
:1028F0000DDB002605E02078FFF7B3FF641C701C99
:1029000086B2AE42F7DBFDF7F0FE002070BD4FF05F
:10291000FF30FBE72949C988284A1289914202D130
:102920004FF0FF3008E025490989254A505C2349CA
:102930000989491C214A1181204909891F4A928825
:10294000914202DB00211D4A1181704770B5044697
:102950000E46002509E0FFF7DDFF0346B3F1FF3F18
:1029600003D02370641C681C85B2B3F1FF3F01D013
:10297000B542F0DB28B270BD1049C9880F4A1289F0
:10298000914202D14FF0FF3003E00C4909890C4A13
:10299000505C704700B587B0684600F036FC1C22DA
:1029A00069460B4800F0BAFC094807B000BD0000BA
:1029B000480000207C000020C40000208800002087
:1029C000C404002001C20100B00000204900002022
:1029D00094000020827C22B1012A03D0022A12D165
:1029E00010E000BF0289521C0281028983889A424A
:1029F00001D1002202810389026822F8131001220A
:102A0000827400E000BF00BF704730B504460D4639
:102A1000E08958B90220A0742089401C2082208AB5
:102A2000A188884209DB0020208206E02946204652
:102A3000FFF7D0FFE089401EE081A07C30BD018916
:102A4000C18081888289891AC181704730B5044666
:102A500000255F48007B052852D2DFE800F0524590
:102A6000035053005A48007A10B1012826D112E0D1
:102A700057484089A04206DA5648007818B1012527
:102A800000205449087052484089A04202DD0120CC
:102A90005049087012E04E484089A04206DD4D487A
:102AA000007818B1012500204A490870484840893B
:102AB000A04202DA01204749087000BF00BF444924
:102AC00048682146FFF786FF6DB14148407A0128EA
:102AD00009D001203E49087300203E4908703C4956
:102AE0004868FFF7ACFF0EE0394948682146FFF718
:102AF0008CFF022802D103203549087303E002E06D
:102B000000BF00BF00BF00BF30BD1CB50446304849
:102B100004600094AFF2CB0001906846FDF73FFCE3
:102B20001CBD10B50446FDF731FB10BD2A490160FC
:102B30004FF400718180002101814181C181C180F8
:102B400001828174704710B521494868FFF7EEFF94
:102B500002201F490873FDF72CFB10BD0146C21768
:102B600000EBD2525212A0EB4222194B5B689A81C1
:102B7000704710B5FDF721FB00201549087310BD03
:102B8000704713494881704711494872704710498E
:102B9000087270470E48007B704700B501200C4951
:102BA00008734868FFF74BFF00BD1CB5044620685A
:102BB0000090AFF2671001906846FDF7F0FB074800
:102BC0006060002020736068FFF7B0FF1CBD00004C
:102BD000C40800204A000020E8080020D408002093
:102BE000704710B50024E5E089480068001D50F8E2
:102BF0002400884A811A904271D00CDC8649401822
:102C00006ED0864940186CD0854940180DD0854952
:102C1000401867D1A2E08448081870D0B0F5417F11
:102C20006ED082494018F4D16BE0794800681030CA
:102C300050F824007E49884204D14FF47A70FFF79F
:102C400064FF5BE072480068103050F82400794956
:102C5000884204D14FF4FA60FFF757FF4EE06C480A
:102C60000068103050F824007349884204D141F2C2
:102C70008830FFF74AFF41E065480068103050F89F
:102C800024006E49884204D142F21070FFF73DFFE4
:102C900034E05F480068103050F8240068498842EA
:102CA00004D144F62060FFF730FF27E05848006861
:102CB000103050F824006349884204D14CF250305F
:102CC000FFF723FF1AE052480068103050F8240044
:102CD0005D49884207D15D48FFF717FF0EE034E0F9
:102CE0005DE044E062E04A480068103050F824009B
:102CF0005749884202D15748FFF707FF57E052E093
:102D00004EE043480068103050F824005249884291
:102D100003D10020FFF738FF16E03D48006810306F
:102D200050F824004D49884203D10120FFF72CFFC1
:102D30000AE037480068103050F8240048498842BB
:102D400002D10220FFF720FF31E03149096810313C
:102D500051F8241088B2FFF701FF28E02C490968D8
:102D6000103151F8241088B2FFF70BFF1FE02848FC
:102D70000068103050F824003A49884203D10020FE
:102D8000FFF705FF0AE022480068103050F82400E1
:102D90003549884202D10120FFF7F9FE07E006E03D
:102DA000FFF7D1FE03E0FFF7E4FE00E000BF00BF45
:102DB000601CC4B216480068001D50F8240010B111
:102DC000032CFFF611AF10BD10B5FFF7E3FD10495E
:102DD0000860084600680068244940180AD0244961
:102DE000401803D0234940180ED107E022A0FFF776
:102DF0006AFD0AE02DA0FFF766FD06E0FFF7F1FE91
:102E00003AA0FFF760FD00E000BF00BF10BD00006A
:102E10004C00002054455250ACAFBABB0F0901FF23
:102E2000F401F2FE05EF0CFA04F6FDFC090602FFC0
:102E30005F5F4B315F5F4B325F5F4B355F4B3031D4
:102E40005F4B30325F4B30354B303031A086010064
:102E50004B303032400D03004D524F4E4F545541D0
:102E6000474E4953455349524C4C4146AEADADBA1D
:102E700013040EFCEF0AF1F953544D33324631304E
:102E800030206261736564206D756C746970757251
:102E9000706F7365206465766963652056302E30E7
:102EA0002C204B333846454C0D0A0000536F6D659E
:102EB0002070726F626C656D207769746820636F33
:102EC0006D6D616E642070617273696E6720286336
:102ED000686365636B2073796E74617820616E64DA
:102EE0002076616C75657329000000004F4B00006F
:102EF00008B504216846FFF729FD9DF803009DF8F9
:102F000002104FF4807202FB01009DF801101202C2
:102F100002FB01009DF80010120202FB010008BD37
:102F200010B5002453E100BFFFF791FC0428FBDB40
:102F3000FFF7DEFFD149086008460068D04A811AD1
:102F4000904241D00CDCCF4940187BD0CE4940188C
:102F500079D0CE49401877D0CD49401875D154E08A
:102F6000CC48081872D0B0F5417F70D0CA494018DB
:102F7000F4D100BFFFF76BFC0628FBDBFFF7CAFCB0
:102F8000202820D1C549C64840F82410FFF7B0FFDB
:102F9000BA49086008460068C249884209D0B74863
:102FA0000068C149884204D0B4480068BF498842DB
:102FB00006D1B2480168BA480C3040F8241002E04B
:102FC0000120BB490870FFE000BFFFF740FC062866
:102FD000FBDBFFF79FFC202816D1A949B04840F839
:102FE0002410FFF785FFA549086008460068B0F582
:102FF000803F06D208460168A9480C3040F82410EA
:1030000002E00120AA490870DEE000BFFFF71FFCC4
:103010000628FBDBFFF77EFC20281CD1A549A04831
:1030200040F82410FFF764FF9449086008460068E0
:10303000B0F5803F0CD20846016899480C3040F842
:10304000241008E08BE007E02CE0B9E0B3E0ADE04D
:10305000012097490870B7E000BFFFF7F8FB06288A
:10306000FBDBFFF757FC20281BD193498C4840F825
:103070002410FFF73DFF81490860084600688F492A
:10308000884204D07D4800688D49884206D17B483B
:10309000016883480C3040F8241002E00120844984
:1030A000087091E000BFFFF7D2FB0628FBDBFFF7BB
:1030B00031FC202852D18349794840F82410FFF789
:1030C00017FF6E490860084600687F4988423BD078
:1030D0006A4800687D49884236D0684800687C4963
:1030E000884231D0654800687A4988422CD06348CC
:1030F00000687949884227D060480068774988424B
:1031000022D05E480068764988421DD05B4800683E
:103110007449884218D0594800687349884213D0CE
:1031200056480068714988420ED05448006870497A
:10313000884209D0514800686E49884204D04F48FF
:1031400000686D49884206D14C48016854480C30EB
:1031500040F8241002E001205549087034E000BF17
:10316000FFF775FB0628FBDBFFF7D4FB20281CD1FB
:10317000444949424A4840F82410FFF7B9FE3F4904
:103180000860084600685D49884204D03B480068F2
:103190005B49884206D13948016841480C3040F803
:1031A000241002E00120424908700DE055493C48D6
:1031B00040F8241008E05449394840F8241003E04E
:1031C00001203B49087000BF00BF601CC4B2FFF77C
:1031D000A1FB3A2802D1032CFFF6A5AEFFF79AFB1C
:1031E00010BD00202E49091F0860486000212C48AE
:1031F000001F8160C16000202949091F086100216A
:103200002748001F41618161704710B504460020C6
:1032100027490870FFF7E5FFFFF719FB03281BDDBF
:10322000FFF766FE154908600846006837494018F0
:1032300003D0374940180DD105E0344840421849C1
:10324000091F086007E0FFF76BFE32481449091FA9
:10325000086000E000BF00BF15480078012806D1D3
:103260002D480F49091F08600020114908701C22D1
:103270000B49091F204600F051F810BD54000020F2
:1032800054455250ACAFBABB0F0901FFF401F2FE36
:1032900005EF0CFA04F6FDFC090602FF47495254FB
:1032A000EC0C00204D524F4E4F545541474E495360
:1032B000500000204C56454C454744454553495223
:1032C0004C4C4146514552465F5F4B315F5F4B323C
:1032D0005F5F4B355F4B30315F4B30325F4B30358A
:1032E0004B3030314B3030324B3030355F5F4D3109
:1032F0005F5F4D325F5F4D355F4D30315F4238303B
:103300005F42363154525453504F5453C1B1BBB63F
:10331000EF0AF1F95043534F5252524510B5203A3B
:10332000C0F00B80B1E81850203AA0E81850B1E87E
:103330001850A0E81850BFF4F5AF5FEA027C24BF34
:10334000B1E81850A0E8185044BF18C918C0BDE82B
:1033500010405FEA827C24BF51F8043B40F8043BF4
:1033600008BF7047D20728BF31F8023B48BF11F8A9
:10337000012B28BF20F8023B48BF00F8012B704703
:10338000704770477047754600F028F8AE46050054
:103390006946534620F00700854618B020B5FDF772
:1033A000C5FBBDE820404FF000064FF000074FF08E
:1033B00000084FF0000B21F00701AC46ACE8C00953
:1033C000ACE8C009ACE8C009ACE8C0098D4670475C
:1033D0000446AFF300802046FCF7D1FE004870475A
:1033E000040D002000487047080D002001491820F6
:1033F000ABBEFEE726000200704710B5FFF7F2FFF4
:103400004FF00001016010BD2834000800000020CA
:1034100058000000280100088034000858000020EF
:10342000100F000044010008000000000000000030
:10343000000000000000000000000000000000008C
:103440000200000000000000010000000000000079
:10345000000000000000000000000000000000006C
:103460000102030401020304060708090204060816
:10347000000000000000000000000000000000004C
:0400000508000B15CF
:00000001FF
